{
	"contracts/CryptoBankJose.sol": {
		"CryptoBankJose": {
			"abi": [
				{
					"inputs": [
						{
							"internalType": "uint256",
							"name": "maxBalance_",
							"type": "uint256"
						},
						{
							"internalType": "address",
							"name": "admin_",
							"type": "address"
						}
					],
					"stateMutability": "nonpayable",
					"type": "constructor"
				},
				{
					"anonymous": false,
					"inputs": [
						{
							"indexed": false,
							"internalType": "address",
							"name": "user_",
							"type": "address"
						},
						{
							"indexed": false,
							"internalType": "uint256",
							"name": "etheramount_",
							"type": "uint256"
						}
					],
					"name": "EtherDeposit",
					"type": "event"
				},
				{
					"anonymous": false,
					"inputs": [
						{
							"indexed": false,
							"internalType": "address",
							"name": "user_",
							"type": "address"
						},
						{
							"indexed": false,
							"internalType": "uint256",
							"name": "etheramount_",
							"type": "uint256"
						}
					],
					"name": "EtherWithdraw",
					"type": "event"
				},
				{
					"inputs": [],
					"name": "admin",
					"outputs": [
						{
							"internalType": "address",
							"name": "",
							"type": "address"
						}
					],
					"stateMutability": "view",
					"type": "function"
				},
				{
					"inputs": [],
					"name": "depositEther",
					"outputs": [],
					"stateMutability": "payable",
					"type": "function"
				},
				{
					"inputs": [],
					"name": "maxBalance",
					"outputs": [
						{
							"internalType": "uint256",
							"name": "",
							"type": "uint256"
						}
					],
					"stateMutability": "view",
					"type": "function"
				},
				{
					"inputs": [
						{
							"internalType": "uint256",
							"name": "newMaxBalance_",
							"type": "uint256"
						}
					],
					"name": "modifyMaxBalance",
					"outputs": [],
					"stateMutability": "nonpayable",
					"type": "function"
				},
				{
					"inputs": [
						{
							"internalType": "address",
							"name": "",
							"type": "address"
						}
					],
					"name": "userBalance",
					"outputs": [
						{
							"internalType": "uint256",
							"name": "",
							"type": "uint256"
						}
					],
					"stateMutability": "view",
					"type": "function"
				},
				{
					"inputs": [
						{
							"internalType": "uint256",
							"name": "amount_",
							"type": "uint256"
						}
					],
					"name": "withdrawEther",
					"outputs": [],
					"stateMutability": "nonpayable",
					"type": "function"
				}
			],
			"devdoc": {
				"kind": "dev",
				"methods": {},
				"version": 1
			},
			"evm": {
				"assembly": "    /* \"contracts/CryptoBankJose.sol\":570:2408  contract CryptoBankJose {... */\n  mstore(0x40, 0x80)\n    /* \"contracts/CryptoBankJose.sol\":998:1115  constructor(uint256 maxBalance_, address admin_) {... */\n  callvalue\n  dup1\n  iszero\n  tag_1\n  jumpi\n  0x00\n  dup1\n  revert\ntag_1:\n  pop\n  mload(0x40)\n  sub(codesize, bytecodeSize)\n  dup1\n  bytecodeSize\n  dup4\n  codecopy\n  dup2\n  dup2\n  add\n  0x40\n  mstore\n  dup2\n  add\n  swap1\n  tag_2\n  swap2\n  swap1\n  tag_3\n  jump\t// in\ntag_2:\n    /* \"contracts/CryptoBankJose.sol\":1071:1082  maxBalance_ */\n  dup2\n    /* \"contracts/CryptoBankJose.sol\":1058:1068  maxBalance */\n  0x00\n    /* \"contracts/CryptoBankJose.sol\":1058:1082  maxBalance = maxBalance_ */\n  dup2\n  swap1\n  sstore\n  pop\n    /* \"contracts/CryptoBankJose.sol\":1101:1107  admin_ */\n  dup1\n    /* \"contracts/CryptoBankJose.sol\":1093:1098  admin */\n  0x01\n  0x00\n    /* \"contracts/CryptoBankJose.sol\":1093:1107  admin = admin_ */\n  0x0100\n  exp\n  dup2\n  sload\n  dup2\n  0xffffffffffffffffffffffffffffffffffffffff\n  mul\n  not\n  and\n  swap1\n  dup4\n  0xffffffffffffffffffffffffffffffffffffffff\n  and\n  mul\n  or\n  swap1\n  sstore\n  pop\n    /* \"contracts/CryptoBankJose.sol\":998:1115  constructor(uint256 maxBalance_, address admin_) {... */\n  pop\n  pop\n    /* \"contracts/CryptoBankJose.sol\":570:2408  contract CryptoBankJose {... */\n  jump(tag_6)\n    /* \"#utility.yul\":88:205   */\ntag_8:\n    /* \"#utility.yul\":197:198   */\n  0x00\n    /* \"#utility.yul\":194:195   */\n  dup1\n    /* \"#utility.yul\":187:199   */\n  revert\n    /* \"#utility.yul\":334:411   */\ntag_10:\n    /* \"#utility.yul\":371:378   */\n  0x00\n    /* \"#utility.yul\":400:405   */\n  dup2\n    /* \"#utility.yul\":389:405   */\n  swap1\n  pop\n    /* \"#utility.yul\":334:411   */\n  swap2\n  swap1\n  pop\n  jump\t// out\n    /* \"#utility.yul\":417:539   */\ntag_11:\n    /* \"#utility.yul\":490:514   */\n  tag_23\n    /* \"#utility.yul\":508:513   */\n  dup2\n    /* \"#utility.yul\":490:514   */\n  tag_10\n  jump\t// in\ntag_23:\n    /* \"#utility.yul\":483:488   */\n  dup2\n    /* \"#utility.yul\":480:515   */\n  eq\n    /* \"#utility.yul\":470:533   */\n  tag_24\n  jumpi\n    /* \"#utility.yul\":529:530   */\n  0x00\n    /* \"#utility.yul\":526:527   */\n  dup1\n    /* \"#utility.yul\":519:531   */\n  revert\n    /* \"#utility.yul\":470:533   */\ntag_24:\n    /* \"#utility.yul\":417:539   */\n  pop\n  jump\t// out\n    /* \"#utility.yul\":545:688   */\ntag_12:\n    /* \"#utility.yul\":602:607   */\n  0x00\n    /* \"#utility.yul\":633:639   */\n  dup2\n    /* \"#utility.yul\":627:640   */\n  mload\n    /* \"#utility.yul\":618:640   */\n  swap1\n  pop\n    /* \"#utility.yul\":649:682   */\n  tag_26\n    /* \"#utility.yul\":676:681   */\n  dup2\n    /* \"#utility.yul\":649:682   */\n  tag_11\n  jump\t// in\ntag_26:\n    /* \"#utility.yul\":545:688   */\n  swap3\n  swap2\n  pop\n  pop\n  jump\t// out\n    /* \"#utility.yul\":694:820   */\ntag_13:\n    /* \"#utility.yul\":731:738   */\n  0x00\n    /* \"#utility.yul\":771:813   */\n  0xffffffffffffffffffffffffffffffffffffffff\n    /* \"#utility.yul\":764:769   */\n  dup3\n    /* \"#utility.yul\":760:814   */\n  and\n    /* \"#utility.yul\":749:814   */\n  swap1\n  pop\n    /* \"#utility.yul\":694:820   */\n  swap2\n  swap1\n  pop\n  jump\t// out\n    /* \"#utility.yul\":826:922   */\ntag_14:\n    /* \"#utility.yul\":863:870   */\n  0x00\n    /* \"#utility.yul\":892:916   */\n  tag_29\n    /* \"#utility.yul\":910:915   */\n  dup3\n    /* \"#utility.yul\":892:916   */\n  tag_13\n  jump\t// in\ntag_29:\n    /* \"#utility.yul\":881:916   */\n  swap1\n  pop\n    /* \"#utility.yul\":826:922   */\n  swap2\n  swap1\n  pop\n  jump\t// out\n    /* \"#utility.yul\":928:1050   */\ntag_15:\n    /* \"#utility.yul\":1001:1025   */\n  tag_31\n    /* \"#utility.yul\":1019:1024   */\n  dup2\n    /* \"#utility.yul\":1001:1025   */\n  tag_14\n  jump\t// in\ntag_31:\n    /* \"#utility.yul\":994:999   */\n  dup2\n    /* \"#utility.yul\":991:1026   */\n  eq\n    /* \"#utility.yul\":981:1044   */\n  tag_32\n  jumpi\n    /* \"#utility.yul\":1040:1041   */\n  0x00\n    /* \"#utility.yul\":1037:1038   */\n  dup1\n    /* \"#utility.yul\":1030:1042   */\n  revert\n    /* \"#utility.yul\":981:1044   */\ntag_32:\n    /* \"#utility.yul\":928:1050   */\n  pop\n  jump\t// out\n    /* \"#utility.yul\":1056:1199   */\ntag_16:\n    /* \"#utility.yul\":1113:1118   */\n  0x00\n    /* \"#utility.yul\":1144:1150   */\n  dup2\n    /* \"#utility.yul\":1138:1151   */\n  mload\n    /* \"#utility.yul\":1129:1151   */\n  swap1\n  pop\n    /* \"#utility.yul\":1160:1193   */\n  tag_34\n    /* \"#utility.yul\":1187:1192   */\n  dup2\n    /* \"#utility.yul\":1160:1193   */\n  tag_15\n  jump\t// in\ntag_34:\n    /* \"#utility.yul\":1056:1199   */\n  swap3\n  swap2\n  pop\n  pop\n  jump\t// out\n    /* \"#utility.yul\":1205:1712   */\ntag_3:\n    /* \"#utility.yul\":1284:1290   */\n  0x00\n    /* \"#utility.yul\":1292:1298   */\n  dup1\n    /* \"#utility.yul\":1341:1343   */\n  0x40\n    /* \"#utility.yul\":1329:1338   */\n  dup4\n    /* \"#utility.yul\":1320:1327   */\n  dup6\n    /* \"#utility.yul\":1316:1339   */\n  sub\n    /* \"#utility.yul\":1312:1344   */\n  slt\n    /* \"#utility.yul\":1309:1428   */\n  iszero\n  tag_36\n  jumpi\n    /* \"#utility.yul\":1347:1426   */\n  tag_37\n  tag_8\n  jump\t// in\ntag_37:\n    /* \"#utility.yul\":1309:1428   */\ntag_36:\n    /* \"#utility.yul\":1467:1468   */\n  0x00\n    /* \"#utility.yul\":1492:1556   */\n  tag_38\n    /* \"#utility.yul\":1548:1555   */\n  dup6\n    /* \"#utility.yul\":1539:1545   */\n  dup3\n    /* \"#utility.yul\":1528:1537   */\n  dup7\n    /* \"#utility.yul\":1524:1546   */\n  add\n    /* \"#utility.yul\":1492:1556   */\n  tag_12\n  jump\t// in\ntag_38:\n    /* \"#utility.yul\":1482:1556   */\n  swap3\n  pop\n    /* \"#utility.yul\":1438:1566   */\n  pop\n    /* \"#utility.yul\":1605:1607   */\n  0x20\n    /* \"#utility.yul\":1631:1695   */\n  tag_39\n    /* \"#utility.yul\":1687:1694   */\n  dup6\n    /* \"#utility.yul\":1678:1684   */\n  dup3\n    /* \"#utility.yul\":1667:1676   */\n  dup7\n    /* \"#utility.yul\":1663:1685   */\n  add\n    /* \"#utility.yul\":1631:1695   */\n  tag_16\n  jump\t// in\ntag_39:\n    /* \"#utility.yul\":1621:1695   */\n  swap2\n  pop\n    /* \"#utility.yul\":1576:1705   */\n  pop\n    /* \"#utility.yul\":1205:1712   */\n  swap3\n  pop\n  swap3\n  swap1\n  pop\n  jump\t// out\n    /* \"contracts/CryptoBankJose.sol\":570:2408  contract CryptoBankJose {... */\ntag_6:\n  dataSize(sub_0)\n  dup1\n  dataOffset(sub_0)\n  0x00\n  codecopy\n  0x00\n  return\nstop\n\nsub_0: assembly {\n        /* \"contracts/CryptoBankJose.sol\":570:2408  contract CryptoBankJose {... */\n      mstore(0x40, 0x80)\n      jumpi(tag_1, lt(calldatasize, 0x04))\n      shr(0xe0, calldataload(0x00))\n      dup1\n      0x0103c92b\n      eq\n      tag_2\n      jumpi\n      dup1\n      0x3bed33ce\n      eq\n      tag_3\n      jumpi\n      dup1\n      0x73ad468a\n      eq\n      tag_4\n      jumpi\n      dup1\n      0x98ea5fca\n      eq\n      tag_5\n      jumpi\n      dup1\n      0xa2ccd6ba\n      eq\n      tag_6\n      jumpi\n      dup1\n      0xf851a440\n      eq\n      tag_7\n      jumpi\n    tag_1:\n      0x00\n      dup1\n      revert\n        /* \"contracts/CryptoBankJose.sol\":680:726  mapping(address => uint256) public userBalance */\n    tag_2:\n      callvalue\n      dup1\n      iszero\n      tag_8\n      jumpi\n      0x00\n      dup1\n      revert\n    tag_8:\n      pop\n      tag_9\n      0x04\n      dup1\n      calldatasize\n      sub\n      dup2\n      add\n      swap1\n      tag_10\n      swap2\n      swap1\n      tag_11\n      jump\t// in\n    tag_10:\n      tag_12\n      jump\t// in\n    tag_9:\n      mload(0x40)\n      tag_13\n      swap2\n      swap1\n      tag_14\n      jump\t// in\n    tag_13:\n      mload(0x40)\n      dup1\n      swap2\n      sub\n      swap1\n      return\n        /* \"contracts/CryptoBankJose.sol\":1519:2253  function withdrawEther(uint256 amount_) external {... */\n    tag_3:\n      callvalue\n      dup1\n      iszero\n      tag_15\n      jumpi\n      0x00\n      dup1\n      revert\n    tag_15:\n      pop\n      tag_16\n      0x04\n      dup1\n      calldatasize\n      sub\n      dup2\n      add\n      swap1\n      tag_17\n      swap2\n      swap1\n      tag_18\n      jump\t// in\n    tag_17:\n      tag_19\n      jump\t// in\n    tag_16:\n      stop\n        /* \"contracts/CryptoBankJose.sol\":621:646  uint256 public maxBalance */\n    tag_4:\n      callvalue\n      dup1\n      iszero\n      tag_20\n      jumpi\n      0x00\n      dup1\n      revert\n    tag_20:\n      pop\n      tag_21\n      tag_22\n      jump\t// in\n    tag_21:\n      mload(0x40)\n      tag_23\n      swap2\n      swap1\n      tag_14\n      jump\t// in\n    tag_23:\n      mload(0x40)\n      dup1\n      swap2\n      sub\n      swap1\n      return\n        /* \"contracts/CryptoBankJose.sol\":1171:1491  function depositEther() external payable {... */\n    tag_5:\n      tag_24\n      tag_25\n      jump\t// in\n    tag_24:\n      stop\n        /* \"contracts/CryptoBankJose.sol\":2290:2405  function modifyMaxBalance(uint256 newMaxBalance_) external onlyAdmin {... */\n    tag_6:\n      callvalue\n      dup1\n      iszero\n      tag_26\n      jumpi\n      0x00\n      dup1\n      revert\n    tag_26:\n      pop\n      tag_27\n      0x04\n      dup1\n      calldatasize\n      sub\n      dup2\n      add\n      swap1\n      tag_28\n      swap2\n      swap1\n      tag_18\n      jump\t// in\n    tag_28:\n      tag_29\n      jump\t// in\n    tag_27:\n      stop\n        /* \"contracts/CryptoBankJose.sol\":653:673  address public admin */\n    tag_7:\n      callvalue\n      dup1\n      iszero\n      tag_30\n      jumpi\n      0x00\n      dup1\n      revert\n    tag_30:\n      pop\n      tag_31\n      tag_32\n      jump\t// in\n    tag_31:\n      mload(0x40)\n      tag_33\n      swap2\n      swap1\n      tag_34\n      jump\t// in\n    tag_33:\n      mload(0x40)\n      dup1\n      swap2\n      sub\n      swap1\n      return\n        /* \"contracts/CryptoBankJose.sol\":680:726  mapping(address => uint256) public userBalance */\n    tag_12:\n      mstore(0x20, 0x02)\n      dup1\n      0x00\n      mstore\n      keccak256(0x00, 0x40)\n      0x00\n      swap2\n      pop\n      swap1\n      pop\n      sload\n      dup2\n      jump\t// out\n        /* \"contracts/CryptoBankJose.sol\":1519:2253  function withdrawEther(uint256 amount_) external {... */\n    tag_19:\n        /* \"contracts/CryptoBankJose.sol\":1598:1609  userBalance */\n      0x02\n        /* \"contracts/CryptoBankJose.sol\":1598:1621  userBalance[msg.sender] */\n      0x00\n        /* \"contracts/CryptoBankJose.sol\":1610:1620  msg.sender */\n      caller\n        /* \"contracts/CryptoBankJose.sol\":1598:1621  userBalance[msg.sender] */\n      0xffffffffffffffffffffffffffffffffffffffff\n      and\n      0xffffffffffffffffffffffffffffffffffffffff\n      and\n      dup2\n      mstore\n      0x20\n      add\n      swap1\n      dup2\n      mstore\n      0x20\n      add\n      0x00\n      keccak256\n      sload\n        /* \"contracts/CryptoBankJose.sol\":1587:1594  amount_ */\n      dup2\n        /* \"contracts/CryptoBankJose.sol\":1587:1621  amount_ <= userBalance[msg.sender] */\n      gt\n      iszero\n        /* \"contracts/CryptoBankJose.sol\":1579:1642  require(amount_ <= userBalance[msg.sender], \"Not enough ether\") */\n      tag_36\n      jumpi\n      mload(0x40)\n      0x08c379a000000000000000000000000000000000000000000000000000000000\n      dup2\n      mstore\n      0x04\n      add\n      tag_37\n      swap1\n      tag_38\n      jump\t// in\n    tag_37:\n      mload(0x40)\n      dup1\n      swap2\n      sub\n      swap1\n      revert\n    tag_36:\n        /* \"contracts/CryptoBankJose.sol\":1963:1970  amount_ */\n      dup1\n        /* \"contracts/CryptoBankJose.sol\":1936:1947  userBalance */\n      0x02\n        /* \"contracts/CryptoBankJose.sol\":1936:1959  userBalance[msg.sender] */\n      0x00\n        /* \"contracts/CryptoBankJose.sol\":1948:1958  msg.sender */\n      caller\n        /* \"contracts/CryptoBankJose.sol\":1936:1959  userBalance[msg.sender] */\n      0xffffffffffffffffffffffffffffffffffffffff\n      and\n      0xffffffffffffffffffffffffffffffffffffffff\n      and\n      dup2\n      mstore\n      0x20\n      add\n      swap1\n      dup2\n      mstore\n      0x20\n      add\n      0x00\n      keccak256\n      0x00\n        /* \"contracts/CryptoBankJose.sol\":1936:1970  userBalance[msg.sender] -= amount_ */\n      dup3\n      dup3\n      sload\n      tag_39\n      swap2\n      swap1\n      tag_40\n      jump\t// in\n    tag_39:\n      swap3\n      pop\n      pop\n      dup2\n      swap1\n      sstore\n      pop\n        /* \"contracts/CryptoBankJose.sol\":2084:2096  bool success */\n      0x00\n        /* \"contracts/CryptoBankJose.sol\":2101:2111  msg.sender */\n      caller\n        /* \"contracts/CryptoBankJose.sol\":2101:2116  msg.sender.call */\n      0xffffffffffffffffffffffffffffffffffffffff\n      and\n        /* \"contracts/CryptoBankJose.sol\":2124:2131  amount_ */\n      dup3\n        /* \"contracts/CryptoBankJose.sol\":2101:2136  msg.sender.call{value: amount_}(\"\") */\n      mload(0x40)\n      tag_41\n      swap1\n      tag_42\n      jump\t// in\n    tag_41:\n      0x00\n      mload(0x40)\n      dup1\n      dup4\n      sub\n      dup2\n      dup6\n      dup8\n      gas\n      call\n      swap3\n      pop\n      pop\n      pop\n      returndatasize\n      dup1\n      0x00\n      dup2\n      eq\n      tag_45\n      jumpi\n      mload(0x40)\n      swap2\n      pop\n      and(add(returndatasize, 0x3f), not(0x1f))\n      dup3\n      add\n      0x40\n      mstore\n      returndatasize\n      dup3\n      mstore\n      returndatasize\n      0x00\n      0x20\n      dup5\n      add\n      returndatacopy\n      jump(tag_44)\n    tag_45:\n      0x60\n      swap2\n      pop\n    tag_44:\n      pop\n        /* \"contracts/CryptoBankJose.sol\":2083:2136  (bool success,) = msg.sender.call{value: amount_}(\"\") */\n      pop\n      swap1\n      pop\n        /* \"contracts/CryptoBankJose.sol\":2166:2173  success */\n      dup1\n        /* \"contracts/CryptoBankJose.sol\":2158:2193  require(success, \"Transfer failed\") */\n      tag_46\n      jumpi\n      mload(0x40)\n      0x08c379a000000000000000000000000000000000000000000000000000000000\n      dup2\n      mstore\n      0x04\n      add\n      tag_47\n      swap1\n      tag_48\n      jump\t// in\n    tag_47:\n      mload(0x40)\n      dup1\n      swap2\n      sub\n      swap1\n      revert\n    tag_46:\n        /* \"contracts/CryptoBankJose.sol\":2211:2245  EtherWithdraw(msg.sender, amount_) */\n      0x88f6de14cf08cddfb4408f10758b118c28fc89b6e294e40a62286f8672599de8\n        /* \"contracts/CryptoBankJose.sol\":2225:2235  msg.sender */\n      caller\n        /* \"contracts/CryptoBankJose.sol\":2237:2244  amount_ */\n      dup4\n        /* \"contracts/CryptoBankJose.sol\":2211:2245  EtherWithdraw(msg.sender, amount_) */\n      mload(0x40)\n      tag_49\n      swap3\n      swap2\n      swap1\n      tag_50\n      jump\t// in\n    tag_49:\n      mload(0x40)\n      dup1\n      swap2\n      sub\n      swap1\n      log1\n        /* \"contracts/CryptoBankJose.sol\":1568:2253  {... */\n      pop\n        /* \"contracts/CryptoBankJose.sol\":1519:2253  function withdrawEther(uint256 amount_) external {... */\n      pop\n      jump\t// out\n        /* \"contracts/CryptoBankJose.sol\":621:646  uint256 public maxBalance */\n    tag_22:\n      sload(0x00)\n      dup2\n      jump\t// out\n        /* \"contracts/CryptoBankJose.sol\":1171:1491  function depositEther() external payable {... */\n    tag_25:\n        /* \"contracts/CryptoBankJose.sol\":1270:1280  maxBalance */\n      sload(0x00)\n        /* \"contracts/CryptoBankJose.sol\":1257:1266  msg.value */\n      callvalue\n        /* \"contracts/CryptoBankJose.sol\":1231:1242  userBalance */\n      0x02\n        /* \"contracts/CryptoBankJose.sol\":1231:1254  userBalance[msg.sender] */\n      0x00\n        /* \"contracts/CryptoBankJose.sol\":1243:1253  msg.sender */\n      caller\n        /* \"contracts/CryptoBankJose.sol\":1231:1254  userBalance[msg.sender] */\n      0xffffffffffffffffffffffffffffffffffffffff\n      and\n      0xffffffffffffffffffffffffffffffffffffffff\n      and\n      dup2\n      mstore\n      0x20\n      add\n      swap1\n      dup2\n      mstore\n      0x20\n      add\n      0x00\n      keccak256\n      sload\n        /* \"contracts/CryptoBankJose.sol\":1231:1266  userBalance[msg.sender] + msg.value */\n      tag_52\n      swap2\n      swap1\n      tag_53\n      jump\t// in\n    tag_52:\n        /* \"contracts/CryptoBankJose.sol\":1231:1280  userBalance[msg.sender] + msg.value <= maxBalance */\n      gt\n      iszero\n        /* \"contracts/CryptoBankJose.sol\":1223:1303  require(userBalance[msg.sender] + msg.value <= maxBalance, \"MaxBalance reached\") */\n      tag_54\n      jumpi\n      mload(0x40)\n      0x08c379a000000000000000000000000000000000000000000000000000000000\n      dup2\n      mstore\n      0x04\n      add\n      tag_55\n      swap1\n      tag_56\n      jump\t// in\n    tag_55:\n      mload(0x40)\n      dup1\n      swap2\n      sub\n      swap1\n      revert\n    tag_54:\n        /* \"contracts/CryptoBankJose.sol\":1341:1350  msg.value */\n      callvalue\n        /* \"contracts/CryptoBankJose.sol\":1314:1325  userBalance */\n      0x02\n        /* \"contracts/CryptoBankJose.sol\":1314:1337  userBalance[msg.sender] */\n      0x00\n        /* \"contracts/CryptoBankJose.sol\":1326:1336  msg.sender */\n      caller\n        /* \"contracts/CryptoBankJose.sol\":1314:1337  userBalance[msg.sender] */\n      0xffffffffffffffffffffffffffffffffffffffff\n      and\n      0xffffffffffffffffffffffffffffffffffffffff\n      and\n      dup2\n      mstore\n      0x20\n      add\n      swap1\n      dup2\n      mstore\n      0x20\n      add\n      0x00\n      keccak256\n      0x00\n        /* \"contracts/CryptoBankJose.sol\":1314:1350  userBalance[msg.sender] += msg.value */\n      dup3\n      dup3\n      sload\n      tag_57\n      swap2\n      swap1\n      tag_53\n      jump\t// in\n    tag_57:\n      swap3\n      pop\n      pop\n      dup2\n      swap1\n      sstore\n      pop\n        /* \"contracts/CryptoBankJose.sol\":1433:1468  EtherDeposit(msg.sender, msg.value) */\n      0xa58b71ad2e6ce803dd1eec62e2f3717a164a8912ee33eb51a57a234ba56b5535\n        /* \"contracts/CryptoBankJose.sol\":1446:1456  msg.sender */\n      caller\n        /* \"contracts/CryptoBankJose.sol\":1458:1467  msg.value */\n      callvalue\n        /* \"contracts/CryptoBankJose.sol\":1433:1468  EtherDeposit(msg.sender, msg.value) */\n      mload(0x40)\n      tag_58\n      swap3\n      swap2\n      swap1\n      tag_50\n      jump\t// in\n    tag_58:\n      mload(0x40)\n      dup1\n      swap2\n      sub\n      swap1\n      log1\n        /* \"contracts/CryptoBankJose.sol\":1171:1491  function depositEther() external payable {... */\n      jump\t// out\n        /* \"contracts/CryptoBankJose.sol\":2290:2405  function modifyMaxBalance(uint256 newMaxBalance_) external onlyAdmin {... */\n    tag_29:\n        /* \"contracts/CryptoBankJose.sol\":949:954  admin */\n      0x01\n      0x00\n      swap1\n      sload\n      swap1\n      0x0100\n      exp\n      swap1\n      div\n      0xffffffffffffffffffffffffffffffffffffffff\n      and\n        /* \"contracts/CryptoBankJose.sol\":935:954  msg.sender == admin */\n      0xffffffffffffffffffffffffffffffffffffffff\n      and\n        /* \"contracts/CryptoBankJose.sol\":935:945  msg.sender */\n      caller\n        /* \"contracts/CryptoBankJose.sol\":935:954  msg.sender == admin */\n      0xffffffffffffffffffffffffffffffffffffffff\n      and\n      eq\n        /* \"contracts/CryptoBankJose.sol\":927:970  require(msg.sender == admin, \"Not allowed\") */\n      tag_60\n      jumpi\n      mload(0x40)\n      0x08c379a000000000000000000000000000000000000000000000000000000000\n      dup2\n      mstore\n      0x04\n      add\n      tag_61\n      swap1\n      tag_62\n      jump\t// in\n    tag_61:\n      mload(0x40)\n      dup1\n      swap2\n      sub\n      swap1\n      revert\n    tag_60:\n        /* \"contracts/CryptoBankJose.sol\":2383:2397  newMaxBalance_ */\n      dup1\n        /* \"contracts/CryptoBankJose.sol\":2370:2380  maxBalance */\n      0x00\n        /* \"contracts/CryptoBankJose.sol\":2370:2397  maxBalance = newMaxBalance_ */\n      dup2\n      swap1\n      sstore\n      pop\n        /* \"contracts/CryptoBankJose.sol\":2290:2405  function modifyMaxBalance(uint256 newMaxBalance_) external onlyAdmin {... */\n      pop\n      jump\t// out\n        /* \"contracts/CryptoBankJose.sol\":653:673  address public admin */\n    tag_32:\n      0x01\n      0x00\n      swap1\n      sload\n      swap1\n      0x0100\n      exp\n      swap1\n      div\n      0xffffffffffffffffffffffffffffffffffffffff\n      and\n      dup2\n      jump\t// out\n        /* \"#utility.yul\":88:205   */\n    tag_65:\n        /* \"#utility.yul\":197:198   */\n      0x00\n        /* \"#utility.yul\":194:195   */\n      dup1\n        /* \"#utility.yul\":187:199   */\n      revert\n        /* \"#utility.yul\":334:460   */\n    tag_67:\n        /* \"#utility.yul\":371:378   */\n      0x00\n        /* \"#utility.yul\":411:453   */\n      0xffffffffffffffffffffffffffffffffffffffff\n        /* \"#utility.yul\":404:409   */\n      dup3\n        /* \"#utility.yul\":400:454   */\n      and\n        /* \"#utility.yul\":389:454   */\n      swap1\n      pop\n        /* \"#utility.yul\":334:460   */\n      swap2\n      swap1\n      pop\n      jump\t// out\n        /* \"#utility.yul\":466:562   */\n    tag_68:\n        /* \"#utility.yul\":503:510   */\n      0x00\n        /* \"#utility.yul\":532:556   */\n      tag_95\n        /* \"#utility.yul\":550:555   */\n      dup3\n        /* \"#utility.yul\":532:556   */\n      tag_67\n      jump\t// in\n    tag_95:\n        /* \"#utility.yul\":521:556   */\n      swap1\n      pop\n        /* \"#utility.yul\":466:562   */\n      swap2\n      swap1\n      pop\n      jump\t// out\n        /* \"#utility.yul\":568:690   */\n    tag_69:\n        /* \"#utility.yul\":641:665   */\n      tag_97\n        /* \"#utility.yul\":659:664   */\n      dup2\n        /* \"#utility.yul\":641:665   */\n      tag_68\n      jump\t// in\n    tag_97:\n        /* \"#utility.yul\":634:639   */\n      dup2\n        /* \"#utility.yul\":631:666   */\n      eq\n        /* \"#utility.yul\":621:684   */\n      tag_98\n      jumpi\n        /* \"#utility.yul\":680:681   */\n      0x00\n        /* \"#utility.yul\":677:678   */\n      dup1\n        /* \"#utility.yul\":670:682   */\n      revert\n        /* \"#utility.yul\":621:684   */\n    tag_98:\n        /* \"#utility.yul\":568:690   */\n      pop\n      jump\t// out\n        /* \"#utility.yul\":696:835   */\n    tag_70:\n        /* \"#utility.yul\":742:747   */\n      0x00\n        /* \"#utility.yul\":780:786   */\n      dup2\n        /* \"#utility.yul\":767:787   */\n      calldataload\n        /* \"#utility.yul\":758:787   */\n      swap1\n      pop\n        /* \"#utility.yul\":796:829   */\n      tag_100\n        /* \"#utility.yul\":823:828   */\n      dup2\n        /* \"#utility.yul\":796:829   */\n      tag_69\n      jump\t// in\n    tag_100:\n        /* \"#utility.yul\":696:835   */\n      swap3\n      swap2\n      pop\n      pop\n      jump\t// out\n        /* \"#utility.yul\":841:1170   */\n    tag_11:\n        /* \"#utility.yul\":900:906   */\n      0x00\n        /* \"#utility.yul\":949:951   */\n      0x20\n        /* \"#utility.yul\":937:946   */\n      dup3\n        /* \"#utility.yul\":928:935   */\n      dup5\n        /* \"#utility.yul\":924:947   */\n      sub\n        /* \"#utility.yul\":920:952   */\n      slt\n        /* \"#utility.yul\":917:1036   */\n      iszero\n      tag_102\n      jumpi\n        /* \"#utility.yul\":955:1034   */\n      tag_103\n      tag_65\n      jump\t// in\n    tag_103:\n        /* \"#utility.yul\":917:1036   */\n    tag_102:\n        /* \"#utility.yul\":1075:1076   */\n      0x00\n        /* \"#utility.yul\":1100:1153   */\n      tag_104\n        /* \"#utility.yul\":1145:1152   */\n      dup5\n        /* \"#utility.yul\":1136:1142   */\n      dup3\n        /* \"#utility.yul\":1125:1134   */\n      dup6\n        /* \"#utility.yul\":1121:1143   */\n      add\n        /* \"#utility.yul\":1100:1153   */\n      tag_70\n      jump\t// in\n    tag_104:\n        /* \"#utility.yul\":1090:1153   */\n      swap2\n      pop\n        /* \"#utility.yul\":1046:1163   */\n      pop\n        /* \"#utility.yul\":841:1170   */\n      swap3\n      swap2\n      pop\n      pop\n      jump\t// out\n        /* \"#utility.yul\":1176:1253   */\n    tag_71:\n        /* \"#utility.yul\":1213:1220   */\n      0x00\n        /* \"#utility.yul\":1242:1247   */\n      dup2\n        /* \"#utility.yul\":1231:1247   */\n      swap1\n      pop\n        /* \"#utility.yul\":1176:1253   */\n      swap2\n      swap1\n      pop\n      jump\t// out\n        /* \"#utility.yul\":1259:1377   */\n    tag_72:\n        /* \"#utility.yul\":1346:1370   */\n      tag_107\n        /* \"#utility.yul\":1364:1369   */\n      dup2\n        /* \"#utility.yul\":1346:1370   */\n      tag_71\n      jump\t// in\n    tag_107:\n        /* \"#utility.yul\":1341:1344   */\n      dup3\n        /* \"#utility.yul\":1334:1371   */\n      mstore\n        /* \"#utility.yul\":1259:1377   */\n      pop\n      pop\n      jump\t// out\n        /* \"#utility.yul\":1383:1605   */\n    tag_14:\n        /* \"#utility.yul\":1476:1480   */\n      0x00\n        /* \"#utility.yul\":1514:1516   */\n      0x20\n        /* \"#utility.yul\":1503:1512   */\n      dup3\n        /* \"#utility.yul\":1499:1517   */\n      add\n        /* \"#utility.yul\":1491:1517   */\n      swap1\n      pop\n        /* \"#utility.yul\":1527:1598   */\n      tag_109\n        /* \"#utility.yul\":1595:1596   */\n      0x00\n        /* \"#utility.yul\":1584:1593   */\n      dup4\n        /* \"#utility.yul\":1580:1597   */\n      add\n        /* \"#utility.yul\":1571:1577   */\n      dup5\n        /* \"#utility.yul\":1527:1598   */\n      tag_72\n      jump\t// in\n    tag_109:\n        /* \"#utility.yul\":1383:1605   */\n      swap3\n      swap2\n      pop\n      pop\n      jump\t// out\n        /* \"#utility.yul\":1611:1733   */\n    tag_73:\n        /* \"#utility.yul\":1684:1708   */\n      tag_111\n        /* \"#utility.yul\":1702:1707   */\n      dup2\n        /* \"#utility.yul\":1684:1708   */\n      tag_71\n      jump\t// in\n    tag_111:\n        /* \"#utility.yul\":1677:1682   */\n      dup2\n        /* \"#utility.yul\":1674:1709   */\n      eq\n        /* \"#utility.yul\":1664:1727   */\n      tag_112\n      jumpi\n        /* \"#utility.yul\":1723:1724   */\n      0x00\n        /* \"#utility.yul\":1720:1721   */\n      dup1\n        /* \"#utility.yul\":1713:1725   */\n      revert\n        /* \"#utility.yul\":1664:1727   */\n    tag_112:\n        /* \"#utility.yul\":1611:1733   */\n      pop\n      jump\t// out\n        /* \"#utility.yul\":1739:1878   */\n    tag_74:\n        /* \"#utility.yul\":1785:1790   */\n      0x00\n        /* \"#utility.yul\":1823:1829   */\n      dup2\n        /* \"#utility.yul\":1810:1830   */\n      calldataload\n        /* \"#utility.yul\":1801:1830   */\n      swap1\n      pop\n        /* \"#utility.yul\":1839:1872   */\n      tag_114\n        /* \"#utility.yul\":1866:1871   */\n      dup2\n        /* \"#utility.yul\":1839:1872   */\n      tag_73\n      jump\t// in\n    tag_114:\n        /* \"#utility.yul\":1739:1878   */\n      swap3\n      swap2\n      pop\n      pop\n      jump\t// out\n        /* \"#utility.yul\":1884:2213   */\n    tag_18:\n        /* \"#utility.yul\":1943:1949   */\n      0x00\n        /* \"#utility.yul\":1992:1994   */\n      0x20\n        /* \"#utility.yul\":1980:1989   */\n      dup3\n        /* \"#utility.yul\":1971:1978   */\n      dup5\n        /* \"#utility.yul\":1967:1990   */\n      sub\n        /* \"#utility.yul\":1963:1995   */\n      slt\n        /* \"#utility.yul\":1960:2079   */\n      iszero\n      tag_116\n      jumpi\n        /* \"#utility.yul\":1998:2077   */\n      tag_117\n      tag_65\n      jump\t// in\n    tag_117:\n        /* \"#utility.yul\":1960:2079   */\n    tag_116:\n        /* \"#utility.yul\":2118:2119   */\n      0x00\n        /* \"#utility.yul\":2143:2196   */\n      tag_118\n        /* \"#utility.yul\":2188:2195   */\n      dup5\n        /* \"#utility.yul\":2179:2185   */\n      dup3\n        /* \"#utility.yul\":2168:2177   */\n      dup6\n        /* \"#utility.yul\":2164:2186   */\n      add\n        /* \"#utility.yul\":2143:2196   */\n      tag_74\n      jump\t// in\n    tag_118:\n        /* \"#utility.yul\":2133:2196   */\n      swap2\n      pop\n        /* \"#utility.yul\":2089:2206   */\n      pop\n        /* \"#utility.yul\":1884:2213   */\n      swap3\n      swap2\n      pop\n      pop\n      jump\t// out\n        /* \"#utility.yul\":2219:2337   */\n    tag_75:\n        /* \"#utility.yul\":2306:2330   */\n      tag_120\n        /* \"#utility.yul\":2324:2329   */\n      dup2\n        /* \"#utility.yul\":2306:2330   */\n      tag_68\n      jump\t// in\n    tag_120:\n        /* \"#utility.yul\":2301:2304   */\n      dup3\n        /* \"#utility.yul\":2294:2331   */\n      mstore\n        /* \"#utility.yul\":2219:2337   */\n      pop\n      pop\n      jump\t// out\n        /* \"#utility.yul\":2343:2565   */\n    tag_34:\n        /* \"#utility.yul\":2436:2440   */\n      0x00\n        /* \"#utility.yul\":2474:2476   */\n      0x20\n        /* \"#utility.yul\":2463:2472   */\n      dup3\n        /* \"#utility.yul\":2459:2477   */\n      add\n        /* \"#utility.yul\":2451:2477   */\n      swap1\n      pop\n        /* \"#utility.yul\":2487:2558   */\n      tag_122\n        /* \"#utility.yul\":2555:2556   */\n      0x00\n        /* \"#utility.yul\":2544:2553   */\n      dup4\n        /* \"#utility.yul\":2540:2557   */\n      add\n        /* \"#utility.yul\":2531:2537   */\n      dup5\n        /* \"#utility.yul\":2487:2558   */\n      tag_75\n      jump\t// in\n    tag_122:\n        /* \"#utility.yul\":2343:2565   */\n      swap3\n      swap2\n      pop\n      pop\n      jump\t// out\n        /* \"#utility.yul\":2571:2740   */\n    tag_76:\n        /* \"#utility.yul\":2655:2666   */\n      0x00\n        /* \"#utility.yul\":2689:2695   */\n      dup3\n        /* \"#utility.yul\":2684:2687   */\n      dup3\n        /* \"#utility.yul\":2677:2696   */\n      mstore\n        /* \"#utility.yul\":2729:2733   */\n      0x20\n        /* \"#utility.yul\":2724:2727   */\n      dup3\n        /* \"#utility.yul\":2720:2734   */\n      add\n        /* \"#utility.yul\":2705:2734   */\n      swap1\n      pop\n        /* \"#utility.yul\":2571:2740   */\n      swap3\n      swap2\n      pop\n      pop\n      jump\t// out\n        /* \"#utility.yul\":2746:2912   */\n    tag_77:\n        /* \"#utility.yul\":2886:2904   */\n      0x4e6f7420656e6f75676820657468657200000000000000000000000000000000\n        /* \"#utility.yul\":2882:2883   */\n      0x00\n        /* \"#utility.yul\":2874:2880   */\n      dup3\n        /* \"#utility.yul\":2870:2884   */\n      add\n        /* \"#utility.yul\":2863:2905   */\n      mstore\n        /* \"#utility.yul\":2746:2912   */\n      pop\n      jump\t// out\n        /* \"#utility.yul\":2918:3284   */\n    tag_78:\n        /* \"#utility.yul\":3060:3063   */\n      0x00\n        /* \"#utility.yul\":3081:3148   */\n      tag_126\n        /* \"#utility.yul\":3145:3147   */\n      0x10\n        /* \"#utility.yul\":3140:3143   */\n      dup4\n        /* \"#utility.yul\":3081:3148   */\n      tag_76\n      jump\t// in\n    tag_126:\n        /* \"#utility.yul\":3074:3148   */\n      swap2\n      pop\n        /* \"#utility.yul\":3157:3250   */\n      tag_127\n        /* \"#utility.yul\":3246:3249   */\n      dup3\n        /* \"#utility.yul\":3157:3250   */\n      tag_77\n      jump\t// in\n    tag_127:\n        /* \"#utility.yul\":3275:3277   */\n      0x20\n        /* \"#utility.yul\":3270:3273   */\n      dup3\n        /* \"#utility.yul\":3266:3278   */\n      add\n        /* \"#utility.yul\":3259:3278   */\n      swap1\n      pop\n        /* \"#utility.yul\":2918:3284   */\n      swap2\n      swap1\n      pop\n      jump\t// out\n        /* \"#utility.yul\":3290:3709   */\n    tag_38:\n        /* \"#utility.yul\":3456:3460   */\n      0x00\n        /* \"#utility.yul\":3494:3496   */\n      0x20\n        /* \"#utility.yul\":3483:3492   */\n      dup3\n        /* \"#utility.yul\":3479:3497   */\n      add\n        /* \"#utility.yul\":3471:3497   */\n      swap1\n      pop\n        /* \"#utility.yul\":3543:3552   */\n      dup2\n        /* \"#utility.yul\":3537:3541   */\n      dup2\n        /* \"#utility.yul\":3533:3553   */\n      sub\n        /* \"#utility.yul\":3529:3530   */\n      0x00\n        /* \"#utility.yul\":3518:3527   */\n      dup4\n        /* \"#utility.yul\":3514:3531   */\n      add\n        /* \"#utility.yul\":3507:3554   */\n      mstore\n        /* \"#utility.yul\":3571:3702   */\n      tag_129\n        /* \"#utility.yul\":3697:3701   */\n      dup2\n        /* \"#utility.yul\":3571:3702   */\n      tag_78\n      jump\t// in\n    tag_129:\n        /* \"#utility.yul\":3563:3702   */\n      swap1\n      pop\n        /* \"#utility.yul\":3290:3709   */\n      swap2\n      swap1\n      pop\n      jump\t// out\n        /* \"#utility.yul\":3715:3895   */\n    tag_79:\n        /* \"#utility.yul\":3763:3840   */\n      0x4e487b7100000000000000000000000000000000000000000000000000000000\n        /* \"#utility.yul\":3760:3761   */\n      0x00\n        /* \"#utility.yul\":3753:3841   */\n      mstore\n        /* \"#utility.yul\":3860:3864   */\n      0x11\n        /* \"#utility.yul\":3857:3858   */\n      0x04\n        /* \"#utility.yul\":3850:3865   */\n      mstore\n        /* \"#utility.yul\":3884:3888   */\n      0x24\n        /* \"#utility.yul\":3881:3882   */\n      0x00\n        /* \"#utility.yul\":3874:3889   */\n      revert\n        /* \"#utility.yul\":3901:4095   */\n    tag_40:\n        /* \"#utility.yul\":3941:3945   */\n      0x00\n        /* \"#utility.yul\":3961:3981   */\n      tag_132\n        /* \"#utility.yul\":3979:3980   */\n      dup3\n        /* \"#utility.yul\":3961:3981   */\n      tag_71\n      jump\t// in\n    tag_132:\n        /* \"#utility.yul\":3956:3981   */\n      swap2\n      pop\n        /* \"#utility.yul\":3995:4015   */\n      tag_133\n        /* \"#utility.yul\":4013:4014   */\n      dup4\n        /* \"#utility.yul\":3995:4015   */\n      tag_71\n      jump\t// in\n    tag_133:\n        /* \"#utility.yul\":3990:4015   */\n      swap3\n      pop\n        /* \"#utility.yul\":4039:4040   */\n      dup3\n        /* \"#utility.yul\":4036:4037   */\n      dup3\n        /* \"#utility.yul\":4032:4041   */\n      sub\n        /* \"#utility.yul\":4024:4041   */\n      swap1\n      pop\n        /* \"#utility.yul\":4063:4064   */\n      dup2\n        /* \"#utility.yul\":4057:4061   */\n      dup2\n        /* \"#utility.yul\":4054:4065   */\n      gt\n        /* \"#utility.yul\":4051:4088   */\n      iszero\n      tag_134\n      jumpi\n        /* \"#utility.yul\":4068:4086   */\n      tag_135\n      tag_79\n      jump\t// in\n    tag_135:\n        /* \"#utility.yul\":4051:4088   */\n    tag_134:\n        /* \"#utility.yul\":3901:4095   */\n      swap3\n      swap2\n      pop\n      pop\n      jump\t// out\n        /* \"#utility.yul\":4101:4248   */\n    tag_80:\n        /* \"#utility.yul\":4202:4213   */\n      0x00\n        /* \"#utility.yul\":4239:4242   */\n      dup2\n        /* \"#utility.yul\":4224:4242   */\n      swap1\n      pop\n        /* \"#utility.yul\":4101:4248   */\n      swap3\n      swap2\n      pop\n      pop\n      jump\t// out\n        /* \"#utility.yul\":4254:4368   */\n    tag_81:\n      pop\n      jump\t// out\n        /* \"#utility.yul\":4374:4772   */\n    tag_82:\n        /* \"#utility.yul\":4533:4536   */\n      0x00\n        /* \"#utility.yul\":4554:4637   */\n      tag_139\n        /* \"#utility.yul\":4635:4636   */\n      0x00\n        /* \"#utility.yul\":4630:4633   */\n      dup4\n        /* \"#utility.yul\":4554:4637   */\n      tag_80\n      jump\t// in\n    tag_139:\n        /* \"#utility.yul\":4547:4637   */\n      swap2\n      pop\n        /* \"#utility.yul\":4646:4739   */\n      tag_140\n        /* \"#utility.yul\":4735:4738   */\n      dup3\n        /* \"#utility.yul\":4646:4739   */\n      tag_81\n      jump\t// in\n    tag_140:\n        /* \"#utility.yul\":4764:4765   */\n      0x00\n        /* \"#utility.yul\":4759:4762   */\n      dup3\n        /* \"#utility.yul\":4755:4766   */\n      add\n        /* \"#utility.yul\":4748:4766   */\n      swap1\n      pop\n        /* \"#utility.yul\":4374:4772   */\n      swap2\n      swap1\n      pop\n      jump\t// out\n        /* \"#utility.yul\":4778:5157   */\n    tag_42:\n        /* \"#utility.yul\":4962:4965   */\n      0x00\n        /* \"#utility.yul\":4984:5131   */\n      tag_142\n        /* \"#utility.yul\":5127:5130   */\n      dup3\n        /* \"#utility.yul\":4984:5131   */\n      tag_82\n      jump\t// in\n    tag_142:\n        /* \"#utility.yul\":4977:5131   */\n      swap2\n      pop\n        /* \"#utility.yul\":5148:5151   */\n      dup2\n        /* \"#utility.yul\":5141:5151   */\n      swap1\n      pop\n        /* \"#utility.yul\":4778:5157   */\n      swap2\n      swap1\n      pop\n      jump\t// out\n        /* \"#utility.yul\":5163:5328   */\n    tag_83:\n        /* \"#utility.yul\":5303:5320   */\n      0x5472616e73666572206661696c65640000000000000000000000000000000000\n        /* \"#utility.yul\":5299:5300   */\n      0x00\n        /* \"#utility.yul\":5291:5297   */\n      dup3\n        /* \"#utility.yul\":5287:5301   */\n      add\n        /* \"#utility.yul\":5280:5321   */\n      mstore\n        /* \"#utility.yul\":5163:5328   */\n      pop\n      jump\t// out\n        /* \"#utility.yul\":5334:5700   */\n    tag_84:\n        /* \"#utility.yul\":5476:5479   */\n      0x00\n        /* \"#utility.yul\":5497:5564   */\n      tag_145\n        /* \"#utility.yul\":5561:5563   */\n      0x0f\n        /* \"#utility.yul\":5556:5559   */\n      dup4\n        /* \"#utility.yul\":5497:5564   */\n      tag_76\n      jump\t// in\n    tag_145:\n        /* \"#utility.yul\":5490:5564   */\n      swap2\n      pop\n        /* \"#utility.yul\":5573:5666   */\n      tag_146\n        /* \"#utility.yul\":5662:5665   */\n      dup3\n        /* \"#utility.yul\":5573:5666   */\n      tag_83\n      jump\t// in\n    tag_146:\n        /* \"#utility.yul\":5691:5693   */\n      0x20\n        /* \"#utility.yul\":5686:5689   */\n      dup3\n        /* \"#utility.yul\":5682:5694   */\n      add\n        /* \"#utility.yul\":5675:5694   */\n      swap1\n      pop\n        /* \"#utility.yul\":5334:5700   */\n      swap2\n      swap1\n      pop\n      jump\t// out\n        /* \"#utility.yul\":5706:6125   */\n    tag_48:\n        /* \"#utility.yul\":5872:5876   */\n      0x00\n        /* \"#utility.yul\":5910:5912   */\n      0x20\n        /* \"#utility.yul\":5899:5908   */\n      dup3\n        /* \"#utility.yul\":5895:5913   */\n      add\n        /* \"#utility.yul\":5887:5913   */\n      swap1\n      pop\n        /* \"#utility.yul\":5959:5968   */\n      dup2\n        /* \"#utility.yul\":5953:5957   */\n      dup2\n        /* \"#utility.yul\":5949:5969   */\n      sub\n        /* \"#utility.yul\":5945:5946   */\n      0x00\n        /* \"#utility.yul\":5934:5943   */\n      dup4\n        /* \"#utility.yul\":5930:5947   */\n      add\n        /* \"#utility.yul\":5923:5970   */\n      mstore\n        /* \"#utility.yul\":5987:6118   */\n      tag_148\n        /* \"#utility.yul\":6113:6117   */\n      dup2\n        /* \"#utility.yul\":5987:6118   */\n      tag_84\n      jump\t// in\n    tag_148:\n        /* \"#utility.yul\":5979:6118   */\n      swap1\n      pop\n        /* \"#utility.yul\":5706:6125   */\n      swap2\n      swap1\n      pop\n      jump\t// out\n        /* \"#utility.yul\":6131:6463   */\n    tag_50:\n        /* \"#utility.yul\":6252:6256   */\n      0x00\n        /* \"#utility.yul\":6290:6292   */\n      0x40\n        /* \"#utility.yul\":6279:6288   */\n      dup3\n        /* \"#utility.yul\":6275:6293   */\n      add\n        /* \"#utility.yul\":6267:6293   */\n      swap1\n      pop\n        /* \"#utility.yul\":6303:6374   */\n      tag_150\n        /* \"#utility.yul\":6371:6372   */\n      0x00\n        /* \"#utility.yul\":6360:6369   */\n      dup4\n        /* \"#utility.yul\":6356:6373   */\n      add\n        /* \"#utility.yul\":6347:6353   */\n      dup6\n        /* \"#utility.yul\":6303:6374   */\n      tag_75\n      jump\t// in\n    tag_150:\n        /* \"#utility.yul\":6384:6456   */\n      tag_151\n        /* \"#utility.yul\":6452:6454   */\n      0x20\n        /* \"#utility.yul\":6441:6450   */\n      dup4\n        /* \"#utility.yul\":6437:6455   */\n      add\n        /* \"#utility.yul\":6428:6434   */\n      dup5\n        /* \"#utility.yul\":6384:6456   */\n      tag_72\n      jump\t// in\n    tag_151:\n        /* \"#utility.yul\":6131:6463   */\n      swap4\n      swap3\n      pop\n      pop\n      pop\n      jump\t// out\n        /* \"#utility.yul\":6469:6660   */\n    tag_53:\n        /* \"#utility.yul\":6509:6512   */\n      0x00\n        /* \"#utility.yul\":6528:6548   */\n      tag_153\n        /* \"#utility.yul\":6546:6547   */\n      dup3\n        /* \"#utility.yul\":6528:6548   */\n      tag_71\n      jump\t// in\n    tag_153:\n        /* \"#utility.yul\":6523:6548   */\n      swap2\n      pop\n        /* \"#utility.yul\":6562:6582   */\n      tag_154\n        /* \"#utility.yul\":6580:6581   */\n      dup4\n        /* \"#utility.yul\":6562:6582   */\n      tag_71\n      jump\t// in\n    tag_154:\n        /* \"#utility.yul\":6557:6582   */\n      swap3\n      pop\n        /* \"#utility.yul\":6605:6606   */\n      dup3\n        /* \"#utility.yul\":6602:6603   */\n      dup3\n        /* \"#utility.yul\":6598:6607   */\n      add\n        /* \"#utility.yul\":6591:6607   */\n      swap1\n      pop\n        /* \"#utility.yul\":6626:6629   */\n      dup1\n        /* \"#utility.yul\":6623:6624   */\n      dup3\n        /* \"#utility.yul\":6620:6630   */\n      gt\n        /* \"#utility.yul\":6617:6653   */\n      iszero\n      tag_155\n      jumpi\n        /* \"#utility.yul\":6633:6651   */\n      tag_156\n      tag_79\n      jump\t// in\n    tag_156:\n        /* \"#utility.yul\":6617:6653   */\n    tag_155:\n        /* \"#utility.yul\":6469:6660   */\n      swap3\n      swap2\n      pop\n      pop\n      jump\t// out\n        /* \"#utility.yul\":6666:6834   */\n    tag_85:\n        /* \"#utility.yul\":6806:6826   */\n      0x4d617842616c616e636520726561636865640000000000000000000000000000\n        /* \"#utility.yul\":6802:6803   */\n      0x00\n        /* \"#utility.yul\":6794:6800   */\n      dup3\n        /* \"#utility.yul\":6790:6804   */\n      add\n        /* \"#utility.yul\":6783:6827   */\n      mstore\n        /* \"#utility.yul\":6666:6834   */\n      pop\n      jump\t// out\n        /* \"#utility.yul\":6840:7206   */\n    tag_86:\n        /* \"#utility.yul\":6982:6985   */\n      0x00\n        /* \"#utility.yul\":7003:7070   */\n      tag_159\n        /* \"#utility.yul\":7067:7069   */\n      0x12\n        /* \"#utility.yul\":7062:7065   */\n      dup4\n        /* \"#utility.yul\":7003:7070   */\n      tag_76\n      jump\t// in\n    tag_159:\n        /* \"#utility.yul\":6996:7070   */\n      swap2\n      pop\n        /* \"#utility.yul\":7079:7172   */\n      tag_160\n        /* \"#utility.yul\":7168:7171   */\n      dup3\n        /* \"#utility.yul\":7079:7172   */\n      tag_85\n      jump\t// in\n    tag_160:\n        /* \"#utility.yul\":7197:7199   */\n      0x20\n        /* \"#utility.yul\":7192:7195   */\n      dup3\n        /* \"#utility.yul\":7188:7200   */\n      add\n        /* \"#utility.yul\":7181:7200   */\n      swap1\n      pop\n        /* \"#utility.yul\":6840:7206   */\n      swap2\n      swap1\n      pop\n      jump\t// out\n        /* \"#utility.yul\":7212:7631   */\n    tag_56:\n        /* \"#utility.yul\":7378:7382   */\n      0x00\n        /* \"#utility.yul\":7416:7418   */\n      0x20\n        /* \"#utility.yul\":7405:7414   */\n      dup3\n        /* \"#utility.yul\":7401:7419   */\n      add\n        /* \"#utility.yul\":7393:7419   */\n      swap1\n      pop\n        /* \"#utility.yul\":7465:7474   */\n      dup2\n        /* \"#utility.yul\":7459:7463   */\n      dup2\n        /* \"#utility.yul\":7455:7475   */\n      sub\n        /* \"#utility.yul\":7451:7452   */\n      0x00\n        /* \"#utility.yul\":7440:7449   */\n      dup4\n        /* \"#utility.yul\":7436:7453   */\n      add\n        /* \"#utility.yul\":7429:7476   */\n      mstore\n        /* \"#utility.yul\":7493:7624   */\n      tag_162\n        /* \"#utility.yul\":7619:7623   */\n      dup2\n        /* \"#utility.yul\":7493:7624   */\n      tag_86\n      jump\t// in\n    tag_162:\n        /* \"#utility.yul\":7485:7624   */\n      swap1\n      pop\n        /* \"#utility.yul\":7212:7631   */\n      swap2\n      swap1\n      pop\n      jump\t// out\n        /* \"#utility.yul\":7637:7798   */\n    tag_87:\n        /* \"#utility.yul\":7777:7790   */\n      0x4e6f7420616c6c6f776564000000000000000000000000000000000000000000\n        /* \"#utility.yul\":7773:7774   */\n      0x00\n        /* \"#utility.yul\":7765:7771   */\n      dup3\n        /* \"#utility.yul\":7761:7775   */\n      add\n        /* \"#utility.yul\":7754:7791   */\n      mstore\n        /* \"#utility.yul\":7637:7798   */\n      pop\n      jump\t// out\n        /* \"#utility.yul\":7804:8170   */\n    tag_88:\n        /* \"#utility.yul\":7946:7949   */\n      0x00\n        /* \"#utility.yul\":7967:8034   */\n      tag_165\n        /* \"#utility.yul\":8031:8033   */\n      0x0b\n        /* \"#utility.yul\":8026:8029   */\n      dup4\n        /* \"#utility.yul\":7967:8034   */\n      tag_76\n      jump\t// in\n    tag_165:\n        /* \"#utility.yul\":7960:8034   */\n      swap2\n      pop\n        /* \"#utility.yul\":8043:8136   */\n      tag_166\n        /* \"#utility.yul\":8132:8135   */\n      dup3\n        /* \"#utility.yul\":8043:8136   */\n      tag_87\n      jump\t// in\n    tag_166:\n        /* \"#utility.yul\":8161:8163   */\n      0x20\n        /* \"#utility.yul\":8156:8159   */\n      dup3\n        /* \"#utility.yul\":8152:8164   */\n      add\n        /* \"#utility.yul\":8145:8164   */\n      swap1\n      pop\n        /* \"#utility.yul\":7804:8170   */\n      swap2\n      swap1\n      pop\n      jump\t// out\n        /* \"#utility.yul\":8176:8595   */\n    tag_62:\n        /* \"#utility.yul\":8342:8346   */\n      0x00\n        /* \"#utility.yul\":8380:8382   */\n      0x20\n        /* \"#utility.yul\":8369:8378   */\n      dup3\n        /* \"#utility.yul\":8365:8383   */\n      add\n        /* \"#utility.yul\":8357:8383   */\n      swap1\n      pop\n        /* \"#utility.yul\":8429:8438   */\n      dup2\n        /* \"#utility.yul\":8423:8427   */\n      dup2\n        /* \"#utility.yul\":8419:8439   */\n      sub\n        /* \"#utility.yul\":8415:8416   */\n      0x00\n        /* \"#utility.yul\":8404:8413   */\n      dup4\n        /* \"#utility.yul\":8400:8417   */\n      add\n        /* \"#utility.yul\":8393:8440   */\n      mstore\n        /* \"#utility.yul\":8457:8588   */\n      tag_168\n        /* \"#utility.yul\":8583:8587   */\n      dup2\n        /* \"#utility.yul\":8457:8588   */\n      tag_88\n      jump\t// in\n    tag_168:\n        /* \"#utility.yul\":8449:8588   */\n      swap1\n      pop\n        /* \"#utility.yul\":8176:8595   */\n      swap2\n      swap1\n      pop\n      jump\t// out\n\n    auxdata: 0xa2646970667358221220abe0adc42a7fd246ccd5f85325862f5b1c79886fcd2230517017e47507ad819164736f6c63430008180033\n}\n",
				"bytecode": {
					"linkReferences": {},
					"object": "608060405234801561000f575f80fd5b50604051610a5d380380610a5d8339818101604052810190610031919061010f565b815f819055508060015f6101000a81548173ffffffffffffffffffffffffffffffffffffffff021916908373ffffffffffffffffffffffffffffffffffffffff160217905550505061014d565b5f80fd5b5f819050919050565b61009481610082565b811461009e575f80fd5b50565b5f815190506100af8161008b565b92915050565b5f73ffffffffffffffffffffffffffffffffffffffff82169050919050565b5f6100de826100b5565b9050919050565b6100ee816100d4565b81146100f8575f80fd5b50565b5f81519050610109816100e5565b92915050565b5f80604083850312156101255761012461007e565b5b5f610132858286016100a1565b9250506020610143858286016100fb565b9150509250929050565b6109038061015a5f395ff3fe608060405260043610610054575f3560e01c80630103c92b146100585780633bed33ce1461009457806373ad468a146100bc57806398ea5fca146100e6578063a2ccd6ba146100f0578063f851a44014610118575b5f80fd5b348015610063575f80fd5b5061007e60048036038101906100799190610549565b610142565b60405161008b919061058c565b60405180910390f35b34801561009f575f80fd5b506100ba60048036038101906100b591906105cf565b610157565b005b3480156100c7575f80fd5b506100d061030f565b6040516100dd919061058c565b60405180910390f35b6100ee610314565b005b3480156100fb575f80fd5b50610116600480360381019061011191906105cf565b61042e565b005b348015610123575f80fd5b5061012c6104c6565b6040516101399190610609565b60405180910390f35b6002602052805f5260405f205f915090505481565b60025f3373ffffffffffffffffffffffffffffffffffffffff1673ffffffffffffffffffffffffffffffffffffffff1681526020019081526020015f20548111156101d7576040517f08c379a00000000000000000000000000000000000000000000000000000000081526004016101ce9061067c565b60405180910390fd5b8060025f3373ffffffffffffffffffffffffffffffffffffffff1673ffffffffffffffffffffffffffffffffffffffff1681526020019081526020015f205f82825461022391906106c7565b925050819055505f3373ffffffffffffffffffffffffffffffffffffffff168260405161024f90610727565b5f6040518083038185875af1925050503d805f8114610289576040519150601f19603f3d011682016040523d82523d5f602084013e61028e565b606091505b50509050806102d2576040517f08c379a00000000000000000000000000000000000000000000000000000000081526004016102c990610785565b60405180910390fd5b7f88f6de14cf08cddfb4408f10758b118c28fc89b6e294e40a62286f8672599de833836040516103039291906107a3565b60405180910390a15050565b5f5481565b5f543460025f3373ffffffffffffffffffffffffffffffffffffffff1673ffffffffffffffffffffffffffffffffffffffff1681526020019081526020015f205461035f91906107ca565b11156103a0576040517f08c379a000000000000000000000000000000000000000000000000000000000815260040161039790610847565b60405180910390fd5b3460025f3373ffffffffffffffffffffffffffffffffffffffff1673ffffffffffffffffffffffffffffffffffffffff1681526020019081526020015f205f8282546103ec91906107ca565b925050819055507fa58b71ad2e6ce803dd1eec62e2f3717a164a8912ee33eb51a57a234ba56b553533346040516104249291906107a3565b60405180910390a1565b60015f9054906101000a900473ffffffffffffffffffffffffffffffffffffffff1673ffffffffffffffffffffffffffffffffffffffff163373ffffffffffffffffffffffffffffffffffffffff16146104bd576040517f08c379a00000000000000000000000000000000000000000000000000000000081526004016104b4906108af565b60405180910390fd5b805f8190555050565b60015f9054906101000a900473ffffffffffffffffffffffffffffffffffffffff1681565b5f80fd5b5f73ffffffffffffffffffffffffffffffffffffffff82169050919050565b5f610518826104ef565b9050919050565b6105288161050e565b8114610532575f80fd5b50565b5f813590506105438161051f565b92915050565b5f6020828403121561055e5761055d6104eb565b5b5f61056b84828501610535565b91505092915050565b5f819050919050565b61058681610574565b82525050565b5f60208201905061059f5f83018461057d565b92915050565b6105ae81610574565b81146105b8575f80fd5b50565b5f813590506105c9816105a5565b92915050565b5f602082840312156105e4576105e36104eb565b5b5f6105f1848285016105bb565b91505092915050565b6106038161050e565b82525050565b5f60208201905061061c5f8301846105fa565b92915050565b5f82825260208201905092915050565b7f4e6f7420656e6f756768206574686572000000000000000000000000000000005f82015250565b5f610666601083610622565b915061067182610632565b602082019050919050565b5f6020820190508181035f8301526106938161065a565b9050919050565b7f4e487b71000000000000000000000000000000000000000000000000000000005f52601160045260245ffd5b5f6106d182610574565b91506106dc83610574565b92508282039050818111156106f4576106f361069a565b5b92915050565b5f81905092915050565b50565b5f6107125f836106fa565b915061071d82610704565b5f82019050919050565b5f61073182610707565b9150819050919050565b7f5472616e73666572206661696c656400000000000000000000000000000000005f82015250565b5f61076f600f83610622565b915061077a8261073b565b602082019050919050565b5f6020820190508181035f83015261079c81610763565b9050919050565b5f6040820190506107b65f8301856105fa565b6107c3602083018461057d565b9392505050565b5f6107d482610574565b91506107df83610574565b92508282019050808211156107f7576107f661069a565b5b92915050565b7f4d617842616c616e6365207265616368656400000000000000000000000000005f82015250565b5f610831601283610622565b915061083c826107fd565b602082019050919050565b5f6020820190508181035f83015261085e81610825565b9050919050565b7f4e6f7420616c6c6f7765640000000000000000000000000000000000000000005f82015250565b5f610899600b83610622565b91506108a482610865565b602082019050919050565b5f6020820190508181035f8301526108c68161088d565b905091905056fea2646970667358221220abe0adc42a7fd246ccd5f85325862f5b1c79886fcd2230517017e47507ad819164736f6c63430008180033",
					"opcodes": "PUSH1 0x80 PUSH1 0x40 MSTORE CALLVALUE DUP1 ISZERO PUSH2 0xF JUMPI PUSH0 DUP1 REVERT JUMPDEST POP PUSH1 0x40 MLOAD PUSH2 0xA5D CODESIZE SUB DUP1 PUSH2 0xA5D DUP4 CODECOPY DUP2 DUP2 ADD PUSH1 0x40 MSTORE DUP2 ADD SWAP1 PUSH2 0x31 SWAP2 SWAP1 PUSH2 0x10F JUMP JUMPDEST DUP2 PUSH0 DUP2 SWAP1 SSTORE POP DUP1 PUSH1 0x1 PUSH0 PUSH2 0x100 EXP DUP2 SLOAD DUP2 PUSH20 0xFFFFFFFFFFFFFFFFFFFFFFFFFFFFFFFFFFFFFFFF MUL NOT AND SWAP1 DUP4 PUSH20 0xFFFFFFFFFFFFFFFFFFFFFFFFFFFFFFFFFFFFFFFF AND MUL OR SWAP1 SSTORE POP POP POP PUSH2 0x14D JUMP JUMPDEST PUSH0 DUP1 REVERT JUMPDEST PUSH0 DUP2 SWAP1 POP SWAP2 SWAP1 POP JUMP JUMPDEST PUSH2 0x94 DUP2 PUSH2 0x82 JUMP JUMPDEST DUP2 EQ PUSH2 0x9E JUMPI PUSH0 DUP1 REVERT JUMPDEST POP JUMP JUMPDEST PUSH0 DUP2 MLOAD SWAP1 POP PUSH2 0xAF DUP2 PUSH2 0x8B JUMP JUMPDEST SWAP3 SWAP2 POP POP JUMP JUMPDEST PUSH0 PUSH20 0xFFFFFFFFFFFFFFFFFFFFFFFFFFFFFFFFFFFFFFFF DUP3 AND SWAP1 POP SWAP2 SWAP1 POP JUMP JUMPDEST PUSH0 PUSH2 0xDE DUP3 PUSH2 0xB5 JUMP JUMPDEST SWAP1 POP SWAP2 SWAP1 POP JUMP JUMPDEST PUSH2 0xEE DUP2 PUSH2 0xD4 JUMP JUMPDEST DUP2 EQ PUSH2 0xF8 JUMPI PUSH0 DUP1 REVERT JUMPDEST POP JUMP JUMPDEST PUSH0 DUP2 MLOAD SWAP1 POP PUSH2 0x109 DUP2 PUSH2 0xE5 JUMP JUMPDEST SWAP3 SWAP2 POP POP JUMP JUMPDEST PUSH0 DUP1 PUSH1 0x40 DUP4 DUP6 SUB SLT ISZERO PUSH2 0x125 JUMPI PUSH2 0x124 PUSH2 0x7E JUMP JUMPDEST JUMPDEST PUSH0 PUSH2 0x132 DUP6 DUP3 DUP7 ADD PUSH2 0xA1 JUMP JUMPDEST SWAP3 POP POP PUSH1 0x20 PUSH2 0x143 DUP6 DUP3 DUP7 ADD PUSH2 0xFB JUMP JUMPDEST SWAP2 POP POP SWAP3 POP SWAP3 SWAP1 POP JUMP JUMPDEST PUSH2 0x903 DUP1 PUSH2 0x15A PUSH0 CODECOPY PUSH0 RETURN INVALID PUSH1 0x80 PUSH1 0x40 MSTORE PUSH1 0x4 CALLDATASIZE LT PUSH2 0x54 JUMPI PUSH0 CALLDATALOAD PUSH1 0xE0 SHR DUP1 PUSH4 0x103C92B EQ PUSH2 0x58 JUMPI DUP1 PUSH4 0x3BED33CE EQ PUSH2 0x94 JUMPI DUP1 PUSH4 0x73AD468A EQ PUSH2 0xBC JUMPI DUP1 PUSH4 0x98EA5FCA EQ PUSH2 0xE6 JUMPI DUP1 PUSH4 0xA2CCD6BA EQ PUSH2 0xF0 JUMPI DUP1 PUSH4 0xF851A440 EQ PUSH2 0x118 JUMPI JUMPDEST PUSH0 DUP1 REVERT JUMPDEST CALLVALUE DUP1 ISZERO PUSH2 0x63 JUMPI PUSH0 DUP1 REVERT JUMPDEST POP PUSH2 0x7E PUSH1 0x4 DUP1 CALLDATASIZE SUB DUP2 ADD SWAP1 PUSH2 0x79 SWAP2 SWAP1 PUSH2 0x549 JUMP JUMPDEST PUSH2 0x142 JUMP JUMPDEST PUSH1 0x40 MLOAD PUSH2 0x8B SWAP2 SWAP1 PUSH2 0x58C JUMP JUMPDEST PUSH1 0x40 MLOAD DUP1 SWAP2 SUB SWAP1 RETURN JUMPDEST CALLVALUE DUP1 ISZERO PUSH2 0x9F JUMPI PUSH0 DUP1 REVERT JUMPDEST POP PUSH2 0xBA PUSH1 0x4 DUP1 CALLDATASIZE SUB DUP2 ADD SWAP1 PUSH2 0xB5 SWAP2 SWAP1 PUSH2 0x5CF JUMP JUMPDEST PUSH2 0x157 JUMP JUMPDEST STOP JUMPDEST CALLVALUE DUP1 ISZERO PUSH2 0xC7 JUMPI PUSH0 DUP1 REVERT JUMPDEST POP PUSH2 0xD0 PUSH2 0x30F JUMP JUMPDEST PUSH1 0x40 MLOAD PUSH2 0xDD SWAP2 SWAP1 PUSH2 0x58C JUMP JUMPDEST PUSH1 0x40 MLOAD DUP1 SWAP2 SUB SWAP1 RETURN JUMPDEST PUSH2 0xEE PUSH2 0x314 JUMP JUMPDEST STOP JUMPDEST CALLVALUE DUP1 ISZERO PUSH2 0xFB JUMPI PUSH0 DUP1 REVERT JUMPDEST POP PUSH2 0x116 PUSH1 0x4 DUP1 CALLDATASIZE SUB DUP2 ADD SWAP1 PUSH2 0x111 SWAP2 SWAP1 PUSH2 0x5CF JUMP JUMPDEST PUSH2 0x42E JUMP JUMPDEST STOP JUMPDEST CALLVALUE DUP1 ISZERO PUSH2 0x123 JUMPI PUSH0 DUP1 REVERT JUMPDEST POP PUSH2 0x12C PUSH2 0x4C6 JUMP JUMPDEST PUSH1 0x40 MLOAD PUSH2 0x139 SWAP2 SWAP1 PUSH2 0x609 JUMP JUMPDEST PUSH1 0x40 MLOAD DUP1 SWAP2 SUB SWAP1 RETURN JUMPDEST PUSH1 0x2 PUSH1 0x20 MSTORE DUP1 PUSH0 MSTORE PUSH1 0x40 PUSH0 KECCAK256 PUSH0 SWAP2 POP SWAP1 POP SLOAD DUP2 JUMP JUMPDEST PUSH1 0x2 PUSH0 CALLER PUSH20 0xFFFFFFFFFFFFFFFFFFFFFFFFFFFFFFFFFFFFFFFF AND PUSH20 0xFFFFFFFFFFFFFFFFFFFFFFFFFFFFFFFFFFFFFFFF AND DUP2 MSTORE PUSH1 0x20 ADD SWAP1 DUP2 MSTORE PUSH1 0x20 ADD PUSH0 KECCAK256 SLOAD DUP2 GT ISZERO PUSH2 0x1D7 JUMPI PUSH1 0x40 MLOAD PUSH32 0x8C379A000000000000000000000000000000000000000000000000000000000 DUP2 MSTORE PUSH1 0x4 ADD PUSH2 0x1CE SWAP1 PUSH2 0x67C JUMP JUMPDEST PUSH1 0x40 MLOAD DUP1 SWAP2 SUB SWAP1 REVERT JUMPDEST DUP1 PUSH1 0x2 PUSH0 CALLER PUSH20 0xFFFFFFFFFFFFFFFFFFFFFFFFFFFFFFFFFFFFFFFF AND PUSH20 0xFFFFFFFFFFFFFFFFFFFFFFFFFFFFFFFFFFFFFFFF AND DUP2 MSTORE PUSH1 0x20 ADD SWAP1 DUP2 MSTORE PUSH1 0x20 ADD PUSH0 KECCAK256 PUSH0 DUP3 DUP3 SLOAD PUSH2 0x223 SWAP2 SWAP1 PUSH2 0x6C7 JUMP JUMPDEST SWAP3 POP POP DUP2 SWAP1 SSTORE POP PUSH0 CALLER PUSH20 0xFFFFFFFFFFFFFFFFFFFFFFFFFFFFFFFFFFFFFFFF AND DUP3 PUSH1 0x40 MLOAD PUSH2 0x24F SWAP1 PUSH2 0x727 JUMP JUMPDEST PUSH0 PUSH1 0x40 MLOAD DUP1 DUP4 SUB DUP2 DUP6 DUP8 GAS CALL SWAP3 POP POP POP RETURNDATASIZE DUP1 PUSH0 DUP2 EQ PUSH2 0x289 JUMPI PUSH1 0x40 MLOAD SWAP2 POP PUSH1 0x1F NOT PUSH1 0x3F RETURNDATASIZE ADD AND DUP3 ADD PUSH1 0x40 MSTORE RETURNDATASIZE DUP3 MSTORE RETURNDATASIZE PUSH0 PUSH1 0x20 DUP5 ADD RETURNDATACOPY PUSH2 0x28E JUMP JUMPDEST PUSH1 0x60 SWAP2 POP JUMPDEST POP POP SWAP1 POP DUP1 PUSH2 0x2D2 JUMPI PUSH1 0x40 MLOAD PUSH32 0x8C379A000000000000000000000000000000000000000000000000000000000 DUP2 MSTORE PUSH1 0x4 ADD PUSH2 0x2C9 SWAP1 PUSH2 0x785 JUMP JUMPDEST PUSH1 0x40 MLOAD DUP1 SWAP2 SUB SWAP1 REVERT JUMPDEST PUSH32 0x88F6DE14CF08CDDFB4408F10758B118C28FC89B6E294E40A62286F8672599DE8 CALLER DUP4 PUSH1 0x40 MLOAD PUSH2 0x303 SWAP3 SWAP2 SWAP1 PUSH2 0x7A3 JUMP JUMPDEST PUSH1 0x40 MLOAD DUP1 SWAP2 SUB SWAP1 LOG1 POP POP JUMP JUMPDEST PUSH0 SLOAD DUP2 JUMP JUMPDEST PUSH0 SLOAD CALLVALUE PUSH1 0x2 PUSH0 CALLER PUSH20 0xFFFFFFFFFFFFFFFFFFFFFFFFFFFFFFFFFFFFFFFF AND PUSH20 0xFFFFFFFFFFFFFFFFFFFFFFFFFFFFFFFFFFFFFFFF AND DUP2 MSTORE PUSH1 0x20 ADD SWAP1 DUP2 MSTORE PUSH1 0x20 ADD PUSH0 KECCAK256 SLOAD PUSH2 0x35F SWAP2 SWAP1 PUSH2 0x7CA JUMP JUMPDEST GT ISZERO PUSH2 0x3A0 JUMPI PUSH1 0x40 MLOAD PUSH32 0x8C379A000000000000000000000000000000000000000000000000000000000 DUP2 MSTORE PUSH1 0x4 ADD PUSH2 0x397 SWAP1 PUSH2 0x847 JUMP JUMPDEST PUSH1 0x40 MLOAD DUP1 SWAP2 SUB SWAP1 REVERT JUMPDEST CALLVALUE PUSH1 0x2 PUSH0 CALLER PUSH20 0xFFFFFFFFFFFFFFFFFFFFFFFFFFFFFFFFFFFFFFFF AND PUSH20 0xFFFFFFFFFFFFFFFFFFFFFFFFFFFFFFFFFFFFFFFF AND DUP2 MSTORE PUSH1 0x20 ADD SWAP1 DUP2 MSTORE PUSH1 0x20 ADD PUSH0 KECCAK256 PUSH0 DUP3 DUP3 SLOAD PUSH2 0x3EC SWAP2 SWAP1 PUSH2 0x7CA JUMP JUMPDEST SWAP3 POP POP DUP2 SWAP1 SSTORE POP PUSH32 0xA58B71AD2E6CE803DD1EEC62E2F3717A164A8912EE33EB51A57A234BA56B5535 CALLER CALLVALUE PUSH1 0x40 MLOAD PUSH2 0x424 SWAP3 SWAP2 SWAP1 PUSH2 0x7A3 JUMP JUMPDEST PUSH1 0x40 MLOAD DUP1 SWAP2 SUB SWAP1 LOG1 JUMP JUMPDEST PUSH1 0x1 PUSH0 SWAP1 SLOAD SWAP1 PUSH2 0x100 EXP SWAP1 DIV PUSH20 0xFFFFFFFFFFFFFFFFFFFFFFFFFFFFFFFFFFFFFFFF AND PUSH20 0xFFFFFFFFFFFFFFFFFFFFFFFFFFFFFFFFFFFFFFFF AND CALLER PUSH20 0xFFFFFFFFFFFFFFFFFFFFFFFFFFFFFFFFFFFFFFFF AND EQ PUSH2 0x4BD JUMPI PUSH1 0x40 MLOAD PUSH32 0x8C379A000000000000000000000000000000000000000000000000000000000 DUP2 MSTORE PUSH1 0x4 ADD PUSH2 0x4B4 SWAP1 PUSH2 0x8AF JUMP JUMPDEST PUSH1 0x40 MLOAD DUP1 SWAP2 SUB SWAP1 REVERT JUMPDEST DUP1 PUSH0 DUP2 SWAP1 SSTORE POP POP JUMP JUMPDEST PUSH1 0x1 PUSH0 SWAP1 SLOAD SWAP1 PUSH2 0x100 EXP SWAP1 DIV PUSH20 0xFFFFFFFFFFFFFFFFFFFFFFFFFFFFFFFFFFFFFFFF AND DUP2 JUMP JUMPDEST PUSH0 DUP1 REVERT JUMPDEST PUSH0 PUSH20 0xFFFFFFFFFFFFFFFFFFFFFFFFFFFFFFFFFFFFFFFF DUP3 AND SWAP1 POP SWAP2 SWAP1 POP JUMP JUMPDEST PUSH0 PUSH2 0x518 DUP3 PUSH2 0x4EF JUMP JUMPDEST SWAP1 POP SWAP2 SWAP1 POP JUMP JUMPDEST PUSH2 0x528 DUP2 PUSH2 0x50E JUMP JUMPDEST DUP2 EQ PUSH2 0x532 JUMPI PUSH0 DUP1 REVERT JUMPDEST POP JUMP JUMPDEST PUSH0 DUP2 CALLDATALOAD SWAP1 POP PUSH2 0x543 DUP2 PUSH2 0x51F JUMP JUMPDEST SWAP3 SWAP2 POP POP JUMP JUMPDEST PUSH0 PUSH1 0x20 DUP3 DUP5 SUB SLT ISZERO PUSH2 0x55E JUMPI PUSH2 0x55D PUSH2 0x4EB JUMP JUMPDEST JUMPDEST PUSH0 PUSH2 0x56B DUP5 DUP3 DUP6 ADD PUSH2 0x535 JUMP JUMPDEST SWAP2 POP POP SWAP3 SWAP2 POP POP JUMP JUMPDEST PUSH0 DUP2 SWAP1 POP SWAP2 SWAP1 POP JUMP JUMPDEST PUSH2 0x586 DUP2 PUSH2 0x574 JUMP JUMPDEST DUP3 MSTORE POP POP JUMP JUMPDEST PUSH0 PUSH1 0x20 DUP3 ADD SWAP1 POP PUSH2 0x59F PUSH0 DUP4 ADD DUP5 PUSH2 0x57D JUMP JUMPDEST SWAP3 SWAP2 POP POP JUMP JUMPDEST PUSH2 0x5AE DUP2 PUSH2 0x574 JUMP JUMPDEST DUP2 EQ PUSH2 0x5B8 JUMPI PUSH0 DUP1 REVERT JUMPDEST POP JUMP JUMPDEST PUSH0 DUP2 CALLDATALOAD SWAP1 POP PUSH2 0x5C9 DUP2 PUSH2 0x5A5 JUMP JUMPDEST SWAP3 SWAP2 POP POP JUMP JUMPDEST PUSH0 PUSH1 0x20 DUP3 DUP5 SUB SLT ISZERO PUSH2 0x5E4 JUMPI PUSH2 0x5E3 PUSH2 0x4EB JUMP JUMPDEST JUMPDEST PUSH0 PUSH2 0x5F1 DUP5 DUP3 DUP6 ADD PUSH2 0x5BB JUMP JUMPDEST SWAP2 POP POP SWAP3 SWAP2 POP POP JUMP JUMPDEST PUSH2 0x603 DUP2 PUSH2 0x50E JUMP JUMPDEST DUP3 MSTORE POP POP JUMP JUMPDEST PUSH0 PUSH1 0x20 DUP3 ADD SWAP1 POP PUSH2 0x61C PUSH0 DUP4 ADD DUP5 PUSH2 0x5FA JUMP JUMPDEST SWAP3 SWAP2 POP POP JUMP JUMPDEST PUSH0 DUP3 DUP3 MSTORE PUSH1 0x20 DUP3 ADD SWAP1 POP SWAP3 SWAP2 POP POP JUMP JUMPDEST PUSH32 0x4E6F7420656E6F75676820657468657200000000000000000000000000000000 PUSH0 DUP3 ADD MSTORE POP JUMP JUMPDEST PUSH0 PUSH2 0x666 PUSH1 0x10 DUP4 PUSH2 0x622 JUMP JUMPDEST SWAP2 POP PUSH2 0x671 DUP3 PUSH2 0x632 JUMP JUMPDEST PUSH1 0x20 DUP3 ADD SWAP1 POP SWAP2 SWAP1 POP JUMP JUMPDEST PUSH0 PUSH1 0x20 DUP3 ADD SWAP1 POP DUP2 DUP2 SUB PUSH0 DUP4 ADD MSTORE PUSH2 0x693 DUP2 PUSH2 0x65A JUMP JUMPDEST SWAP1 POP SWAP2 SWAP1 POP JUMP JUMPDEST PUSH32 0x4E487B7100000000000000000000000000000000000000000000000000000000 PUSH0 MSTORE PUSH1 0x11 PUSH1 0x4 MSTORE PUSH1 0x24 PUSH0 REVERT JUMPDEST PUSH0 PUSH2 0x6D1 DUP3 PUSH2 0x574 JUMP JUMPDEST SWAP2 POP PUSH2 0x6DC DUP4 PUSH2 0x574 JUMP JUMPDEST SWAP3 POP DUP3 DUP3 SUB SWAP1 POP DUP2 DUP2 GT ISZERO PUSH2 0x6F4 JUMPI PUSH2 0x6F3 PUSH2 0x69A JUMP JUMPDEST JUMPDEST SWAP3 SWAP2 POP POP JUMP JUMPDEST PUSH0 DUP2 SWAP1 POP SWAP3 SWAP2 POP POP JUMP JUMPDEST POP JUMP JUMPDEST PUSH0 PUSH2 0x712 PUSH0 DUP4 PUSH2 0x6FA JUMP JUMPDEST SWAP2 POP PUSH2 0x71D DUP3 PUSH2 0x704 JUMP JUMPDEST PUSH0 DUP3 ADD SWAP1 POP SWAP2 SWAP1 POP JUMP JUMPDEST PUSH0 PUSH2 0x731 DUP3 PUSH2 0x707 JUMP JUMPDEST SWAP2 POP DUP2 SWAP1 POP SWAP2 SWAP1 POP JUMP JUMPDEST PUSH32 0x5472616E73666572206661696C65640000000000000000000000000000000000 PUSH0 DUP3 ADD MSTORE POP JUMP JUMPDEST PUSH0 PUSH2 0x76F PUSH1 0xF DUP4 PUSH2 0x622 JUMP JUMPDEST SWAP2 POP PUSH2 0x77A DUP3 PUSH2 0x73B JUMP JUMPDEST PUSH1 0x20 DUP3 ADD SWAP1 POP SWAP2 SWAP1 POP JUMP JUMPDEST PUSH0 PUSH1 0x20 DUP3 ADD SWAP1 POP DUP2 DUP2 SUB PUSH0 DUP4 ADD MSTORE PUSH2 0x79C DUP2 PUSH2 0x763 JUMP JUMPDEST SWAP1 POP SWAP2 SWAP1 POP JUMP JUMPDEST PUSH0 PUSH1 0x40 DUP3 ADD SWAP1 POP PUSH2 0x7B6 PUSH0 DUP4 ADD DUP6 PUSH2 0x5FA JUMP JUMPDEST PUSH2 0x7C3 PUSH1 0x20 DUP4 ADD DUP5 PUSH2 0x57D JUMP JUMPDEST SWAP4 SWAP3 POP POP POP JUMP JUMPDEST PUSH0 PUSH2 0x7D4 DUP3 PUSH2 0x574 JUMP JUMPDEST SWAP2 POP PUSH2 0x7DF DUP4 PUSH2 0x574 JUMP JUMPDEST SWAP3 POP DUP3 DUP3 ADD SWAP1 POP DUP1 DUP3 GT ISZERO PUSH2 0x7F7 JUMPI PUSH2 0x7F6 PUSH2 0x69A JUMP JUMPDEST JUMPDEST SWAP3 SWAP2 POP POP JUMP JUMPDEST PUSH32 0x4D617842616C616E636520726561636865640000000000000000000000000000 PUSH0 DUP3 ADD MSTORE POP JUMP JUMPDEST PUSH0 PUSH2 0x831 PUSH1 0x12 DUP4 PUSH2 0x622 JUMP JUMPDEST SWAP2 POP PUSH2 0x83C DUP3 PUSH2 0x7FD JUMP JUMPDEST PUSH1 0x20 DUP3 ADD SWAP1 POP SWAP2 SWAP1 POP JUMP JUMPDEST PUSH0 PUSH1 0x20 DUP3 ADD SWAP1 POP DUP2 DUP2 SUB PUSH0 DUP4 ADD MSTORE PUSH2 0x85E DUP2 PUSH2 0x825 JUMP JUMPDEST SWAP1 POP SWAP2 SWAP1 POP JUMP JUMPDEST PUSH32 0x4E6F7420616C6C6F776564000000000000000000000000000000000000000000 PUSH0 DUP3 ADD MSTORE POP JUMP JUMPDEST PUSH0 PUSH2 0x899 PUSH1 0xB DUP4 PUSH2 0x622 JUMP JUMPDEST SWAP2 POP PUSH2 0x8A4 DUP3 PUSH2 0x865 JUMP JUMPDEST PUSH1 0x20 DUP3 ADD SWAP1 POP SWAP2 SWAP1 POP JUMP JUMPDEST PUSH0 PUSH1 0x20 DUP3 ADD SWAP1 POP DUP2 DUP2 SUB PUSH0 DUP4 ADD MSTORE PUSH2 0x8C6 DUP2 PUSH2 0x88D JUMP JUMPDEST SWAP1 POP SWAP2 SWAP1 POP JUMP INVALID LOG2 PUSH5 0x6970667358 0x22 SLT KECCAK256 0xAB 0xE0 0xAD 0xC4 0x2A PUSH32 0xD246CCD5F85325862F5B1C79886FCD2230517017E47507AD819164736F6C6343 STOP ADDMOD XOR STOP CALLER "
				},
				"gasEstimates": {
					"creation": {
						"codeDepositCost": "461400",
						"executionCost": "infinite",
						"totalCost": "infinite"
					},
					"external": {
						"admin()": "2596",
						"depositEther()": "infinite",
						"maxBalance()": "2446",
						"modifyMaxBalance(uint256)": "24749",
						"userBalance(address)": "2780",
						"withdrawEther(uint256)": "infinite"
					}
				},
				"methodIdentifiers": {
					"admin()": "f851a440",
					"depositEther()": "98ea5fca",
					"maxBalance()": "73ad468a",
					"modifyMaxBalance(uint256)": "a2ccd6ba",
					"userBalance(address)": "0103c92b",
					"withdrawEther(uint256)": "3bed33ce"
				}
			},
			"storageLayout": {
				"storage": [
					{
						"astId": 3,
						"contract": "contracts/CryptoBankJose.sol:CryptoBankJose",
						"label": "maxBalance",
						"offset": 0,
						"slot": "0",
						"type": "t_uint256"
					},
					{
						"astId": 5,
						"contract": "contracts/CryptoBankJose.sol:CryptoBankJose",
						"label": "admin",
						"offset": 0,
						"slot": "1",
						"type": "t_address"
					},
					{
						"astId": 9,
						"contract": "contracts/CryptoBankJose.sol:CryptoBankJose",
						"label": "userBalance",
						"offset": 0,
						"slot": "2",
						"type": "t_mapping(t_address,t_uint256)"
					}
				],
				"types": {
					"t_address": {
						"encoding": "inplace",
						"label": "address",
						"numberOfBytes": "20"
					},
					"t_mapping(t_address,t_uint256)": {
						"encoding": "mapping",
						"key": "t_address",
						"label": "mapping(address => uint256)",
						"numberOfBytes": "32",
						"value": "t_uint256"
					},
					"t_uint256": {
						"encoding": "inplace",
						"label": "uint256",
						"numberOfBytes": "32"
					}
				}
			},
			"userdoc": {
				"kind": "user",
				"methods": {},
				"version": 1
			}
		}
	}
}