{
	"contracts/CryptoBank.sol": {
		"CyptoBank": {
			"abi": [
				{
					"inputs": [
						{
							"internalType": "uint256",
							"name": "_maxBalance",
							"type": "uint256"
						},
						{
							"internalType": "address",
							"name": "_admin",
							"type": "address"
						}
					],
					"stateMutability": "nonpayable",
					"type": "constructor"
				},
				{
					"anonymous": false,
					"inputs": [
						{
							"indexed": false,
							"internalType": "address",
							"name": "user",
							"type": "address"
						},
						{
							"indexed": false,
							"internalType": "uint256",
							"name": "etherAmount",
							"type": "uint256"
						}
					],
					"name": "EtherDepositAmountEvent",
					"type": "event"
				},
				{
					"anonymous": false,
					"inputs": [
						{
							"indexed": false,
							"internalType": "address",
							"name": "user",
							"type": "address"
						},
						{
							"indexed": false,
							"internalType": "uint256",
							"name": "etherAmount",
							"type": "uint256"
						}
					],
					"name": "EtherWithdrawAmountEvent",
					"type": "event"
				},
				{
					"inputs": [],
					"name": "depositEther",
					"outputs": [],
					"stateMutability": "payable",
					"type": "function"
				},
				{
					"inputs": [],
					"name": "getBankBalance",
					"outputs": [
						{
							"internalType": "uint256",
							"name": "",
							"type": "uint256"
						}
					],
					"stateMutability": "view",
					"type": "function"
				},
				{
					"inputs": [],
					"name": "maxBalance",
					"outputs": [
						{
							"internalType": "uint256",
							"name": "",
							"type": "uint256"
						}
					],
					"stateMutability": "view",
					"type": "function"
				},
				{
					"inputs": [
						{
							"internalType": "uint256",
							"name": "_newMaxBalance",
							"type": "uint256"
						}
					],
					"name": "modifyMoxBalance",
					"outputs": [],
					"stateMutability": "nonpayable",
					"type": "function"
				},
				{
					"inputs": [
						{
							"internalType": "address",
							"name": "",
							"type": "address"
						}
					],
					"name": "userBalance",
					"outputs": [
						{
							"internalType": "uint256",
							"name": "",
							"type": "uint256"
						}
					],
					"stateMutability": "view",
					"type": "function"
				},
				{
					"inputs": [
						{
							"internalType": "uint256",
							"name": "_amount",
							"type": "uint256"
						}
					],
					"name": "withdrawEther",
					"outputs": [],
					"stateMutability": "nonpayable",
					"type": "function"
				}
			],
			"devdoc": {
				"kind": "dev",
				"methods": {
					"depositEther()": {
						"details": "Enforces maxBalance per user and emits deposit event"
					},
					"getBankBalance()": {
						"details": "Only admin can call this function"
					},
					"modifyMoxBalance(uint256)": {
						"params": {
							"_newMaxBalance": "The new max balance limit"
						}
					},
					"withdrawEther(uint256)": {
						"params": {
							"_amount": "The amount of ether to withdraw"
						}
					}
				},
				"version": 1
			},
			"evm": {
				"assembly": "    /* \"contracts/CryptoBank.sol\":393:3730  contract CyptoBank {... */\n  mstore(0x40, 0x80)\n    /* \"contracts/CryptoBank.sol\":1263:1377  constructor(uint256 _maxBalance, address _admin) {... */\n  callvalue\n  dup1\n  iszero\n  tag_1\n  jumpi\n  0x00\n  dup1\n  revert\ntag_1:\n  pop\n  mload(0x40)\n  sub(codesize, bytecodeSize)\n  dup1\n  bytecodeSize\n  dup4\n  codecopy\n  dup2\n  dup2\n  add\n  0x40\n  mstore\n  dup2\n  add\n  swap1\n  tag_2\n  swap2\n  swap1\n  tag_3\n  jump\t// in\ntag_2:\n    /* \"contracts/CryptoBank.sol\":1335:1346  _maxBalance */\n  dup2\n    /* \"contracts/CryptoBank.sol\":1322:1332  maxBalance */\n  0x00\n    /* \"contracts/CryptoBank.sol\":1322:1346  maxBalance = _maxBalance */\n  dup2\n  swap1\n  sstore\n  pop\n    /* \"contracts/CryptoBank.sol\":1364:1370  _admin */\n  dup1\n    /* \"contracts/CryptoBank.sol\":1356:1361  admin */\n  0x01\n  0x00\n    /* \"contracts/CryptoBank.sol\":1356:1370  admin = _admin */\n  0x0100\n  exp\n  dup2\n  sload\n  dup2\n  0xffffffffffffffffffffffffffffffffffffffff\n  mul\n  not\n  and\n  swap1\n  dup4\n  0xffffffffffffffffffffffffffffffffffffffff\n  and\n  mul\n  or\n  swap1\n  sstore\n  pop\n    /* \"contracts/CryptoBank.sol\":1263:1377  constructor(uint256 _maxBalance, address _admin) {... */\n  pop\n  pop\n    /* \"contracts/CryptoBank.sol\":393:3730  contract CyptoBank {... */\n  jump(tag_6)\n    /* \"#utility.yul\":88:205   */\ntag_8:\n    /* \"#utility.yul\":197:198   */\n  0x00\n    /* \"#utility.yul\":194:195   */\n  dup1\n    /* \"#utility.yul\":187:199   */\n  revert\n    /* \"#utility.yul\":334:411   */\ntag_10:\n    /* \"#utility.yul\":371:378   */\n  0x00\n    /* \"#utility.yul\":400:405   */\n  dup2\n    /* \"#utility.yul\":389:405   */\n  swap1\n  pop\n    /* \"#utility.yul\":334:411   */\n  swap2\n  swap1\n  pop\n  jump\t// out\n    /* \"#utility.yul\":417:539   */\ntag_11:\n    /* \"#utility.yul\":490:514   */\n  tag_23\n    /* \"#utility.yul\":508:513   */\n  dup2\n    /* \"#utility.yul\":490:514   */\n  tag_10\n  jump\t// in\ntag_23:\n    /* \"#utility.yul\":483:488   */\n  dup2\n    /* \"#utility.yul\":480:515   */\n  eq\n    /* \"#utility.yul\":470:533   */\n  tag_24\n  jumpi\n    /* \"#utility.yul\":529:530   */\n  0x00\n    /* \"#utility.yul\":526:527   */\n  dup1\n    /* \"#utility.yul\":519:531   */\n  revert\n    /* \"#utility.yul\":470:533   */\ntag_24:\n    /* \"#utility.yul\":417:539   */\n  pop\n  jump\t// out\n    /* \"#utility.yul\":545:688   */\ntag_12:\n    /* \"#utility.yul\":602:607   */\n  0x00\n    /* \"#utility.yul\":633:639   */\n  dup2\n    /* \"#utility.yul\":627:640   */\n  mload\n    /* \"#utility.yul\":618:640   */\n  swap1\n  pop\n    /* \"#utility.yul\":649:682   */\n  tag_26\n    /* \"#utility.yul\":676:681   */\n  dup2\n    /* \"#utility.yul\":649:682   */\n  tag_11\n  jump\t// in\ntag_26:\n    /* \"#utility.yul\":545:688   */\n  swap3\n  swap2\n  pop\n  pop\n  jump\t// out\n    /* \"#utility.yul\":694:820   */\ntag_13:\n    /* \"#utility.yul\":731:738   */\n  0x00\n    /* \"#utility.yul\":771:813   */\n  0xffffffffffffffffffffffffffffffffffffffff\n    /* \"#utility.yul\":764:769   */\n  dup3\n    /* \"#utility.yul\":760:814   */\n  and\n    /* \"#utility.yul\":749:814   */\n  swap1\n  pop\n    /* \"#utility.yul\":694:820   */\n  swap2\n  swap1\n  pop\n  jump\t// out\n    /* \"#utility.yul\":826:922   */\ntag_14:\n    /* \"#utility.yul\":863:870   */\n  0x00\n    /* \"#utility.yul\":892:916   */\n  tag_29\n    /* \"#utility.yul\":910:915   */\n  dup3\n    /* \"#utility.yul\":892:916   */\n  tag_13\n  jump\t// in\ntag_29:\n    /* \"#utility.yul\":881:916   */\n  swap1\n  pop\n    /* \"#utility.yul\":826:922   */\n  swap2\n  swap1\n  pop\n  jump\t// out\n    /* \"#utility.yul\":928:1050   */\ntag_15:\n    /* \"#utility.yul\":1001:1025   */\n  tag_31\n    /* \"#utility.yul\":1019:1024   */\n  dup2\n    /* \"#utility.yul\":1001:1025   */\n  tag_14\n  jump\t// in\ntag_31:\n    /* \"#utility.yul\":994:999   */\n  dup2\n    /* \"#utility.yul\":991:1026   */\n  eq\n    /* \"#utility.yul\":981:1044   */\n  tag_32\n  jumpi\n    /* \"#utility.yul\":1040:1041   */\n  0x00\n    /* \"#utility.yul\":1037:1038   */\n  dup1\n    /* \"#utility.yul\":1030:1042   */\n  revert\n    /* \"#utility.yul\":981:1044   */\ntag_32:\n    /* \"#utility.yul\":928:1050   */\n  pop\n  jump\t// out\n    /* \"#utility.yul\":1056:1199   */\ntag_16:\n    /* \"#utility.yul\":1113:1118   */\n  0x00\n    /* \"#utility.yul\":1144:1150   */\n  dup2\n    /* \"#utility.yul\":1138:1151   */\n  mload\n    /* \"#utility.yul\":1129:1151   */\n  swap1\n  pop\n    /* \"#utility.yul\":1160:1193   */\n  tag_34\n    /* \"#utility.yul\":1187:1192   */\n  dup2\n    /* \"#utility.yul\":1160:1193   */\n  tag_15\n  jump\t// in\ntag_34:\n    /* \"#utility.yul\":1056:1199   */\n  swap3\n  swap2\n  pop\n  pop\n  jump\t// out\n    /* \"#utility.yul\":1205:1712   */\ntag_3:\n    /* \"#utility.yul\":1284:1290   */\n  0x00\n    /* \"#utility.yul\":1292:1298   */\n  dup1\n    /* \"#utility.yul\":1341:1343   */\n  0x40\n    /* \"#utility.yul\":1329:1338   */\n  dup4\n    /* \"#utility.yul\":1320:1327   */\n  dup6\n    /* \"#utility.yul\":1316:1339   */\n  sub\n    /* \"#utility.yul\":1312:1344   */\n  slt\n    /* \"#utility.yul\":1309:1428   */\n  iszero\n  tag_36\n  jumpi\n    /* \"#utility.yul\":1347:1426   */\n  tag_37\n  tag_8\n  jump\t// in\ntag_37:\n    /* \"#utility.yul\":1309:1428   */\ntag_36:\n    /* \"#utility.yul\":1467:1468   */\n  0x00\n    /* \"#utility.yul\":1492:1556   */\n  tag_38\n    /* \"#utility.yul\":1548:1555   */\n  dup6\n    /* \"#utility.yul\":1539:1545   */\n  dup3\n    /* \"#utility.yul\":1528:1537   */\n  dup7\n    /* \"#utility.yul\":1524:1546   */\n  add\n    /* \"#utility.yul\":1492:1556   */\n  tag_12\n  jump\t// in\ntag_38:\n    /* \"#utility.yul\":1482:1556   */\n  swap3\n  pop\n    /* \"#utility.yul\":1438:1566   */\n  pop\n    /* \"#utility.yul\":1605:1607   */\n  0x20\n    /* \"#utility.yul\":1631:1695   */\n  tag_39\n    /* \"#utility.yul\":1687:1694   */\n  dup6\n    /* \"#utility.yul\":1678:1684   */\n  dup3\n    /* \"#utility.yul\":1667:1676   */\n  dup7\n    /* \"#utility.yul\":1663:1685   */\n  add\n    /* \"#utility.yul\":1631:1695   */\n  tag_16\n  jump\t// in\ntag_39:\n    /* \"#utility.yul\":1621:1695   */\n  swap2\n  pop\n    /* \"#utility.yul\":1576:1705   */\n  pop\n    /* \"#utility.yul\":1205:1712   */\n  swap3\n  pop\n  swap3\n  swap1\n  pop\n  jump\t// out\n    /* \"contracts/CryptoBank.sol\":393:3730  contract CyptoBank {... */\ntag_6:\n  dataSize(sub_0)\n  dup1\n  dataOffset(sub_0)\n  0x00\n  codecopy\n  0x00\n  return\nstop\n\nsub_0: assembly {\n        /* \"contracts/CryptoBank.sol\":393:3730  contract CyptoBank {... */\n      mstore(0x40, 0x80)\n      jumpi(tag_1, lt(calldatasize, 0x04))\n      shr(0xe0, calldataload(0x00))\n      dup1\n      0x0103c92b\n      eq\n      tag_2\n      jumpi\n      dup1\n      0x3bed33ce\n      eq\n      tag_3\n      jumpi\n      dup1\n      0x4310b578\n      eq\n      tag_4\n      jumpi\n      dup1\n      0x73ad468a\n      eq\n      tag_5\n      jumpi\n      dup1\n      0x7b83b50b\n      eq\n      tag_6\n      jumpi\n      dup1\n      0x98ea5fca\n      eq\n      tag_7\n      jumpi\n    tag_1:\n      0x00\n      dup1\n      revert\n        /* \"contracts/CryptoBank.sol\":648:694  mapping(address => uint256) public userBalance */\n    tag_2:\n      callvalue\n      dup1\n      iszero\n      tag_8\n      jumpi\n      0x00\n      dup1\n      revert\n    tag_8:\n      pop\n      tag_9\n      0x04\n      dup1\n      calldatasize\n      sub\n      dup2\n      add\n      swap1\n      tag_10\n      swap2\n      swap1\n      tag_11\n      jump\t// in\n    tag_10:\n      tag_12\n      jump\t// in\n    tag_9:\n      mload(0x40)\n      tag_13\n      swap2\n      swap1\n      tag_14\n      jump\t// in\n    tag_13:\n      mload(0x40)\n      dup1\n      swap2\n      sub\n      swap1\n      return\n        /* \"contracts/CryptoBank.sol\":2908:3466  function withdrawEther(uint _amount) external {... */\n    tag_3:\n      callvalue\n      dup1\n      iszero\n      tag_15\n      jumpi\n      0x00\n      dup1\n      revert\n    tag_15:\n      pop\n      tag_16\n      0x04\n      dup1\n      calldatasize\n      sub\n      dup2\n      add\n      swap1\n      tag_17\n      swap2\n      swap1\n      tag_18\n      jump\t// in\n    tag_17:\n      tag_19\n      jump\t// in\n    tag_16:\n      stop\n        /* \"contracts/CryptoBank.sol\":3618:3728  function modifyMoxBalance(uint _newMaxBalance) external adminOnly {... */\n    tag_4:\n      callvalue\n      dup1\n      iszero\n      tag_20\n      jumpi\n      0x00\n      dup1\n      revert\n    tag_20:\n      pop\n      tag_21\n      0x04\n      dup1\n      calldatasize\n      sub\n      dup2\n      add\n      swap1\n      tag_22\n      swap2\n      swap1\n      tag_18\n      jump\t// in\n    tag_22:\n      tag_23\n      jump\t// in\n    tag_21:\n      stop\n        /* \"contracts/CryptoBank.sol\":449:474  uint256 public maxBalance */\n    tag_5:\n      callvalue\n      dup1\n      iszero\n      tag_24\n      jumpi\n      0x00\n      dup1\n      revert\n    tag_24:\n      pop\n      tag_25\n      tag_26\n      jump\t// in\n    tag_25:\n      mload(0x40)\n      tag_27\n      swap2\n      swap1\n      tag_14\n      jump\t// in\n    tag_27:\n      mload(0x40)\n      dup1\n      swap2\n      sub\n      swap1\n      return\n        /* \"contracts/CryptoBank.sol\":1510:1792  function getBankBalance() public view adminOnly returns (uint) {... */\n    tag_6:\n      callvalue\n      dup1\n      iszero\n      tag_28\n      jumpi\n      0x00\n      dup1\n      revert\n    tag_28:\n      pop\n      tag_29\n      tag_30\n      jump\t// in\n    tag_29:\n      mload(0x40)\n      tag_31\n      swap2\n      swap1\n      tag_14\n      jump\t// in\n    tag_31:\n      mload(0x40)\n      dup1\n      swap2\n      sub\n      swap1\n      return\n        /* \"contracts/CryptoBank.sol\":1943:2763  function depositEther() external payable {... */\n    tag_7:\n      tag_32\n      tag_33\n      jump\t// in\n    tag_32:\n      stop\n        /* \"contracts/CryptoBank.sol\":648:694  mapping(address => uint256) public userBalance */\n    tag_12:\n      mstore(0x20, 0x03)\n      dup1\n      0x00\n      mstore\n      keccak256(0x00, 0x40)\n      0x00\n      swap2\n      pop\n      swap1\n      pop\n      sload\n      dup2\n      jump\t// out\n        /* \"contracts/CryptoBank.sol\":2908:3466  function withdrawEther(uint _amount) external {... */\n    tag_19:\n        /* \"contracts/CryptoBank.sol\":3053:3060  _amount */\n      dup1\n        /* \"contracts/CryptoBank.sol\":3026:3037  userBalance */\n      0x03\n        /* \"contracts/CryptoBank.sol\":3026:3049  userBalance[msg.sender] */\n      0x00\n        /* \"contracts/CryptoBank.sol\":3038:3048  msg.sender */\n      caller\n        /* \"contracts/CryptoBank.sol\":3026:3049  userBalance[msg.sender] */\n      0xffffffffffffffffffffffffffffffffffffffff\n      and\n      0xffffffffffffffffffffffffffffffffffffffff\n      and\n      dup2\n      mstore\n      0x20\n      add\n      swap1\n      dup2\n      mstore\n      0x20\n      add\n      0x00\n      keccak256\n      sload\n        /* \"contracts/CryptoBank.sol\":3026:3060  userBalance[msg.sender] >= _amount */\n      lt\n      iszero\n        /* \"contracts/CryptoBank.sol\":3005:3123  require(... */\n      tag_35\n      jumpi\n      mload(0x40)\n      0x08c379a000000000000000000000000000000000000000000000000000000000\n      dup2\n      mstore\n      0x04\n      add\n      tag_36\n      swap1\n      tag_37\n      jump\t// in\n    tag_36:\n      mload(0x40)\n      dup1\n      swap2\n      sub\n      swap1\n      revert\n    tag_35:\n        /* \"contracts/CryptoBank.sol\":3216:3223  _amount */\n      dup1\n        /* \"contracts/CryptoBank.sol\":3189:3200  userBalance */\n      0x03\n        /* \"contracts/CryptoBank.sol\":3189:3212  userBalance[msg.sender] */\n      0x00\n        /* \"contracts/CryptoBank.sol\":3201:3211  msg.sender */\n      caller\n        /* \"contracts/CryptoBank.sol\":3189:3212  userBalance[msg.sender] */\n      0xffffffffffffffffffffffffffffffffffffffff\n      and\n      0xffffffffffffffffffffffffffffffffffffffff\n      and\n      dup2\n      mstore\n      0x20\n      add\n      swap1\n      dup2\n      mstore\n      0x20\n      add\n      0x00\n      keccak256\n      0x00\n        /* \"contracts/CryptoBank.sol\":3189:3223  userBalance[msg.sender] -= _amount */\n      dup3\n      dup3\n      sload\n      tag_38\n      swap2\n      swap1\n      tag_39\n      jump\t// in\n    tag_38:\n      swap3\n      pop\n      pop\n      dup2\n      swap1\n      sstore\n      pop\n        /* \"contracts/CryptoBank.sol\":3269:3281  bool success */\n      0x00\n        /* \"contracts/CryptoBank.sol\":3287:3297  msg.sender */\n      caller\n        /* \"contracts/CryptoBank.sol\":3287:3302  msg.sender.call */\n      0xffffffffffffffffffffffffffffffffffffffff\n      and\n        /* \"contracts/CryptoBank.sol\":3310:3317  _amount */\n      dup3\n        /* \"contracts/CryptoBank.sol\":3287:3322  msg.sender.call{value: _amount}(\"\") */\n      mload(0x40)\n      tag_40\n      swap1\n      tag_41\n      jump\t// in\n    tag_40:\n      0x00\n      mload(0x40)\n      dup1\n      dup4\n      sub\n      dup2\n      dup6\n      dup8\n      gas\n      call\n      swap3\n      pop\n      pop\n      pop\n      returndatasize\n      dup1\n      0x00\n      dup2\n      eq\n      tag_44\n      jumpi\n      mload(0x40)\n      swap2\n      pop\n      and(add(returndatasize, 0x3f), not(0x1f))\n      dup3\n      add\n      0x40\n      mstore\n      returndatasize\n      dup3\n      mstore\n      returndatasize\n      0x00\n      0x20\n      dup5\n      add\n      returndatacopy\n      jump(tag_43)\n    tag_44:\n      0x60\n      swap2\n      pop\n    tag_43:\n      pop\n        /* \"contracts/CryptoBank.sol\":3268:3322  (bool success, ) = msg.sender.call{value: _amount}(\"\") */\n      pop\n      swap1\n      pop\n        /* \"contracts/CryptoBank.sol\":3340:3347  success */\n      dup1\n        /* \"contracts/CryptoBank.sol\":3332:3367  require(success, \"Transfer failed\") */\n      tag_45\n      jumpi\n      mload(0x40)\n      0x08c379a000000000000000000000000000000000000000000000000000000000\n      dup2\n      mstore\n      0x04\n      add\n      tag_46\n      swap1\n      tag_47\n      jump\t// in\n    tag_46:\n      mload(0x40)\n      dup1\n      swap2\n      sub\n      swap1\n      revert\n    tag_45:\n        /* \"contracts/CryptoBank.sol\":3414:3459  EtherWithdrawAmountEvent(msg.sender, _amount) */\n      0xb9172670964941c36cd23feeac2ba9283c2d0c7ec8c5eb407d079234ae17a444\n        /* \"contracts/CryptoBank.sol\":3439:3449  msg.sender */\n      caller\n        /* \"contracts/CryptoBank.sol\":3451:3458  _amount */\n      dup4\n        /* \"contracts/CryptoBank.sol\":3414:3459  EtherWithdrawAmountEvent(msg.sender, _amount) */\n      mload(0x40)\n      tag_48\n      swap3\n      swap2\n      swap1\n      tag_49\n      jump\t// in\n    tag_48:\n      mload(0x40)\n      dup1\n      swap2\n      sub\n      swap1\n      log1\n        /* \"contracts/CryptoBank.sol\":2954:3466  {... */\n      pop\n        /* \"contracts/CryptoBank.sol\":2908:3466  function withdrawEther(uint _amount) external {... */\n      pop\n      jump\t// out\n        /* \"contracts/CryptoBank.sol\":3618:3728  function modifyMoxBalance(uint _newMaxBalance) external adminOnly {... */\n    tag_23:\n        /* \"contracts/CryptoBank.sol\":1128:1133  admin */\n      0x01\n      0x00\n      swap1\n      sload\n      swap1\n      0x0100\n      exp\n      swap1\n      div\n      0xffffffffffffffffffffffffffffffffffffffff\n      and\n        /* \"contracts/CryptoBank.sol\":1114:1133  msg.sender == admin */\n      0xffffffffffffffffffffffffffffffffffffffff\n      and\n        /* \"contracts/CryptoBank.sol\":1114:1124  msg.sender */\n      caller\n        /* \"contracts/CryptoBank.sol\":1114:1133  msg.sender == admin */\n      0xffffffffffffffffffffffffffffffffffffffff\n      and\n      eq\n        /* \"contracts/CryptoBank.sol\":1106:1155  require(msg.sender == admin, \"You are not admin\") */\n      tag_51\n      jumpi\n      mload(0x40)\n      0x08c379a000000000000000000000000000000000000000000000000000000000\n      dup2\n      mstore\n      0x04\n      add\n      tag_52\n      swap1\n      tag_53\n      jump\t// in\n    tag_52:\n      mload(0x40)\n      dup1\n      swap2\n      sub\n      swap1\n      revert\n    tag_51:\n        /* \"contracts/CryptoBank.sol\":3707:3721  _newMaxBalance */\n      dup1\n        /* \"contracts/CryptoBank.sol\":3694:3704  maxBalance */\n      0x00\n        /* \"contracts/CryptoBank.sol\":3694:3721  maxBalance = _newMaxBalance */\n      dup2\n      swap1\n      sstore\n      pop\n        /* \"contracts/CryptoBank.sol\":3618:3728  function modifyMoxBalance(uint _newMaxBalance) external adminOnly {... */\n      pop\n      jump\t// out\n        /* \"contracts/CryptoBank.sol\":449:474  uint256 public maxBalance */\n    tag_26:\n      sload(0x00)\n      dup2\n      jump\t// out\n        /* \"contracts/CryptoBank.sol\":1510:1792  function getBankBalance() public view adminOnly returns (uint) {... */\n    tag_30:\n        /* \"contracts/CryptoBank.sol\":1567:1571  uint */\n      0x00\n        /* \"contracts/CryptoBank.sol\":1128:1133  admin */\n      0x01\n      0x00\n      swap1\n      sload\n      swap1\n      0x0100\n      exp\n      swap1\n      div\n      0xffffffffffffffffffffffffffffffffffffffff\n      and\n        /* \"contracts/CryptoBank.sol\":1114:1133  msg.sender == admin */\n      0xffffffffffffffffffffffffffffffffffffffff\n      and\n        /* \"contracts/CryptoBank.sol\":1114:1124  msg.sender */\n      caller\n        /* \"contracts/CryptoBank.sol\":1114:1133  msg.sender == admin */\n      0xffffffffffffffffffffffffffffffffffffffff\n      and\n      eq\n        /* \"contracts/CryptoBank.sol\":1106:1155  require(msg.sender == admin, \"You are not admin\") */\n      tag_56\n      jumpi\n      mload(0x40)\n      0x08c379a000000000000000000000000000000000000000000000000000000000\n      dup2\n      mstore\n      0x04\n      add\n      tag_57\n      swap1\n      tag_53\n      jump\t// in\n    tag_57:\n      mload(0x40)\n      dup1\n      swap2\n      sub\n      swap1\n      revert\n    tag_56:\n        /* \"contracts/CryptoBank.sol\":1583:1603  uint256 totalBalance */\n      0x00\n        /* \"contracts/CryptoBank.sol\":1656:1665  uint256 x */\n      dup1\n        /* \"contracts/CryptoBank.sol\":1651:1756  for (uint256 x = 0; x < users.length; x++) {... */\n    tag_59:\n        /* \"contracts/CryptoBank.sol\":1675:1680  users */\n      0x02\n        /* \"contracts/CryptoBank.sol\":1675:1687  users.length */\n      dup1\n      sload\n      swap1\n      pop\n        /* \"contracts/CryptoBank.sol\":1671:1672  x */\n      dup2\n        /* \"contracts/CryptoBank.sol\":1671:1687  x < users.length */\n      lt\n        /* \"contracts/CryptoBank.sol\":1651:1756  for (uint256 x = 0; x < users.length; x++) {... */\n      iszero\n      tag_60\n      jumpi\n        /* \"contracts/CryptoBank.sol\":1724:1735  userBalance */\n      0x03\n        /* \"contracts/CryptoBank.sol\":1724:1745  userBalance[users[x]] */\n      0x00\n        /* \"contracts/CryptoBank.sol\":1736:1741  users */\n      0x02\n        /* \"contracts/CryptoBank.sol\":1742:1743  x */\n      dup4\n        /* \"contracts/CryptoBank.sol\":1736:1744  users[x] */\n      dup2\n      sload\n      dup2\n      lt\n      tag_62\n      jumpi\n      tag_63\n      tag_64\n      jump\t// in\n    tag_63:\n    tag_62:\n      swap1\n      0x00\n      mstore\n      keccak256(0x00, 0x20)\n      add\n      0x00\n      swap1\n      sload\n      swap1\n      0x0100\n      exp\n      swap1\n      div\n      0xffffffffffffffffffffffffffffffffffffffff\n      and\n        /* \"contracts/CryptoBank.sol\":1724:1745  userBalance[users[x]] */\n      0xffffffffffffffffffffffffffffffffffffffff\n      and\n      0xffffffffffffffffffffffffffffffffffffffff\n      and\n      dup2\n      mstore\n      0x20\n      add\n      swap1\n      dup2\n      mstore\n      0x20\n      add\n      0x00\n      keccak256\n      sload\n        /* \"contracts/CryptoBank.sol\":1708:1745  totalBalance += userBalance[users[x]] */\n      dup3\n      tag_66\n      swap2\n      swap1\n      tag_67\n      jump\t// in\n    tag_66:\n      swap2\n      pop\n        /* \"contracts/CryptoBank.sol\":1689:1692  x++ */\n      dup1\n      dup1\n      0x01\n      add\n      swap2\n      pop\n      pop\n        /* \"contracts/CryptoBank.sol\":1651:1756  for (uint256 x = 0; x < users.length; x++) {... */\n      jump(tag_59)\n    tag_60:\n      pop\n        /* \"contracts/CryptoBank.sol\":1773:1785  totalBalance */\n      dup1\n        /* \"contracts/CryptoBank.sol\":1766:1785  return totalBalance */\n      swap2\n      pop\n      pop\n        /* \"contracts/CryptoBank.sol\":1510:1792  function getBankBalance() public view adminOnly returns (uint) {... */\n      swap1\n      jump\t// out\n        /* \"contracts/CryptoBank.sol\":1943:2763  function depositEther() external payable {... */\n    tag_33:\n        /* \"contracts/CryptoBank.sol\":2014:2015  0 */\n      0x00\n        /* \"contracts/CryptoBank.sol\":2002:2011  msg.value */\n      callvalue\n        /* \"contracts/CryptoBank.sol\":2002:2015  msg.value > 0 */\n      gt\n        /* \"contracts/CryptoBank.sol\":1994:2048  require(msg.value > 0, \"Value must be greater than 0\") */\n      tag_69\n      jumpi\n      mload(0x40)\n      0x08c379a000000000000000000000000000000000000000000000000000000000\n      dup2\n      mstore\n      0x04\n      add\n      tag_70\n      swap1\n      tag_71\n      jump\t// in\n    tag_70:\n      mload(0x40)\n      dup1\n      swap2\n      sub\n      swap1\n      revert\n    tag_69:\n        /* \"contracts/CryptoBank.sol\":2160:2170  maxBalance */\n      sload(0x00)\n        /* \"contracts/CryptoBank.sol\":2147:2156  msg.value */\n      callvalue\n        /* \"contracts/CryptoBank.sol\":2121:2132  userBalance */\n      0x03\n        /* \"contracts/CryptoBank.sol\":2121:2144  userBalance[msg.sender] */\n      0x00\n        /* \"contracts/CryptoBank.sol\":2133:2143  msg.sender */\n      caller\n        /* \"contracts/CryptoBank.sol\":2121:2144  userBalance[msg.sender] */\n      0xffffffffffffffffffffffffffffffffffffffff\n      and\n      0xffffffffffffffffffffffffffffffffffffffff\n      and\n      dup2\n      mstore\n      0x20\n      add\n      swap1\n      dup2\n      mstore\n      0x20\n      add\n      0x00\n      keccak256\n      sload\n        /* \"contracts/CryptoBank.sol\":2121:2156  userBalance[msg.sender] + msg.value */\n      tag_72\n      swap2\n      swap1\n      tag_67\n      jump\t// in\n    tag_72:\n        /* \"contracts/CryptoBank.sol\":2121:2170  userBalance[msg.sender] + msg.value <= maxBalance */\n      gt\n      iszero\n        /* \"contracts/CryptoBank.sol\":2250:2271  maxBalance.toString() */\n      tag_73\n        /* \"contracts/CryptoBank.sol\":2250:2260  maxBalance */\n      sload(0x00)\n        /* \"contracts/CryptoBank.sol\":2250:2269  maxBalance.toString */\n      tag_74\n        /* \"contracts/CryptoBank.sol\":2250:2271  maxBalance.toString() */\n      jump\t// in\n    tag_73:\n        /* \"contracts/CryptoBank.sol\":2342:2390  (userBalance[msg.sender] + msg.value).toString() */\n      tag_75\n        /* \"contracts/CryptoBank.sol\":2369:2378  msg.value */\n      callvalue\n        /* \"contracts/CryptoBank.sol\":2343:2354  userBalance */\n      0x03\n        /* \"contracts/CryptoBank.sol\":2343:2366  userBalance[msg.sender] */\n      0x00\n        /* \"contracts/CryptoBank.sol\":2355:2365  msg.sender */\n      caller\n        /* \"contracts/CryptoBank.sol\":2343:2366  userBalance[msg.sender] */\n      0xffffffffffffffffffffffffffffffffffffffff\n      and\n      0xffffffffffffffffffffffffffffffffffffffff\n      and\n      dup2\n      mstore\n      0x20\n      add\n      swap1\n      dup2\n      mstore\n      0x20\n      add\n      0x00\n      keccak256\n      sload\n        /* \"contracts/CryptoBank.sol\":2343:2378  userBalance[msg.sender] + msg.value */\n      tag_76\n      swap2\n      swap1\n      tag_67\n      jump\t// in\n    tag_76:\n        /* \"contracts/CryptoBank.sol\":2342:2388  (userBalance[msg.sender] + msg.value).toString */\n      tag_74\n        /* \"contracts/CryptoBank.sol\":2342:2390  (userBalance[msg.sender] + msg.value).toString() */\n      jump\t// in\n    tag_75:\n        /* \"contracts/CryptoBank.sol\":2184:2404  string.concat(... */\n      add(0x20, mload(0x40))\n      tag_77\n      swap3\n      swap2\n      swap1\n      tag_78\n      jump\t// in\n    tag_77:\n      mload(0x40)\n      0x20\n      dup2\n      dup4\n      sub\n      sub\n      dup2\n      mstore\n      swap1\n      0x40\n      mstore\n        /* \"contracts/CryptoBank.sol\":2100:2414  require(... */\n      swap1\n      tag_79\n      jumpi\n      mload(0x40)\n      0x08c379a000000000000000000000000000000000000000000000000000000000\n      dup2\n      mstore\n      0x04\n      add\n      tag_80\n      swap2\n      swap1\n      tag_81\n      jump\t// in\n    tag_80:\n      mload(0x40)\n      dup1\n      swap2\n      sub\n      swap1\n      revert\n    tag_79:\n      pop\n        /* \"contracts/CryptoBank.sol\":2485:2494  msg.value */\n      callvalue\n        /* \"contracts/CryptoBank.sol\":2458:2469  userBalance */\n      0x03\n        /* \"contracts/CryptoBank.sol\":2458:2481  userBalance[msg.sender] */\n      0x00\n        /* \"contracts/CryptoBank.sol\":2470:2480  msg.sender */\n      caller\n        /* \"contracts/CryptoBank.sol\":2458:2481  userBalance[msg.sender] */\n      0xffffffffffffffffffffffffffffffffffffffff\n      and\n      0xffffffffffffffffffffffffffffffffffffffff\n      and\n      dup2\n      mstore\n      0x20\n      add\n      swap1\n      dup2\n      mstore\n      0x20\n      add\n      0x00\n      keccak256\n      0x00\n        /* \"contracts/CryptoBank.sol\":2458:2494  userBalance[msg.sender] += msg.value */\n      dup3\n      dup3\n      sload\n      tag_82\n      swap2\n      swap1\n      tag_67\n      jump\t// in\n    tag_82:\n      swap3\n      pop\n      pop\n      dup2\n      swap1\n      sstore\n      pop\n        /* \"contracts/CryptoBank.sol\":2561:2566  added */\n      0x04\n        /* \"contracts/CryptoBank.sol\":2561:2578  added[msg.sender] */\n      0x00\n        /* \"contracts/CryptoBank.sol\":2567:2577  msg.sender */\n      caller\n        /* \"contracts/CryptoBank.sol\":2561:2578  added[msg.sender] */\n      0xffffffffffffffffffffffffffffffffffffffff\n      and\n      0xffffffffffffffffffffffffffffffffffffffff\n      and\n      dup2\n      mstore\n      0x20\n      add\n      swap1\n      dup2\n      mstore\n      0x20\n      add\n      0x00\n      keccak256\n      0x00\n      swap1\n      sload\n      swap1\n      0x0100\n      exp\n      swap1\n      div\n      0xff\n      and\n        /* \"contracts/CryptoBank.sol\":2556:2665  if (!added[msg.sender]) {... */\n      tag_83\n      jumpi\n        /* \"contracts/CryptoBank.sol\":2594:2599  users */\n      0x02\n        /* \"contracts/CryptoBank.sol\":2605:2615  msg.sender */\n      caller\n        /* \"contracts/CryptoBank.sol\":2594:2616  users.push(msg.sender) */\n      swap1\n      dup1\n      0x01\n      dup2\n      sload\n      add\n      dup1\n      dup3\n      sstore\n      dup1\n      swap2\n      pop\n      pop\n      0x01\n      swap1\n      sub\n      swap1\n      0x00\n      mstore\n      keccak256(0x00, 0x20)\n      add\n      0x00\n      swap1\n      swap2\n      swap1\n      swap2\n      swap1\n      swap2\n      0x0100\n      exp\n      dup2\n      sload\n      dup2\n      0xffffffffffffffffffffffffffffffffffffffff\n      mul\n      not\n      and\n      swap1\n      dup4\n      0xffffffffffffffffffffffffffffffffffffffff\n      and\n      mul\n      or\n      swap1\n      sstore\n      pop\n        /* \"contracts/CryptoBank.sol\":2650:2654  true */\n      0x01\n        /* \"contracts/CryptoBank.sol\":2630:2635  added */\n      0x04\n        /* \"contracts/CryptoBank.sol\":2630:2647  added[msg.sender] */\n      0x00\n        /* \"contracts/CryptoBank.sol\":2636:2646  msg.sender */\n      caller\n        /* \"contracts/CryptoBank.sol\":2630:2647  added[msg.sender] */\n      0xffffffffffffffffffffffffffffffffffffffff\n      and\n      0xffffffffffffffffffffffffffffffffffffffff\n      and\n      dup2\n      mstore\n      0x20\n      add\n      swap1\n      dup2\n      mstore\n      0x20\n      add\n      0x00\n      keccak256\n      0x00\n        /* \"contracts/CryptoBank.sol\":2630:2654  added[msg.sender] = true */\n      0x0100\n      exp\n      dup2\n      sload\n      dup2\n      0xff\n      mul\n      not\n      and\n      swap1\n      dup4\n      iszero\n      iszero\n      mul\n      or\n      swap1\n      sstore\n      pop\n        /* \"contracts/CryptoBank.sol\":2556:2665  if (!added[msg.sender]) {... */\n    tag_83:\n        /* \"contracts/CryptoBank.sol\":2710:2756  EtherDepositAmountEvent(msg.sender, msg.value) */\n      0xc77b4f05f46b0c2e62a43b7f33b429a815f5e8ee3c9a2e6b0e0000816ff43e76\n        /* \"contracts/CryptoBank.sol\":2734:2744  msg.sender */\n      caller\n        /* \"contracts/CryptoBank.sol\":2746:2755  msg.value */\n      callvalue\n        /* \"contracts/CryptoBank.sol\":2710:2756  EtherDepositAmountEvent(msg.sender, msg.value) */\n      mload(0x40)\n      tag_85\n      swap3\n      swap2\n      swap1\n      tag_49\n      jump\t// in\n    tag_85:\n      mload(0x40)\n      dup1\n      swap2\n      sub\n      swap1\n      log1\n        /* \"contracts/CryptoBank.sol\":1943:2763  function depositEther() external payable {... */\n      jump\t// out\n        /* \"@openzeppelin/contracts/utils/Strings.sol\":1308:1942  function toString(uint256 value) internal pure returns (string memory) {... */\n    tag_74:\n        /* \"@openzeppelin/contracts/utils/Strings.sol\":1364:1377  string memory */\n      0x60\n        /* \"@openzeppelin/contracts/utils/Strings.sol\":1413:1427  uint256 length */\n      0x00\n        /* \"@openzeppelin/contracts/utils/Strings.sol\":1450:1451  1 */\n      0x01\n        /* \"@openzeppelin/contracts/utils/Strings.sol\":1430:1447  Math.log10(value) */\n      tag_87\n        /* \"@openzeppelin/contracts/utils/Strings.sol\":1441:1446  value */\n      dup5\n        /* \"@openzeppelin/contracts/utils/Strings.sol\":1430:1440  Math.log10 */\n      tag_88\n        /* \"@openzeppelin/contracts/utils/Strings.sol\":1430:1447  Math.log10(value) */\n      jump\t// in\n    tag_87:\n        /* \"@openzeppelin/contracts/utils/Strings.sol\":1430:1451  Math.log10(value) + 1 */\n      add\n        /* \"@openzeppelin/contracts/utils/Strings.sol\":1413:1451  uint256 length = Math.log10(value) + 1 */\n      swap1\n      pop\n        /* \"@openzeppelin/contracts/utils/Strings.sol\":1465:1485  string memory buffer */\n      0x00\n        /* \"@openzeppelin/contracts/utils/Strings.sol\":1499:1505  length */\n      dup2\n        /* \"@openzeppelin/contracts/utils/Strings.sol\":1488:1506  new string(length) */\n      0xffffffffffffffff\n      dup2\n      gt\n      iszero\n      tag_89\n      jumpi\n      tag_90\n      tag_91\n      jump\t// in\n    tag_90:\n    tag_89:\n      mload(0x40)\n      swap1\n      dup1\n      dup3\n      mstore\n      dup1\n      0x1f\n      add\n      not(0x1f)\n      and\n      0x20\n      add\n      dup3\n      add\n      0x40\n      mstore\n      dup1\n      iszero\n      tag_92\n      jumpi\n      dup2\n      0x20\n      add\n      0x01\n      dup3\n      mul\n      dup1\n      calldatasize\n      dup4\n      calldatacopy\n      dup1\n      dup3\n      add\n      swap2\n      pop\n      pop\n      swap1\n      pop\n    tag_92:\n      pop\n        /* \"@openzeppelin/contracts/utils/Strings.sol\":1465:1506  string memory buffer = new string(length) */\n      swap1\n      pop\n        /* \"@openzeppelin/contracts/utils/Strings.sol\":1520:1531  uint256 ptr */\n      0x00\n        /* \"@openzeppelin/contracts/utils/Strings.sol\":1618:1624  length */\n      dup3\n        /* \"@openzeppelin/contracts/utils/Strings.sol\":1611:1615  0x20 */\n      0x20\n        /* \"@openzeppelin/contracts/utils/Strings.sol\":1603:1609  buffer */\n      dup4\n        /* \"@openzeppelin/contracts/utils/Strings.sol\":1599:1616  add(buffer, 0x20) */\n      add\n        /* \"@openzeppelin/contracts/utils/Strings.sol\":1595:1625  add(add(buffer, 0x20), length) */\n      add\n        /* \"@openzeppelin/contracts/utils/Strings.sol\":1588:1625  ptr := add(add(buffer, 0x20), length) */\n      swap1\n      pop\n        /* \"@openzeppelin/contracts/utils/Strings.sol\":1652:1899  while (true) {... */\n    tag_93:\n        /* \"@openzeppelin/contracts/utils/Strings.sol\":1659:1663  true */\n      0x01\n        /* \"@openzeppelin/contracts/utils/Strings.sol\":1652:1899  while (true) {... */\n      iszero\n      tag_94\n      jumpi\n        /* \"@openzeppelin/contracts/utils/Strings.sol\":1683:1688  ptr-- */\n      dup1\n      dup1\n      0x01\n      swap1\n      sub\n      swap2\n      pop\n      pop\n        /* \"@openzeppelin/contracts/utils/Strings.sol\":1787:1797  HEX_DIGITS */\n      0x3031323334353637383961626364656600000000000000000000000000000000\n        /* \"@openzeppelin/contracts/utils/Strings.sol\":1782:1784  10 */\n      0x0a\n        /* \"@openzeppelin/contracts/utils/Strings.sol\":1775:1780  value */\n      dup7\n        /* \"@openzeppelin/contracts/utils/Strings.sol\":1771:1785  mod(value, 10) */\n      mod\n        /* \"@openzeppelin/contracts/utils/Strings.sol\":1766:1798  byte(mod(value, 10), HEX_DIGITS) */\n      byte\n        /* \"@openzeppelin/contracts/utils/Strings.sol\":1761:1764  ptr */\n      dup2\n        /* \"@openzeppelin/contracts/utils/Strings.sol\":1753:1799  mstore8(ptr, byte(mod(value, 10), HEX_DIGITS)) */\n      mstore8\n        /* \"@openzeppelin/contracts/utils/Strings.sol\":1843:1845  10 */\n      0x0a\n        /* \"@openzeppelin/contracts/utils/Strings.sol\":1834:1845  value /= 10 */\n      dup6\n      dup2\n      tag_95\n      jumpi\n      tag_96\n      tag_97\n      jump\t// in\n    tag_96:\n    tag_95:\n      div\n      swap5\n      pop\n        /* \"@openzeppelin/contracts/utils/Strings.sol\":1876:1877  0 */\n      0x00\n        /* \"@openzeppelin/contracts/utils/Strings.sol\":1867:1872  value */\n      dup6\n        /* \"@openzeppelin/contracts/utils/Strings.sol\":1867:1877  value == 0 */\n      sub\n        /* \"@openzeppelin/contracts/utils/Strings.sol\":1652:1899  while (true) {... */\n      tag_93\n        /* \"@openzeppelin/contracts/utils/Strings.sol\":1863:1884  if (value == 0) break */\n      jumpi\n        /* \"@openzeppelin/contracts/utils/Strings.sol\":1652:1899  while (true) {... */\n    tag_94:\n        /* \"@openzeppelin/contracts/utils/Strings.sol\":1919:1925  buffer */\n      dup2\n        /* \"@openzeppelin/contracts/utils/Strings.sol\":1912:1925  return buffer */\n      swap4\n      pop\n      pop\n      pop\n      pop\n        /* \"@openzeppelin/contracts/utils/Strings.sol\":1308:1942  function toString(uint256 value) internal pure returns (string memory) {... */\n      swap2\n      swap1\n      pop\n      jump\t// out\n        /* \"@openzeppelin/contracts/utils/math/Math.sol\":29154:30070  function log10(uint256 value) internal pure returns (uint256) {... */\n    tag_88:\n        /* \"@openzeppelin/contracts/utils/math/Math.sol\":29207:29214  uint256 */\n      0x00\n        /* \"@openzeppelin/contracts/utils/math/Math.sol\":29226:29240  uint256 result */\n      dup1\n        /* \"@openzeppelin/contracts/utils/math/Math.sol\":29243:29244  0 */\n      0x00\n        /* \"@openzeppelin/contracts/utils/math/Math.sol\":29226:29244  uint256 result = 0 */\n      swap1\n      pop\n        /* \"@openzeppelin/contracts/utils/math/Math.sol\":29291:29299  10 ** 64 */\n      0x184f03e93ff9f4daa797ed6e38ed64bf6a1f010000000000000000\n        /* \"@openzeppelin/contracts/utils/math/Math.sol\":29282:29287  value */\n      dup4\n        /* \"@openzeppelin/contracts/utils/math/Math.sol\":29282:29299  value >= 10 ** 64 */\n      lt\n        /* \"@openzeppelin/contracts/utils/math/Math.sol\":29278:29381  if (value >= 10 ** 64) {... */\n      tag_100\n      jumpi\n        /* \"@openzeppelin/contracts/utils/math/Math.sol\":29328:29336  10 ** 64 */\n      0x184f03e93ff9f4daa797ed6e38ed64bf6a1f010000000000000000\n        /* \"@openzeppelin/contracts/utils/math/Math.sol\":29319:29336  value /= 10 ** 64 */\n      dup4\n      dup2\n      tag_101\n      jumpi\n      tag_102\n      tag_97\n      jump\t// in\n    tag_102:\n    tag_101:\n      div\n      swap3\n      pop\n        /* \"@openzeppelin/contracts/utils/math/Math.sol\":29364:29366  64 */\n      0x40\n        /* \"@openzeppelin/contracts/utils/math/Math.sol\":29354:29366  result += 64 */\n      dup2\n      add\n      swap1\n      pop\n        /* \"@openzeppelin/contracts/utils/math/Math.sol\":29278:29381  if (value >= 10 ** 64) {... */\n    tag_100:\n        /* \"@openzeppelin/contracts/utils/math/Math.sol\":29407:29415  10 ** 32 */\n      0x04ee2d6d415b85acef8100000000\n        /* \"@openzeppelin/contracts/utils/math/Math.sol\":29398:29403  value */\n      dup4\n        /* \"@openzeppelin/contracts/utils/math/Math.sol\":29398:29415  value >= 10 ** 32 */\n      lt\n        /* \"@openzeppelin/contracts/utils/math/Math.sol\":29394:29497  if (value >= 10 ** 32) {... */\n      tag_103\n      jumpi\n        /* \"@openzeppelin/contracts/utils/math/Math.sol\":29444:29452  10 ** 32 */\n      0x04ee2d6d415b85acef8100000000\n        /* \"@openzeppelin/contracts/utils/math/Math.sol\":29435:29452  value /= 10 ** 32 */\n      dup4\n      dup2\n      tag_104\n      jumpi\n      tag_105\n      tag_97\n      jump\t// in\n    tag_105:\n    tag_104:\n      div\n      swap3\n      pop\n        /* \"@openzeppelin/contracts/utils/math/Math.sol\":29480:29482  32 */\n      0x20\n        /* \"@openzeppelin/contracts/utils/math/Math.sol\":29470:29482  result += 32 */\n      dup2\n      add\n      swap1\n      pop\n        /* \"@openzeppelin/contracts/utils/math/Math.sol\":29394:29497  if (value >= 10 ** 32) {... */\n    tag_103:\n        /* \"@openzeppelin/contracts/utils/math/Math.sol\":29523:29531  10 ** 16 */\n      0x2386f26fc10000\n        /* \"@openzeppelin/contracts/utils/math/Math.sol\":29514:29519  value */\n      dup4\n        /* \"@openzeppelin/contracts/utils/math/Math.sol\":29514:29531  value >= 10 ** 16 */\n      lt\n        /* \"@openzeppelin/contracts/utils/math/Math.sol\":29510:29613  if (value >= 10 ** 16) {... */\n      tag_106\n      jumpi\n        /* \"@openzeppelin/contracts/utils/math/Math.sol\":29560:29568  10 ** 16 */\n      0x2386f26fc10000\n        /* \"@openzeppelin/contracts/utils/math/Math.sol\":29551:29568  value /= 10 ** 16 */\n      dup4\n      dup2\n      tag_107\n      jumpi\n      tag_108\n      tag_97\n      jump\t// in\n    tag_108:\n    tag_107:\n      div\n      swap3\n      pop\n        /* \"@openzeppelin/contracts/utils/math/Math.sol\":29596:29598  16 */\n      0x10\n        /* \"@openzeppelin/contracts/utils/math/Math.sol\":29586:29598  result += 16 */\n      dup2\n      add\n      swap1\n      pop\n        /* \"@openzeppelin/contracts/utils/math/Math.sol\":29510:29613  if (value >= 10 ** 16) {... */\n    tag_106:\n        /* \"@openzeppelin/contracts/utils/math/Math.sol\":29639:29646  10 ** 8 */\n      0x05f5e100\n        /* \"@openzeppelin/contracts/utils/math/Math.sol\":29630:29635  value */\n      dup4\n        /* \"@openzeppelin/contracts/utils/math/Math.sol\":29630:29646  value >= 10 ** 8 */\n      lt\n        /* \"@openzeppelin/contracts/utils/math/Math.sol\":29626:29726  if (value >= 10 ** 8) {... */\n      tag_109\n      jumpi\n        /* \"@openzeppelin/contracts/utils/math/Math.sol\":29675:29682  10 ** 8 */\n      0x05f5e100\n        /* \"@openzeppelin/contracts/utils/math/Math.sol\":29666:29682  value /= 10 ** 8 */\n      dup4\n      dup2\n      tag_110\n      jumpi\n      tag_111\n      tag_97\n      jump\t// in\n    tag_111:\n    tag_110:\n      div\n      swap3\n      pop\n        /* \"@openzeppelin/contracts/utils/math/Math.sol\":29710:29711  8 */\n      0x08\n        /* \"@openzeppelin/contracts/utils/math/Math.sol\":29700:29711  result += 8 */\n      dup2\n      add\n      swap1\n      pop\n        /* \"@openzeppelin/contracts/utils/math/Math.sol\":29626:29726  if (value >= 10 ** 8) {... */\n    tag_109:\n        /* \"@openzeppelin/contracts/utils/math/Math.sol\":29752:29759  10 ** 4 */\n      0x2710\n        /* \"@openzeppelin/contracts/utils/math/Math.sol\":29743:29748  value */\n      dup4\n        /* \"@openzeppelin/contracts/utils/math/Math.sol\":29743:29759  value >= 10 ** 4 */\n      lt\n        /* \"@openzeppelin/contracts/utils/math/Math.sol\":29739:29839  if (value >= 10 ** 4) {... */\n      tag_112\n      jumpi\n        /* \"@openzeppelin/contracts/utils/math/Math.sol\":29788:29795  10 ** 4 */\n      0x2710\n        /* \"@openzeppelin/contracts/utils/math/Math.sol\":29779:29795  value /= 10 ** 4 */\n      dup4\n      dup2\n      tag_113\n      jumpi\n      tag_114\n      tag_97\n      jump\t// in\n    tag_114:\n    tag_113:\n      div\n      swap3\n      pop\n        /* \"@openzeppelin/contracts/utils/math/Math.sol\":29823:29824  4 */\n      0x04\n        /* \"@openzeppelin/contracts/utils/math/Math.sol\":29813:29824  result += 4 */\n      dup2\n      add\n      swap1\n      pop\n        /* \"@openzeppelin/contracts/utils/math/Math.sol\":29739:29839  if (value >= 10 ** 4) {... */\n    tag_112:\n        /* \"@openzeppelin/contracts/utils/math/Math.sol\":29865:29872  10 ** 2 */\n      0x64\n        /* \"@openzeppelin/contracts/utils/math/Math.sol\":29856:29861  value */\n      dup4\n        /* \"@openzeppelin/contracts/utils/math/Math.sol\":29856:29872  value >= 10 ** 2 */\n      lt\n        /* \"@openzeppelin/contracts/utils/math/Math.sol\":29852:29952  if (value >= 10 ** 2) {... */\n      tag_115\n      jumpi\n        /* \"@openzeppelin/contracts/utils/math/Math.sol\":29901:29908  10 ** 2 */\n      0x64\n        /* \"@openzeppelin/contracts/utils/math/Math.sol\":29892:29908  value /= 10 ** 2 */\n      dup4\n      dup2\n      tag_116\n      jumpi\n      tag_117\n      tag_97\n      jump\t// in\n    tag_117:\n    tag_116:\n      div\n      swap3\n      pop\n        /* \"@openzeppelin/contracts/utils/math/Math.sol\":29936:29937  2 */\n      0x02\n        /* \"@openzeppelin/contracts/utils/math/Math.sol\":29926:29937  result += 2 */\n      dup2\n      add\n      swap1\n      pop\n        /* \"@openzeppelin/contracts/utils/math/Math.sol\":29852:29952  if (value >= 10 ** 2) {... */\n    tag_115:\n        /* \"@openzeppelin/contracts/utils/math/Math.sol\":29978:29985  10 ** 1 */\n      0x0a\n        /* \"@openzeppelin/contracts/utils/math/Math.sol\":29969:29974  value */\n      dup4\n        /* \"@openzeppelin/contracts/utils/math/Math.sol\":29969:29985  value >= 10 ** 1 */\n      lt\n        /* \"@openzeppelin/contracts/utils/math/Math.sol\":29965:30031  if (value >= 10 ** 1) {... */\n      tag_118\n      jumpi\n        /* \"@openzeppelin/contracts/utils/math/Math.sol\":30015:30016  1 */\n      0x01\n        /* \"@openzeppelin/contracts/utils/math/Math.sol\":30005:30016  result += 1 */\n      dup2\n      add\n      swap1\n      pop\n        /* \"@openzeppelin/contracts/utils/math/Math.sol\":29965:30031  if (value >= 10 ** 1) {... */\n    tag_118:\n        /* \"@openzeppelin/contracts/utils/math/Math.sol\":30057:30063  result */\n      dup1\n        /* \"@openzeppelin/contracts/utils/math/Math.sol\":30050:30063  return result */\n      swap2\n      pop\n      pop\n        /* \"@openzeppelin/contracts/utils/math/Math.sol\":29154:30070  function log10(uint256 value) internal pure returns (uint256) {... */\n      swap2\n      swap1\n      pop\n      jump\t// out\n        /* \"#utility.yul\":88:205   */\n    tag_120:\n        /* \"#utility.yul\":197:198   */\n      0x00\n        /* \"#utility.yul\":194:195   */\n      dup1\n        /* \"#utility.yul\":187:199   */\n      revert\n        /* \"#utility.yul\":334:460   */\n    tag_122:\n        /* \"#utility.yul\":371:378   */\n      0x00\n        /* \"#utility.yul\":411:453   */\n      0xffffffffffffffffffffffffffffffffffffffff\n        /* \"#utility.yul\":404:409   */\n      dup3\n        /* \"#utility.yul\":400:454   */\n      and\n        /* \"#utility.yul\":389:454   */\n      swap1\n      pop\n        /* \"#utility.yul\":334:460   */\n      swap2\n      swap1\n      pop\n      jump\t// out\n        /* \"#utility.yul\":466:562   */\n    tag_123:\n        /* \"#utility.yul\":503:510   */\n      0x00\n        /* \"#utility.yul\":532:556   */\n      tag_159\n        /* \"#utility.yul\":550:555   */\n      dup3\n        /* \"#utility.yul\":532:556   */\n      tag_122\n      jump\t// in\n    tag_159:\n        /* \"#utility.yul\":521:556   */\n      swap1\n      pop\n        /* \"#utility.yul\":466:562   */\n      swap2\n      swap1\n      pop\n      jump\t// out\n        /* \"#utility.yul\":568:690   */\n    tag_124:\n        /* \"#utility.yul\":641:665   */\n      tag_161\n        /* \"#utility.yul\":659:664   */\n      dup2\n        /* \"#utility.yul\":641:665   */\n      tag_123\n      jump\t// in\n    tag_161:\n        /* \"#utility.yul\":634:639   */\n      dup2\n        /* \"#utility.yul\":631:666   */\n      eq\n        /* \"#utility.yul\":621:684   */\n      tag_162\n      jumpi\n        /* \"#utility.yul\":680:681   */\n      0x00\n        /* \"#utility.yul\":677:678   */\n      dup1\n        /* \"#utility.yul\":670:682   */\n      revert\n        /* \"#utility.yul\":621:684   */\n    tag_162:\n        /* \"#utility.yul\":568:690   */\n      pop\n      jump\t// out\n        /* \"#utility.yul\":696:835   */\n    tag_125:\n        /* \"#utility.yul\":742:747   */\n      0x00\n        /* \"#utility.yul\":780:786   */\n      dup2\n        /* \"#utility.yul\":767:787   */\n      calldataload\n        /* \"#utility.yul\":758:787   */\n      swap1\n      pop\n        /* \"#utility.yul\":796:829   */\n      tag_164\n        /* \"#utility.yul\":823:828   */\n      dup2\n        /* \"#utility.yul\":796:829   */\n      tag_124\n      jump\t// in\n    tag_164:\n        /* \"#utility.yul\":696:835   */\n      swap3\n      swap2\n      pop\n      pop\n      jump\t// out\n        /* \"#utility.yul\":841:1170   */\n    tag_11:\n        /* \"#utility.yul\":900:906   */\n      0x00\n        /* \"#utility.yul\":949:951   */\n      0x20\n        /* \"#utility.yul\":937:946   */\n      dup3\n        /* \"#utility.yul\":928:935   */\n      dup5\n        /* \"#utility.yul\":924:947   */\n      sub\n        /* \"#utility.yul\":920:952   */\n      slt\n        /* \"#utility.yul\":917:1036   */\n      iszero\n      tag_166\n      jumpi\n        /* \"#utility.yul\":955:1034   */\n      tag_167\n      tag_120\n      jump\t// in\n    tag_167:\n        /* \"#utility.yul\":917:1036   */\n    tag_166:\n        /* \"#utility.yul\":1075:1076   */\n      0x00\n        /* \"#utility.yul\":1100:1153   */\n      tag_168\n        /* \"#utility.yul\":1145:1152   */\n      dup5\n        /* \"#utility.yul\":1136:1142   */\n      dup3\n        /* \"#utility.yul\":1125:1134   */\n      dup6\n        /* \"#utility.yul\":1121:1143   */\n      add\n        /* \"#utility.yul\":1100:1153   */\n      tag_125\n      jump\t// in\n    tag_168:\n        /* \"#utility.yul\":1090:1153   */\n      swap2\n      pop\n        /* \"#utility.yul\":1046:1163   */\n      pop\n        /* \"#utility.yul\":841:1170   */\n      swap3\n      swap2\n      pop\n      pop\n      jump\t// out\n        /* \"#utility.yul\":1176:1253   */\n    tag_126:\n        /* \"#utility.yul\":1213:1220   */\n      0x00\n        /* \"#utility.yul\":1242:1247   */\n      dup2\n        /* \"#utility.yul\":1231:1247   */\n      swap1\n      pop\n        /* \"#utility.yul\":1176:1253   */\n      swap2\n      swap1\n      pop\n      jump\t// out\n        /* \"#utility.yul\":1259:1377   */\n    tag_127:\n        /* \"#utility.yul\":1346:1370   */\n      tag_171\n        /* \"#utility.yul\":1364:1369   */\n      dup2\n        /* \"#utility.yul\":1346:1370   */\n      tag_126\n      jump\t// in\n    tag_171:\n        /* \"#utility.yul\":1341:1344   */\n      dup3\n        /* \"#utility.yul\":1334:1371   */\n      mstore\n        /* \"#utility.yul\":1259:1377   */\n      pop\n      pop\n      jump\t// out\n        /* \"#utility.yul\":1383:1605   */\n    tag_14:\n        /* \"#utility.yul\":1476:1480   */\n      0x00\n        /* \"#utility.yul\":1514:1516   */\n      0x20\n        /* \"#utility.yul\":1503:1512   */\n      dup3\n        /* \"#utility.yul\":1499:1517   */\n      add\n        /* \"#utility.yul\":1491:1517   */\n      swap1\n      pop\n        /* \"#utility.yul\":1527:1598   */\n      tag_173\n        /* \"#utility.yul\":1595:1596   */\n      0x00\n        /* \"#utility.yul\":1584:1593   */\n      dup4\n        /* \"#utility.yul\":1580:1597   */\n      add\n        /* \"#utility.yul\":1571:1577   */\n      dup5\n        /* \"#utility.yul\":1527:1598   */\n      tag_127\n      jump\t// in\n    tag_173:\n        /* \"#utility.yul\":1383:1605   */\n      swap3\n      swap2\n      pop\n      pop\n      jump\t// out\n        /* \"#utility.yul\":1611:1733   */\n    tag_128:\n        /* \"#utility.yul\":1684:1708   */\n      tag_175\n        /* \"#utility.yul\":1702:1707   */\n      dup2\n        /* \"#utility.yul\":1684:1708   */\n      tag_126\n      jump\t// in\n    tag_175:\n        /* \"#utility.yul\":1677:1682   */\n      dup2\n        /* \"#utility.yul\":1674:1709   */\n      eq\n        /* \"#utility.yul\":1664:1727   */\n      tag_176\n      jumpi\n        /* \"#utility.yul\":1723:1724   */\n      0x00\n        /* \"#utility.yul\":1720:1721   */\n      dup1\n        /* \"#utility.yul\":1713:1725   */\n      revert\n        /* \"#utility.yul\":1664:1727   */\n    tag_176:\n        /* \"#utility.yul\":1611:1733   */\n      pop\n      jump\t// out\n        /* \"#utility.yul\":1739:1878   */\n    tag_129:\n        /* \"#utility.yul\":1785:1790   */\n      0x00\n        /* \"#utility.yul\":1823:1829   */\n      dup2\n        /* \"#utility.yul\":1810:1830   */\n      calldataload\n        /* \"#utility.yul\":1801:1830   */\n      swap1\n      pop\n        /* \"#utility.yul\":1839:1872   */\n      tag_178\n        /* \"#utility.yul\":1866:1871   */\n      dup2\n        /* \"#utility.yul\":1839:1872   */\n      tag_128\n      jump\t// in\n    tag_178:\n        /* \"#utility.yul\":1739:1878   */\n      swap3\n      swap2\n      pop\n      pop\n      jump\t// out\n        /* \"#utility.yul\":1884:2213   */\n    tag_18:\n        /* \"#utility.yul\":1943:1949   */\n      0x00\n        /* \"#utility.yul\":1992:1994   */\n      0x20\n        /* \"#utility.yul\":1980:1989   */\n      dup3\n        /* \"#utility.yul\":1971:1978   */\n      dup5\n        /* \"#utility.yul\":1967:1990   */\n      sub\n        /* \"#utility.yul\":1963:1995   */\n      slt\n        /* \"#utility.yul\":1960:2079   */\n      iszero\n      tag_180\n      jumpi\n        /* \"#utility.yul\":1998:2077   */\n      tag_181\n      tag_120\n      jump\t// in\n    tag_181:\n        /* \"#utility.yul\":1960:2079   */\n    tag_180:\n        /* \"#utility.yul\":2118:2119   */\n      0x00\n        /* \"#utility.yul\":2143:2196   */\n      tag_182\n        /* \"#utility.yul\":2188:2195   */\n      dup5\n        /* \"#utility.yul\":2179:2185   */\n      dup3\n        /* \"#utility.yul\":2168:2177   */\n      dup6\n        /* \"#utility.yul\":2164:2186   */\n      add\n        /* \"#utility.yul\":2143:2196   */\n      tag_129\n      jump\t// in\n    tag_182:\n        /* \"#utility.yul\":2133:2196   */\n      swap2\n      pop\n        /* \"#utility.yul\":2089:2206   */\n      pop\n        /* \"#utility.yul\":1884:2213   */\n      swap3\n      swap2\n      pop\n      pop\n      jump\t// out\n        /* \"#utility.yul\":2219:2388   */\n    tag_130:\n        /* \"#utility.yul\":2303:2314   */\n      0x00\n        /* \"#utility.yul\":2337:2343   */\n      dup3\n        /* \"#utility.yul\":2332:2335   */\n      dup3\n        /* \"#utility.yul\":2325:2344   */\n      mstore\n        /* \"#utility.yul\":2377:2381   */\n      0x20\n        /* \"#utility.yul\":2372:2375   */\n      dup3\n        /* \"#utility.yul\":2368:2382   */\n      add\n        /* \"#utility.yul\":2353:2382   */\n      swap1\n      pop\n        /* \"#utility.yul\":2219:2388   */\n      swap3\n      swap2\n      pop\n      pop\n      jump\t// out\n        /* \"#utility.yul\":2394:2618   */\n    tag_131:\n        /* \"#utility.yul\":2534:2568   */\n      0x42616c616e6365206973206c6f776572207468616e2072657175657374656420\n        /* \"#utility.yul\":2530:2531   */\n      0x00\n        /* \"#utility.yul\":2522:2528   */\n      dup3\n        /* \"#utility.yul\":2518:2532   */\n      add\n        /* \"#utility.yul\":2511:2569   */\n      mstore\n        /* \"#utility.yul\":2603:2610   */\n      0x76616c7565000000000000000000000000000000000000000000000000000000\n        /* \"#utility.yul\":2598:2600   */\n      0x20\n        /* \"#utility.yul\":2590:2596   */\n      dup3\n        /* \"#utility.yul\":2586:2601   */\n      add\n        /* \"#utility.yul\":2579:2611   */\n      mstore\n        /* \"#utility.yul\":2394:2618   */\n      pop\n      jump\t// out\n        /* \"#utility.yul\":2624:2990   */\n    tag_132:\n        /* \"#utility.yul\":2766:2769   */\n      0x00\n        /* \"#utility.yul\":2787:2854   */\n      tag_186\n        /* \"#utility.yul\":2851:2853   */\n      0x25\n        /* \"#utility.yul\":2846:2849   */\n      dup4\n        /* \"#utility.yul\":2787:2854   */\n      tag_130\n      jump\t// in\n    tag_186:\n        /* \"#utility.yul\":2780:2854   */\n      swap2\n      pop\n        /* \"#utility.yul\":2863:2956   */\n      tag_187\n        /* \"#utility.yul\":2952:2955   */\n      dup3\n        /* \"#utility.yul\":2863:2956   */\n      tag_131\n      jump\t// in\n    tag_187:\n        /* \"#utility.yul\":2981:2983   */\n      0x40\n        /* \"#utility.yul\":2976:2979   */\n      dup3\n        /* \"#utility.yul\":2972:2984   */\n      add\n        /* \"#utility.yul\":2965:2984   */\n      swap1\n      pop\n        /* \"#utility.yul\":2624:2990   */\n      swap2\n      swap1\n      pop\n      jump\t// out\n        /* \"#utility.yul\":2996:3415   */\n    tag_37:\n        /* \"#utility.yul\":3162:3166   */\n      0x00\n        /* \"#utility.yul\":3200:3202   */\n      0x20\n        /* \"#utility.yul\":3189:3198   */\n      dup3\n        /* \"#utility.yul\":3185:3203   */\n      add\n        /* \"#utility.yul\":3177:3203   */\n      swap1\n      pop\n        /* \"#utility.yul\":3249:3258   */\n      dup2\n        /* \"#utility.yul\":3243:3247   */\n      dup2\n        /* \"#utility.yul\":3239:3259   */\n      sub\n        /* \"#utility.yul\":3235:3236   */\n      0x00\n        /* \"#utility.yul\":3224:3233   */\n      dup4\n        /* \"#utility.yul\":3220:3237   */\n      add\n        /* \"#utility.yul\":3213:3260   */\n      mstore\n        /* \"#utility.yul\":3277:3408   */\n      tag_189\n        /* \"#utility.yul\":3403:3407   */\n      dup2\n        /* \"#utility.yul\":3277:3408   */\n      tag_132\n      jump\t// in\n    tag_189:\n        /* \"#utility.yul\":3269:3408   */\n      swap1\n      pop\n        /* \"#utility.yul\":2996:3415   */\n      swap2\n      swap1\n      pop\n      jump\t// out\n        /* \"#utility.yul\":3421:3601   */\n    tag_133:\n        /* \"#utility.yul\":3469:3546   */\n      0x4e487b7100000000000000000000000000000000000000000000000000000000\n        /* \"#utility.yul\":3466:3467   */\n      0x00\n        /* \"#utility.yul\":3459:3547   */\n      mstore\n        /* \"#utility.yul\":3566:3570   */\n      0x11\n        /* \"#utility.yul\":3563:3564   */\n      0x04\n        /* \"#utility.yul\":3556:3571   */\n      mstore\n        /* \"#utility.yul\":3590:3594   */\n      0x24\n        /* \"#utility.yul\":3587:3588   */\n      0x00\n        /* \"#utility.yul\":3580:3595   */\n      revert\n        /* \"#utility.yul\":3607:3801   */\n    tag_39:\n        /* \"#utility.yul\":3647:3651   */\n      0x00\n        /* \"#utility.yul\":3667:3687   */\n      tag_192\n        /* \"#utility.yul\":3685:3686   */\n      dup3\n        /* \"#utility.yul\":3667:3687   */\n      tag_126\n      jump\t// in\n    tag_192:\n        /* \"#utility.yul\":3662:3687   */\n      swap2\n      pop\n        /* \"#utility.yul\":3701:3721   */\n      tag_193\n        /* \"#utility.yul\":3719:3720   */\n      dup4\n        /* \"#utility.yul\":3701:3721   */\n      tag_126\n      jump\t// in\n    tag_193:\n        /* \"#utility.yul\":3696:3721   */\n      swap3\n      pop\n        /* \"#utility.yul\":3745:3746   */\n      dup3\n        /* \"#utility.yul\":3742:3743   */\n      dup3\n        /* \"#utility.yul\":3738:3747   */\n      sub\n        /* \"#utility.yul\":3730:3747   */\n      swap1\n      pop\n        /* \"#utility.yul\":3769:3770   */\n      dup2\n        /* \"#utility.yul\":3763:3767   */\n      dup2\n        /* \"#utility.yul\":3760:3771   */\n      gt\n        /* \"#utility.yul\":3757:3794   */\n      iszero\n      tag_194\n      jumpi\n        /* \"#utility.yul\":3774:3792   */\n      tag_195\n      tag_133\n      jump\t// in\n    tag_195:\n        /* \"#utility.yul\":3757:3794   */\n    tag_194:\n        /* \"#utility.yul\":3607:3801   */\n      swap3\n      swap2\n      pop\n      pop\n      jump\t// out\n        /* \"#utility.yul\":3807:3954   */\n    tag_134:\n        /* \"#utility.yul\":3908:3919   */\n      0x00\n        /* \"#utility.yul\":3945:3948   */\n      dup2\n        /* \"#utility.yul\":3930:3948   */\n      swap1\n      pop\n        /* \"#utility.yul\":3807:3954   */\n      swap3\n      swap2\n      pop\n      pop\n      jump\t// out\n        /* \"#utility.yul\":3960:4074   */\n    tag_135:\n      pop\n      jump\t// out\n        /* \"#utility.yul\":4080:4478   */\n    tag_136:\n        /* \"#utility.yul\":4239:4242   */\n      0x00\n        /* \"#utility.yul\":4260:4343   */\n      tag_199\n        /* \"#utility.yul\":4341:4342   */\n      0x00\n        /* \"#utility.yul\":4336:4339   */\n      dup4\n        /* \"#utility.yul\":4260:4343   */\n      tag_134\n      jump\t// in\n    tag_199:\n        /* \"#utility.yul\":4253:4343   */\n      swap2\n      pop\n        /* \"#utility.yul\":4352:4445   */\n      tag_200\n        /* \"#utility.yul\":4441:4444   */\n      dup3\n        /* \"#utility.yul\":4352:4445   */\n      tag_135\n      jump\t// in\n    tag_200:\n        /* \"#utility.yul\":4470:4471   */\n      0x00\n        /* \"#utility.yul\":4465:4468   */\n      dup3\n        /* \"#utility.yul\":4461:4472   */\n      add\n        /* \"#utility.yul\":4454:4472   */\n      swap1\n      pop\n        /* \"#utility.yul\":4080:4478   */\n      swap2\n      swap1\n      pop\n      jump\t// out\n        /* \"#utility.yul\":4484:4863   */\n    tag_41:\n        /* \"#utility.yul\":4668:4671   */\n      0x00\n        /* \"#utility.yul\":4690:4837   */\n      tag_202\n        /* \"#utility.yul\":4833:4836   */\n      dup3\n        /* \"#utility.yul\":4690:4837   */\n      tag_136\n      jump\t// in\n    tag_202:\n        /* \"#utility.yul\":4683:4837   */\n      swap2\n      pop\n        /* \"#utility.yul\":4854:4857   */\n      dup2\n        /* \"#utility.yul\":4847:4857   */\n      swap1\n      pop\n        /* \"#utility.yul\":4484:4863   */\n      swap2\n      swap1\n      pop\n      jump\t// out\n        /* \"#utility.yul\":4869:5034   */\n    tag_137:\n        /* \"#utility.yul\":5009:5026   */\n      0x5472616e73666572206661696c65640000000000000000000000000000000000\n        /* \"#utility.yul\":5005:5006   */\n      0x00\n        /* \"#utility.yul\":4997:5003   */\n      dup3\n        /* \"#utility.yul\":4993:5007   */\n      add\n        /* \"#utility.yul\":4986:5027   */\n      mstore\n        /* \"#utility.yul\":4869:5034   */\n      pop\n      jump\t// out\n        /* \"#utility.yul\":5040:5406   */\n    tag_138:\n        /* \"#utility.yul\":5182:5185   */\n      0x00\n        /* \"#utility.yul\":5203:5270   */\n      tag_205\n        /* \"#utility.yul\":5267:5269   */\n      0x0f\n        /* \"#utility.yul\":5262:5265   */\n      dup4\n        /* \"#utility.yul\":5203:5270   */\n      tag_130\n      jump\t// in\n    tag_205:\n        /* \"#utility.yul\":5196:5270   */\n      swap2\n      pop\n        /* \"#utility.yul\":5279:5372   */\n      tag_206\n        /* \"#utility.yul\":5368:5371   */\n      dup3\n        /* \"#utility.yul\":5279:5372   */\n      tag_137\n      jump\t// in\n    tag_206:\n        /* \"#utility.yul\":5397:5399   */\n      0x20\n        /* \"#utility.yul\":5392:5395   */\n      dup3\n        /* \"#utility.yul\":5388:5400   */\n      add\n        /* \"#utility.yul\":5381:5400   */\n      swap1\n      pop\n        /* \"#utility.yul\":5040:5406   */\n      swap2\n      swap1\n      pop\n      jump\t// out\n        /* \"#utility.yul\":5412:5831   */\n    tag_47:\n        /* \"#utility.yul\":5578:5582   */\n      0x00\n        /* \"#utility.yul\":5616:5618   */\n      0x20\n        /* \"#utility.yul\":5605:5614   */\n      dup3\n        /* \"#utility.yul\":5601:5619   */\n      add\n        /* \"#utility.yul\":5593:5619   */\n      swap1\n      pop\n        /* \"#utility.yul\":5665:5674   */\n      dup2\n        /* \"#utility.yul\":5659:5663   */\n      dup2\n        /* \"#utility.yul\":5655:5675   */\n      sub\n        /* \"#utility.yul\":5651:5652   */\n      0x00\n        /* \"#utility.yul\":5640:5649   */\n      dup4\n        /* \"#utility.yul\":5636:5653   */\n      add\n        /* \"#utility.yul\":5629:5676   */\n      mstore\n        /* \"#utility.yul\":5693:5824   */\n      tag_208\n        /* \"#utility.yul\":5819:5823   */\n      dup2\n        /* \"#utility.yul\":5693:5824   */\n      tag_138\n      jump\t// in\n    tag_208:\n        /* \"#utility.yul\":5685:5824   */\n      swap1\n      pop\n        /* \"#utility.yul\":5412:5831   */\n      swap2\n      swap1\n      pop\n      jump\t// out\n        /* \"#utility.yul\":5837:5955   */\n    tag_139:\n        /* \"#utility.yul\":5924:5948   */\n      tag_210\n        /* \"#utility.yul\":5942:5947   */\n      dup2\n        /* \"#utility.yul\":5924:5948   */\n      tag_123\n      jump\t// in\n    tag_210:\n        /* \"#utility.yul\":5919:5922   */\n      dup3\n        /* \"#utility.yul\":5912:5949   */\n      mstore\n        /* \"#utility.yul\":5837:5955   */\n      pop\n      pop\n      jump\t// out\n        /* \"#utility.yul\":5961:6293   */\n    tag_49:\n        /* \"#utility.yul\":6082:6086   */\n      0x00\n        /* \"#utility.yul\":6120:6122   */\n      0x40\n        /* \"#utility.yul\":6109:6118   */\n      dup3\n        /* \"#utility.yul\":6105:6123   */\n      add\n        /* \"#utility.yul\":6097:6123   */\n      swap1\n      pop\n        /* \"#utility.yul\":6133:6204   */\n      tag_212\n        /* \"#utility.yul\":6201:6202   */\n      0x00\n        /* \"#utility.yul\":6190:6199   */\n      dup4\n        /* \"#utility.yul\":6186:6203   */\n      add\n        /* \"#utility.yul\":6177:6183   */\n      dup6\n        /* \"#utility.yul\":6133:6204   */\n      tag_139\n      jump\t// in\n    tag_212:\n        /* \"#utility.yul\":6214:6286   */\n      tag_213\n        /* \"#utility.yul\":6282:6284   */\n      0x20\n        /* \"#utility.yul\":6271:6280   */\n      dup4\n        /* \"#utility.yul\":6267:6285   */\n      add\n        /* \"#utility.yul\":6258:6264   */\n      dup5\n        /* \"#utility.yul\":6214:6286   */\n      tag_127\n      jump\t// in\n    tag_213:\n        /* \"#utility.yul\":5961:6293   */\n      swap4\n      swap3\n      pop\n      pop\n      pop\n      jump\t// out\n        /* \"#utility.yul\":6299:6466   */\n    tag_140:\n        /* \"#utility.yul\":6439:6458   */\n      0x596f7520617265206e6f742061646d696e000000000000000000000000000000\n        /* \"#utility.yul\":6435:6436   */\n      0x00\n        /* \"#utility.yul\":6427:6433   */\n      dup3\n        /* \"#utility.yul\":6423:6437   */\n      add\n        /* \"#utility.yul\":6416:6459   */\n      mstore\n        /* \"#utility.yul\":6299:6466   */\n      pop\n      jump\t// out\n        /* \"#utility.yul\":6472:6838   */\n    tag_141:\n        /* \"#utility.yul\":6614:6617   */\n      0x00\n        /* \"#utility.yul\":6635:6702   */\n      tag_216\n        /* \"#utility.yul\":6699:6701   */\n      0x11\n        /* \"#utility.yul\":6694:6697   */\n      dup4\n        /* \"#utility.yul\":6635:6702   */\n      tag_130\n      jump\t// in\n    tag_216:\n        /* \"#utility.yul\":6628:6702   */\n      swap2\n      pop\n        /* \"#utility.yul\":6711:6804   */\n      tag_217\n        /* \"#utility.yul\":6800:6803   */\n      dup3\n        /* \"#utility.yul\":6711:6804   */\n      tag_140\n      jump\t// in\n    tag_217:\n        /* \"#utility.yul\":6829:6831   */\n      0x20\n        /* \"#utility.yul\":6824:6827   */\n      dup3\n        /* \"#utility.yul\":6820:6832   */\n      add\n        /* \"#utility.yul\":6813:6832   */\n      swap1\n      pop\n        /* \"#utility.yul\":6472:6838   */\n      swap2\n      swap1\n      pop\n      jump\t// out\n        /* \"#utility.yul\":6844:7263   */\n    tag_53:\n        /* \"#utility.yul\":7010:7014   */\n      0x00\n        /* \"#utility.yul\":7048:7050   */\n      0x20\n        /* \"#utility.yul\":7037:7046   */\n      dup3\n        /* \"#utility.yul\":7033:7051   */\n      add\n        /* \"#utility.yul\":7025:7051   */\n      swap1\n      pop\n        /* \"#utility.yul\":7097:7106   */\n      dup2\n        /* \"#utility.yul\":7091:7095   */\n      dup2\n        /* \"#utility.yul\":7087:7107   */\n      sub\n        /* \"#utility.yul\":7083:7084   */\n      0x00\n        /* \"#utility.yul\":7072:7081   */\n      dup4\n        /* \"#utility.yul\":7068:7085   */\n      add\n        /* \"#utility.yul\":7061:7108   */\n      mstore\n        /* \"#utility.yul\":7125:7256   */\n      tag_219\n        /* \"#utility.yul\":7251:7255   */\n      dup2\n        /* \"#utility.yul\":7125:7256   */\n      tag_141\n      jump\t// in\n    tag_219:\n        /* \"#utility.yul\":7117:7256   */\n      swap1\n      pop\n        /* \"#utility.yul\":6844:7263   */\n      swap2\n      swap1\n      pop\n      jump\t// out\n        /* \"#utility.yul\":7269:7449   */\n    tag_64:\n        /* \"#utility.yul\":7317:7394   */\n      0x4e487b7100000000000000000000000000000000000000000000000000000000\n        /* \"#utility.yul\":7314:7315   */\n      0x00\n        /* \"#utility.yul\":7307:7395   */\n      mstore\n        /* \"#utility.yul\":7414:7418   */\n      0x32\n        /* \"#utility.yul\":7411:7412   */\n      0x04\n        /* \"#utility.yul\":7404:7419   */\n      mstore\n        /* \"#utility.yul\":7438:7442   */\n      0x24\n        /* \"#utility.yul\":7435:7436   */\n      0x00\n        /* \"#utility.yul\":7428:7443   */\n      revert\n        /* \"#utility.yul\":7455:7646   */\n    tag_67:\n        /* \"#utility.yul\":7495:7498   */\n      0x00\n        /* \"#utility.yul\":7514:7534   */\n      tag_222\n        /* \"#utility.yul\":7532:7533   */\n      dup3\n        /* \"#utility.yul\":7514:7534   */\n      tag_126\n      jump\t// in\n    tag_222:\n        /* \"#utility.yul\":7509:7534   */\n      swap2\n      pop\n        /* \"#utility.yul\":7548:7568   */\n      tag_223\n        /* \"#utility.yul\":7566:7567   */\n      dup4\n        /* \"#utility.yul\":7548:7568   */\n      tag_126\n      jump\t// in\n    tag_223:\n        /* \"#utility.yul\":7543:7568   */\n      swap3\n      pop\n        /* \"#utility.yul\":7591:7592   */\n      dup3\n        /* \"#utility.yul\":7588:7589   */\n      dup3\n        /* \"#utility.yul\":7584:7593   */\n      add\n        /* \"#utility.yul\":7577:7593   */\n      swap1\n      pop\n        /* \"#utility.yul\":7612:7615   */\n      dup1\n        /* \"#utility.yul\":7609:7610   */\n      dup3\n        /* \"#utility.yul\":7606:7616   */\n      gt\n        /* \"#utility.yul\":7603:7639   */\n      iszero\n      tag_224\n      jumpi\n        /* \"#utility.yul\":7619:7637   */\n      tag_225\n      tag_133\n      jump\t// in\n    tag_225:\n        /* \"#utility.yul\":7603:7639   */\n    tag_224:\n        /* \"#utility.yul\":7455:7646   */\n      swap3\n      swap2\n      pop\n      pop\n      jump\t// out\n        /* \"#utility.yul\":7652:7830   */\n    tag_142:\n        /* \"#utility.yul\":7792:7822   */\n      0x56616c7565206d7573742062652067726561746572207468616e203000000000\n        /* \"#utility.yul\":7788:7789   */\n      0x00\n        /* \"#utility.yul\":7780:7786   */\n      dup3\n        /* \"#utility.yul\":7776:7790   */\n      add\n        /* \"#utility.yul\":7769:7823   */\n      mstore\n        /* \"#utility.yul\":7652:7830   */\n      pop\n      jump\t// out\n        /* \"#utility.yul\":7836:8202   */\n    tag_143:\n        /* \"#utility.yul\":7978:7981   */\n      0x00\n        /* \"#utility.yul\":7999:8066   */\n      tag_228\n        /* \"#utility.yul\":8063:8065   */\n      0x1c\n        /* \"#utility.yul\":8058:8061   */\n      dup4\n        /* \"#utility.yul\":7999:8066   */\n      tag_130\n      jump\t// in\n    tag_228:\n        /* \"#utility.yul\":7992:8066   */\n      swap2\n      pop\n        /* \"#utility.yul\":8075:8168   */\n      tag_229\n        /* \"#utility.yul\":8164:8167   */\n      dup3\n        /* \"#utility.yul\":8075:8168   */\n      tag_142\n      jump\t// in\n    tag_229:\n        /* \"#utility.yul\":8193:8195   */\n      0x20\n        /* \"#utility.yul\":8188:8191   */\n      dup3\n        /* \"#utility.yul\":8184:8196   */\n      add\n        /* \"#utility.yul\":8177:8196   */\n      swap1\n      pop\n        /* \"#utility.yul\":7836:8202   */\n      swap2\n      swap1\n      pop\n      jump\t// out\n        /* \"#utility.yul\":8208:8627   */\n    tag_71:\n        /* \"#utility.yul\":8374:8378   */\n      0x00\n        /* \"#utility.yul\":8412:8414   */\n      0x20\n        /* \"#utility.yul\":8401:8410   */\n      dup3\n        /* \"#utility.yul\":8397:8415   */\n      add\n        /* \"#utility.yul\":8389:8415   */\n      swap1\n      pop\n        /* \"#utility.yul\":8461:8470   */\n      dup2\n        /* \"#utility.yul\":8455:8459   */\n      dup2\n        /* \"#utility.yul\":8451:8471   */\n      sub\n        /* \"#utility.yul\":8447:8448   */\n      0x00\n        /* \"#utility.yul\":8436:8445   */\n      dup4\n        /* \"#utility.yul\":8432:8449   */\n      add\n        /* \"#utility.yul\":8425:8472   */\n      mstore\n        /* \"#utility.yul\":8489:8620   */\n      tag_231\n        /* \"#utility.yul\":8615:8619   */\n      dup2\n        /* \"#utility.yul\":8489:8620   */\n      tag_143\n      jump\t// in\n    tag_231:\n        /* \"#utility.yul\":8481:8620   */\n      swap1\n      pop\n        /* \"#utility.yul\":8208:8627   */\n      swap2\n      swap1\n      pop\n      jump\t// out\n        /* \"#utility.yul\":8633:8826   */\n    tag_144:\n        /* \"#utility.yul\":8802:8819   */\n      0x4d61782062616c616e6365206973200000000000000000000000000000000000\n        /* \"#utility.yul\":8797:8800   */\n      dup2\n        /* \"#utility.yul\":8790:8820   */\n      mstore\n        /* \"#utility.yul\":8633:8826   */\n      pop\n      jump\t// out\n        /* \"#utility.yul\":8832:8931   */\n    tag_145:\n        /* \"#utility.yul\":8884:8890   */\n      0x00\n        /* \"#utility.yul\":8918:8923   */\n      dup2\n        /* \"#utility.yul\":8912:8924   */\n      mload\n        /* \"#utility.yul\":8902:8924   */\n      swap1\n      pop\n        /* \"#utility.yul\":8832:8931   */\n      swap2\n      swap1\n      pop\n      jump\t// out\n        /* \"#utility.yul\":8937:9085   */\n    tag_146:\n        /* \"#utility.yul\":9039:9050   */\n      0x00\n        /* \"#utility.yul\":9076:9079   */\n      dup2\n        /* \"#utility.yul\":9061:9079   */\n      swap1\n      pop\n        /* \"#utility.yul\":8937:9085   */\n      swap3\n      swap2\n      pop\n      pop\n      jump\t// out\n        /* \"#utility.yul\":9091:9337   */\n    tag_147:\n        /* \"#utility.yul\":9172:9173   */\n      0x00\n        /* \"#utility.yul\":9182:9295   */\n    tag_236:\n        /* \"#utility.yul\":9196:9202   */\n      dup4\n        /* \"#utility.yul\":9193:9194   */\n      dup2\n        /* \"#utility.yul\":9190:9203   */\n      lt\n        /* \"#utility.yul\":9182:9295   */\n      iszero\n      tag_238\n      jumpi\n        /* \"#utility.yul\":9281:9282   */\n      dup1\n        /* \"#utility.yul\":9276:9279   */\n      dup3\n        /* \"#utility.yul\":9272:9283   */\n      add\n        /* \"#utility.yul\":9266:9284   */\n      mload\n        /* \"#utility.yul\":9262:9263   */\n      dup2\n        /* \"#utility.yul\":9257:9260   */\n      dup5\n        /* \"#utility.yul\":9253:9264   */\n      add\n        /* \"#utility.yul\":9246:9285   */\n      mstore\n        /* \"#utility.yul\":9218:9220   */\n      0x20\n        /* \"#utility.yul\":9215:9216   */\n      dup2\n        /* \"#utility.yul\":9211:9221   */\n      add\n        /* \"#utility.yul\":9206:9221   */\n      swap1\n      pop\n        /* \"#utility.yul\":9182:9295   */\n      jump(tag_236)\n    tag_238:\n        /* \"#utility.yul\":9329:9330   */\n      0x00\n        /* \"#utility.yul\":9320:9326   */\n      dup5\n        /* \"#utility.yul\":9315:9318   */\n      dup5\n        /* \"#utility.yul\":9311:9327   */\n      add\n        /* \"#utility.yul\":9304:9331   */\n      mstore\n        /* \"#utility.yul\":9153:9337   */\n      pop\n        /* \"#utility.yul\":9091:9337   */\n      pop\n      pop\n      pop\n      jump\t// out\n        /* \"#utility.yul\":9343:9733   */\n    tag_148:\n        /* \"#utility.yul\":9449:9452   */\n      0x00\n        /* \"#utility.yul\":9477:9516   */\n      tag_240\n        /* \"#utility.yul\":9510:9515   */\n      dup3\n        /* \"#utility.yul\":9477:9516   */\n      tag_145\n      jump\t// in\n    tag_240:\n        /* \"#utility.yul\":9532:9621   */\n      tag_241\n        /* \"#utility.yul\":9614:9620   */\n      dup2\n        /* \"#utility.yul\":9609:9612   */\n      dup6\n        /* \"#utility.yul\":9532:9621   */\n      tag_146\n      jump\t// in\n    tag_241:\n        /* \"#utility.yul\":9525:9621   */\n      swap4\n      pop\n        /* \"#utility.yul\":9630:9695   */\n      tag_242\n        /* \"#utility.yul\":9688:9694   */\n      dup2\n        /* \"#utility.yul\":9683:9686   */\n      dup6\n        /* \"#utility.yul\":9676:9680   */\n      0x20\n        /* \"#utility.yul\":9669:9674   */\n      dup7\n        /* \"#utility.yul\":9665:9681   */\n      add\n        /* \"#utility.yul\":9630:9695   */\n      tag_147\n      jump\t// in\n    tag_242:\n        /* \"#utility.yul\":9720:9726   */\n      dup1\n        /* \"#utility.yul\":9715:9718   */\n      dup5\n        /* \"#utility.yul\":9711:9727   */\n      add\n        /* \"#utility.yul\":9704:9727   */\n      swap2\n      pop\n        /* \"#utility.yul\":9453:9733   */\n      pop\n        /* \"#utility.yul\":9343:9733   */\n      swap3\n      swap2\n      pop\n      pop\n      jump\t// out\n        /* \"#utility.yul\":9739:9959   */\n    tag_149:\n        /* \"#utility.yul\":9879:9913   */\n      0x20616e6420796f757220746f74616c2062616c616e636520776f756c64206265\n        /* \"#utility.yul\":9875:9876   */\n      0x00\n        /* \"#utility.yul\":9867:9873   */\n      dup3\n        /* \"#utility.yul\":9863:9877   */\n      add\n        /* \"#utility.yul\":9856:9914   */\n      mstore\n        /* \"#utility.yul\":9948:9951   */\n      0x2000000000000000000000000000000000000000000000000000000000000000\n        /* \"#utility.yul\":9943:9945   */\n      0x20\n        /* \"#utility.yul\":9935:9941   */\n      dup3\n        /* \"#utility.yul\":9931:9946   */\n      add\n        /* \"#utility.yul\":9924:9952   */\n      mstore\n        /* \"#utility.yul\":9739:9959   */\n      pop\n      jump\t// out\n        /* \"#utility.yul\":9965:10367   */\n    tag_150:\n        /* \"#utility.yul\":10125:10128   */\n      0x00\n        /* \"#utility.yul\":10146:10231   */\n      tag_245\n        /* \"#utility.yul\":10228:10230   */\n      0x21\n        /* \"#utility.yul\":10223:10226   */\n      dup4\n        /* \"#utility.yul\":10146:10231   */\n      tag_146\n      jump\t// in\n    tag_245:\n        /* \"#utility.yul\":10139:10231   */\n      swap2\n      pop\n        /* \"#utility.yul\":10240:10333   */\n      tag_246\n        /* \"#utility.yul\":10329:10332   */\n      dup3\n        /* \"#utility.yul\":10240:10333   */\n      tag_149\n      jump\t// in\n    tag_246:\n        /* \"#utility.yul\":10358:10360   */\n      0x21\n        /* \"#utility.yul\":10353:10356   */\n      dup3\n        /* \"#utility.yul\":10349:10361   */\n      add\n        /* \"#utility.yul\":10342:10361   */\n      swap1\n      pop\n        /* \"#utility.yul\":9965:10367   */\n      swap2\n      swap1\n      pop\n      jump\t// out\n        /* \"#utility.yul\":10373:11341   */\n    tag_78:\n        /* \"#utility.yul\":10745:10748   */\n      0x00\n        /* \"#utility.yul\":10760:10898   */\n      tag_248\n        /* \"#utility.yul\":10894:10897   */\n      dup3\n        /* \"#utility.yul\":10760:10898   */\n      tag_144\n      jump\t// in\n    tag_248:\n        /* \"#utility.yul\":10923:10925   */\n      0x0f\n        /* \"#utility.yul\":10918:10921   */\n      dup3\n        /* \"#utility.yul\":10914:10926   */\n      add\n        /* \"#utility.yul\":10907:10926   */\n      swap2\n      pop\n        /* \"#utility.yul\":10943:11038   */\n      tag_249\n        /* \"#utility.yul\":11034:11037   */\n      dup3\n        /* \"#utility.yul\":11025:11031   */\n      dup6\n        /* \"#utility.yul\":10943:11038   */\n      tag_148\n      jump\t// in\n    tag_249:\n        /* \"#utility.yul\":10936:11038   */\n      swap2\n      pop\n        /* \"#utility.yul\":11055:11203   */\n      tag_250\n        /* \"#utility.yul\":11199:11202   */\n      dup3\n        /* \"#utility.yul\":11055:11203   */\n      tag_150\n      jump\t// in\n    tag_250:\n        /* \"#utility.yul\":11048:11203   */\n      swap2\n      pop\n        /* \"#utility.yul\":11220:11315   */\n      tag_251\n        /* \"#utility.yul\":11311:11314   */\n      dup3\n        /* \"#utility.yul\":11302:11308   */\n      dup5\n        /* \"#utility.yul\":11220:11315   */\n      tag_148\n      jump\t// in\n    tag_251:\n        /* \"#utility.yul\":11213:11315   */\n      swap2\n      pop\n        /* \"#utility.yul\":11332:11335   */\n      dup2\n        /* \"#utility.yul\":11325:11335   */\n      swap1\n      pop\n        /* \"#utility.yul\":10373:11341   */\n      swap4\n      swap3\n      pop\n      pop\n      pop\n      jump\t// out\n        /* \"#utility.yul\":11347:11449   */\n    tag_151:\n        /* \"#utility.yul\":11388:11394   */\n      0x00\n        /* \"#utility.yul\":11439:11441   */\n      0x1f\n        /* \"#utility.yul\":11435:11442   */\n      not\n        /* \"#utility.yul\":11430:11432   */\n      0x1f\n        /* \"#utility.yul\":11423:11428   */\n      dup4\n        /* \"#utility.yul\":11419:11433   */\n      add\n        /* \"#utility.yul\":11415:11443   */\n      and\n        /* \"#utility.yul\":11405:11443   */\n      swap1\n      pop\n        /* \"#utility.yul\":11347:11449   */\n      swap2\n      swap1\n      pop\n      jump\t// out\n        /* \"#utility.yul\":11455:11832   */\n    tag_152:\n        /* \"#utility.yul\":11543:11546   */\n      0x00\n        /* \"#utility.yul\":11571:11610   */\n      tag_254\n        /* \"#utility.yul\":11604:11609   */\n      dup3\n        /* \"#utility.yul\":11571:11610   */\n      tag_145\n      jump\t// in\n    tag_254:\n        /* \"#utility.yul\":11626:11697   */\n      tag_255\n        /* \"#utility.yul\":11690:11696   */\n      dup2\n        /* \"#utility.yul\":11685:11688   */\n      dup6\n        /* \"#utility.yul\":11626:11697   */\n      tag_130\n      jump\t// in\n    tag_255:\n        /* \"#utility.yul\":11619:11697   */\n      swap4\n      pop\n        /* \"#utility.yul\":11706:11771   */\n      tag_256\n        /* \"#utility.yul\":11764:11770   */\n      dup2\n        /* \"#utility.yul\":11759:11762   */\n      dup6\n        /* \"#utility.yul\":11752:11756   */\n      0x20\n        /* \"#utility.yul\":11745:11750   */\n      dup7\n        /* \"#utility.yul\":11741:11757   */\n      add\n        /* \"#utility.yul\":11706:11771   */\n      tag_147\n      jump\t// in\n    tag_256:\n        /* \"#utility.yul\":11796:11825   */\n      tag_257\n        /* \"#utility.yul\":11818:11824   */\n      dup2\n        /* \"#utility.yul\":11796:11825   */\n      tag_151\n      jump\t// in\n    tag_257:\n        /* \"#utility.yul\":11791:11794   */\n      dup5\n        /* \"#utility.yul\":11787:11826   */\n      add\n        /* \"#utility.yul\":11780:11826   */\n      swap2\n      pop\n        /* \"#utility.yul\":11547:11832   */\n      pop\n        /* \"#utility.yul\":11455:11832   */\n      swap3\n      swap2\n      pop\n      pop\n      jump\t// out\n        /* \"#utility.yul\":11838:12151   */\n    tag_81:\n        /* \"#utility.yul\":11951:11955   */\n      0x00\n        /* \"#utility.yul\":11989:11991   */\n      0x20\n        /* \"#utility.yul\":11978:11987   */\n      dup3\n        /* \"#utility.yul\":11974:11992   */\n      add\n        /* \"#utility.yul\":11966:11992   */\n      swap1\n      pop\n        /* \"#utility.yul\":12038:12047   */\n      dup2\n        /* \"#utility.yul\":12032:12036   */\n      dup2\n        /* \"#utility.yul\":12028:12048   */\n      sub\n        /* \"#utility.yul\":12024:12025   */\n      0x00\n        /* \"#utility.yul\":12013:12022   */\n      dup4\n        /* \"#utility.yul\":12009:12026   */\n      add\n        /* \"#utility.yul\":12002:12049   */\n      mstore\n        /* \"#utility.yul\":12066:12144   */\n      tag_259\n        /* \"#utility.yul\":12139:12143   */\n      dup2\n        /* \"#utility.yul\":12130:12136   */\n      dup5\n        /* \"#utility.yul\":12066:12144   */\n      tag_152\n      jump\t// in\n    tag_259:\n        /* \"#utility.yul\":12058:12144   */\n      swap1\n      pop\n        /* \"#utility.yul\":11838:12151   */\n      swap3\n      swap2\n      pop\n      pop\n      jump\t// out\n        /* \"#utility.yul\":12157:12337   */\n    tag_91:\n        /* \"#utility.yul\":12205:12282   */\n      0x4e487b7100000000000000000000000000000000000000000000000000000000\n        /* \"#utility.yul\":12202:12203   */\n      0x00\n        /* \"#utility.yul\":12195:12283   */\n      mstore\n        /* \"#utility.yul\":12302:12306   */\n      0x41\n        /* \"#utility.yul\":12299:12300   */\n      0x04\n        /* \"#utility.yul\":12292:12307   */\n      mstore\n        /* \"#utility.yul\":12326:12330   */\n      0x24\n        /* \"#utility.yul\":12323:12324   */\n      0x00\n        /* \"#utility.yul\":12316:12331   */\n      revert\n        /* \"#utility.yul\":12343:12523   */\n    tag_97:\n        /* \"#utility.yul\":12391:12468   */\n      0x4e487b7100000000000000000000000000000000000000000000000000000000\n        /* \"#utility.yul\":12388:12389   */\n      0x00\n        /* \"#utility.yul\":12381:12469   */\n      mstore\n        /* \"#utility.yul\":12488:12492   */\n      0x12\n        /* \"#utility.yul\":12485:12486   */\n      0x04\n        /* \"#utility.yul\":12478:12493   */\n      mstore\n        /* \"#utility.yul\":12512:12516   */\n      0x24\n        /* \"#utility.yul\":12509:12510   */\n      0x00\n        /* \"#utility.yul\":12502:12517   */\n      revert\n\n    auxdata: 0xa264697066735822122049b26532126f311815e4a00fc88fa7b4d3202af8c59cc36b0fa9057d1305135764736f6c63430008180033\n}\n",
				"bytecode": {
					"linkReferences": {},
					"object": "608060405234801562000010575f80fd5b50604051620011a7380380620011a7833981810160405281019062000036919062000121565b815f819055508060015f6101000a81548173ffffffffffffffffffffffffffffffffffffffff021916908373ffffffffffffffffffffffffffffffffffffffff160217905550505062000166565b5f80fd5b5f819050919050565b6200009c8162000088565b8114620000a7575f80fd5b50565b5f81519050620000ba8162000091565b92915050565b5f73ffffffffffffffffffffffffffffffffffffffff82169050919050565b5f620000eb82620000c0565b9050919050565b620000fd81620000df565b811462000108575f80fd5b50565b5f815190506200011b81620000f2565b92915050565b5f80604083850312156200013a576200013962000084565b5b5f6200014985828601620000aa565b92505060206200015c858286016200010b565b9150509250929050565b61103380620001745f395ff3fe608060405260043610610054575f3560e01c80630103c92b146100585780633bed33ce146100945780634310b578146100bc57806373ad468a146100e45780637b83b50b1461010e57806398ea5fca14610138575b5f80fd5b348015610063575f80fd5b5061007e60048036038101906100799190610a3e565b610142565b60405161008b9190610a81565b60405180910390f35b34801561009f575f80fd5b506100ba60048036038101906100b59190610ac4565b610157565b005b3480156100c7575f80fd5b506100e260048036038101906100dd9190610ac4565b61030f565b005b3480156100ef575f80fd5b506100f86103a7565b6040516101059190610a81565b60405180910390f35b348015610119575f80fd5b506101226103ac565b60405161012f9190610a81565b60405180910390f35b6101406104e7565b005b6003602052805f5260405f205f915090505481565b8060035f3373ffffffffffffffffffffffffffffffffffffffff1673ffffffffffffffffffffffffffffffffffffffff1681526020019081526020015f205410156101d7576040517f08c379a00000000000000000000000000000000000000000000000000000000081526004016101ce90610b6f565b60405180910390fd5b8060035f3373ffffffffffffffffffffffffffffffffffffffff1673ffffffffffffffffffffffffffffffffffffffff1681526020019081526020015f205f8282546102239190610bba565b925050819055505f3373ffffffffffffffffffffffffffffffffffffffff168260405161024f90610c1a565b5f6040518083038185875af1925050503d805f8114610289576040519150601f19603f3d011682016040523d82523d5f602084013e61028e565b606091505b50509050806102d2576040517f08c379a00000000000000000000000000000000000000000000000000000000081526004016102c990610c78565b60405180910390fd5b7fb9172670964941c36cd23feeac2ba9283c2d0c7ec8c5eb407d079234ae17a4443383604051610303929190610ca5565b60405180910390a15050565b60015f9054906101000a900473ffffffffffffffffffffffffffffffffffffffff1673ffffffffffffffffffffffffffffffffffffffff163373ffffffffffffffffffffffffffffffffffffffff161461039e576040517f08c379a000000000000000000000000000000000000000000000000000000000815260040161039590610d16565b60405180910390fd5b805f8190555050565b5f5481565b5f60015f9054906101000a900473ffffffffffffffffffffffffffffffffffffffff1673ffffffffffffffffffffffffffffffffffffffff163373ffffffffffffffffffffffffffffffffffffffff161461043c576040517f08c379a000000000000000000000000000000000000000000000000000000000815260040161043390610d16565b60405180910390fd5b5f805b6002805490508110156104df5760035f6002838154811061046357610462610d34565b5b905f5260205f20015f9054906101000a900473ffffffffffffffffffffffffffffffffffffffff1673ffffffffffffffffffffffffffffffffffffffff1673ffffffffffffffffffffffffffffffffffffffff1681526020019081526020015f2054826104d09190610d61565b9150808060010191505061043f565b508091505090565b5f3411610529576040517f08c379a000000000000000000000000000000000000000000000000000000000815260040161052090610dde565b60405180910390fd5b5f543460035f3373ffffffffffffffffffffffffffffffffffffffff1673ffffffffffffffffffffffffffffffffffffffff1681526020019081526020015f20546105749190610d61565b11156105805f546107c5565b6105d13460035f3373ffffffffffffffffffffffffffffffffffffffff1673ffffffffffffffffffffffffffffffffffffffff1681526020019081526020015f20546105cc9190610d61565b6107c5565b6040516020016105e2929190610efe565b60405160208183030381529060405290610632576040517f08c379a00000000000000000000000000000000000000000000000000000000081526004016106299190610f83565b60405180910390fd5b503460035f3373ffffffffffffffffffffffffffffffffffffffff1673ffffffffffffffffffffffffffffffffffffffff1681526020019081526020015f205f82825461067f9190610d61565b9250508190555060045f3373ffffffffffffffffffffffffffffffffffffffff1673ffffffffffffffffffffffffffffffffffffffff1681526020019081526020015f205f9054906101000a900460ff1661078a57600233908060018154018082558091505060019003905f5260205f20015f9091909190916101000a81548173ffffffffffffffffffffffffffffffffffffffff021916908373ffffffffffffffffffffffffffffffffffffffff160217905550600160045f3373ffffffffffffffffffffffffffffffffffffffff1673ffffffffffffffffffffffffffffffffffffffff1681526020019081526020015f205f6101000a81548160ff0219169083151502179055505b7fc77b4f05f46b0c2e62a43b7f33b429a815f5e8ee3c9a2e6b0e0000816ff43e7633346040516107bb929190610ca5565b60405180910390a1565b60605f60016107d38461088f565b0190505f8167ffffffffffffffff8111156107f1576107f0610fa3565b5b6040519080825280601f01601f1916602001820160405280156108235781602001600182028036833780820191505090505b5090505f82602083010190505b600115610884578080600190039150507f3031323334353637383961626364656600000000000000000000000000000000600a86061a8153600a858161087957610878610fd0565b5b0494505f8503610830575b819350505050919050565b5f805f90507a184f03e93ff9f4daa797ed6e38ed64bf6a1f01000000000000000083106108eb577a184f03e93ff9f4daa797ed6e38ed64bf6a1f01000000000000000083816108e1576108e0610fd0565b5b0492506040810190505b6d04ee2d6d415b85acef81000000008310610928576d04ee2d6d415b85acef8100000000838161091e5761091d610fd0565b5b0492506020810190505b662386f26fc10000831061095757662386f26fc10000838161094d5761094c610fd0565b5b0492506010810190505b6305f5e1008310610980576305f5e100838161097657610975610fd0565b5b0492506008810190505b61271083106109a557612710838161099b5761099a610fd0565b5b0492506004810190505b606483106109c857606483816109be576109bd610fd0565b5b0492506002810190505b600a83106109d7576001810190505b80915050919050565b5f80fd5b5f73ffffffffffffffffffffffffffffffffffffffff82169050919050565b5f610a0d826109e4565b9050919050565b610a1d81610a03565b8114610a27575f80fd5b50565b5f81359050610a3881610a14565b92915050565b5f60208284031215610a5357610a526109e0565b5b5f610a6084828501610a2a565b91505092915050565b5f819050919050565b610a7b81610a69565b82525050565b5f602082019050610a945f830184610a72565b92915050565b610aa381610a69565b8114610aad575f80fd5b50565b5f81359050610abe81610a9a565b92915050565b5f60208284031215610ad957610ad86109e0565b5b5f610ae684828501610ab0565b91505092915050565b5f82825260208201905092915050565b7f42616c616e6365206973206c6f776572207468616e20726571756573746564205f8201527f76616c7565000000000000000000000000000000000000000000000000000000602082015250565b5f610b59602583610aef565b9150610b6482610aff565b604082019050919050565b5f6020820190508181035f830152610b8681610b4d565b9050919050565b7f4e487b71000000000000000000000000000000000000000000000000000000005f52601160045260245ffd5b5f610bc482610a69565b9150610bcf83610a69565b9250828203905081811115610be757610be6610b8d565b5b92915050565b5f81905092915050565b50565b5f610c055f83610bed565b9150610c1082610bf7565b5f82019050919050565b5f610c2482610bfa565b9150819050919050565b7f5472616e73666572206661696c656400000000000000000000000000000000005f82015250565b5f610c62600f83610aef565b9150610c6d82610c2e565b602082019050919050565b5f6020820190508181035f830152610c8f81610c56565b9050919050565b610c9f81610a03565b82525050565b5f604082019050610cb85f830185610c96565b610cc56020830184610a72565b9392505050565b7f596f7520617265206e6f742061646d696e0000000000000000000000000000005f82015250565b5f610d00601183610aef565b9150610d0b82610ccc565b602082019050919050565b5f6020820190508181035f830152610d2d81610cf4565b9050919050565b7f4e487b71000000000000000000000000000000000000000000000000000000005f52603260045260245ffd5b5f610d6b82610a69565b9150610d7683610a69565b9250828201905080821115610d8e57610d8d610b8d565b5b92915050565b7f56616c7565206d7573742062652067726561746572207468616e2030000000005f82015250565b5f610dc8601c83610aef565b9150610dd382610d94565b602082019050919050565b5f6020820190508181035f830152610df581610dbc565b9050919050565b7f4d61782062616c616e6365206973200000000000000000000000000000000000815250565b5f81519050919050565b5f81905092915050565b5f5b83811015610e53578082015181840152602081019050610e38565b5f8484015250505050565b5f610e6882610e22565b610e728185610e2c565b9350610e82818560208601610e36565b80840191505092915050565b7f20616e6420796f757220746f74616c2062616c616e636520776f756c642062655f8201527f2000000000000000000000000000000000000000000000000000000000000000602082015250565b5f610ee8602183610e2c565b9150610ef382610e8e565b602182019050919050565b5f610f0882610dfc565b600f82019150610f188285610e5e565b9150610f2382610edc565b9150610f2f8284610e5e565b91508190509392505050565b5f601f19601f8301169050919050565b5f610f5582610e22565b610f5f8185610aef565b9350610f6f818560208601610e36565b610f7881610f3b565b840191505092915050565b5f6020820190508181035f830152610f9b8184610f4b565b905092915050565b7f4e487b71000000000000000000000000000000000000000000000000000000005f52604160045260245ffd5b7f4e487b71000000000000000000000000000000000000000000000000000000005f52601260045260245ffdfea264697066735822122049b26532126f311815e4a00fc88fa7b4d3202af8c59cc36b0fa9057d1305135764736f6c63430008180033",
					"opcodes": "PUSH1 0x80 PUSH1 0x40 MSTORE CALLVALUE DUP1 ISZERO PUSH3 0x10 JUMPI PUSH0 DUP1 REVERT JUMPDEST POP PUSH1 0x40 MLOAD PUSH3 0x11A7 CODESIZE SUB DUP1 PUSH3 0x11A7 DUP4 CODECOPY DUP2 DUP2 ADD PUSH1 0x40 MSTORE DUP2 ADD SWAP1 PUSH3 0x36 SWAP2 SWAP1 PUSH3 0x121 JUMP JUMPDEST DUP2 PUSH0 DUP2 SWAP1 SSTORE POP DUP1 PUSH1 0x1 PUSH0 PUSH2 0x100 EXP DUP2 SLOAD DUP2 PUSH20 0xFFFFFFFFFFFFFFFFFFFFFFFFFFFFFFFFFFFFFFFF MUL NOT AND SWAP1 DUP4 PUSH20 0xFFFFFFFFFFFFFFFFFFFFFFFFFFFFFFFFFFFFFFFF AND MUL OR SWAP1 SSTORE POP POP POP PUSH3 0x166 JUMP JUMPDEST PUSH0 DUP1 REVERT JUMPDEST PUSH0 DUP2 SWAP1 POP SWAP2 SWAP1 POP JUMP JUMPDEST PUSH3 0x9C DUP2 PUSH3 0x88 JUMP JUMPDEST DUP2 EQ PUSH3 0xA7 JUMPI PUSH0 DUP1 REVERT JUMPDEST POP JUMP JUMPDEST PUSH0 DUP2 MLOAD SWAP1 POP PUSH3 0xBA DUP2 PUSH3 0x91 JUMP JUMPDEST SWAP3 SWAP2 POP POP JUMP JUMPDEST PUSH0 PUSH20 0xFFFFFFFFFFFFFFFFFFFFFFFFFFFFFFFFFFFFFFFF DUP3 AND SWAP1 POP SWAP2 SWAP1 POP JUMP JUMPDEST PUSH0 PUSH3 0xEB DUP3 PUSH3 0xC0 JUMP JUMPDEST SWAP1 POP SWAP2 SWAP1 POP JUMP JUMPDEST PUSH3 0xFD DUP2 PUSH3 0xDF JUMP JUMPDEST DUP2 EQ PUSH3 0x108 JUMPI PUSH0 DUP1 REVERT JUMPDEST POP JUMP JUMPDEST PUSH0 DUP2 MLOAD SWAP1 POP PUSH3 0x11B DUP2 PUSH3 0xF2 JUMP JUMPDEST SWAP3 SWAP2 POP POP JUMP JUMPDEST PUSH0 DUP1 PUSH1 0x40 DUP4 DUP6 SUB SLT ISZERO PUSH3 0x13A JUMPI PUSH3 0x139 PUSH3 0x84 JUMP JUMPDEST JUMPDEST PUSH0 PUSH3 0x149 DUP6 DUP3 DUP7 ADD PUSH3 0xAA JUMP JUMPDEST SWAP3 POP POP PUSH1 0x20 PUSH3 0x15C DUP6 DUP3 DUP7 ADD PUSH3 0x10B JUMP JUMPDEST SWAP2 POP POP SWAP3 POP SWAP3 SWAP1 POP JUMP JUMPDEST PUSH2 0x1033 DUP1 PUSH3 0x174 PUSH0 CODECOPY PUSH0 RETURN INVALID PUSH1 0x80 PUSH1 0x40 MSTORE PUSH1 0x4 CALLDATASIZE LT PUSH2 0x54 JUMPI PUSH0 CALLDATALOAD PUSH1 0xE0 SHR DUP1 PUSH4 0x103C92B EQ PUSH2 0x58 JUMPI DUP1 PUSH4 0x3BED33CE EQ PUSH2 0x94 JUMPI DUP1 PUSH4 0x4310B578 EQ PUSH2 0xBC JUMPI DUP1 PUSH4 0x73AD468A EQ PUSH2 0xE4 JUMPI DUP1 PUSH4 0x7B83B50B EQ PUSH2 0x10E JUMPI DUP1 PUSH4 0x98EA5FCA EQ PUSH2 0x138 JUMPI JUMPDEST PUSH0 DUP1 REVERT JUMPDEST CALLVALUE DUP1 ISZERO PUSH2 0x63 JUMPI PUSH0 DUP1 REVERT JUMPDEST POP PUSH2 0x7E PUSH1 0x4 DUP1 CALLDATASIZE SUB DUP2 ADD SWAP1 PUSH2 0x79 SWAP2 SWAP1 PUSH2 0xA3E JUMP JUMPDEST PUSH2 0x142 JUMP JUMPDEST PUSH1 0x40 MLOAD PUSH2 0x8B SWAP2 SWAP1 PUSH2 0xA81 JUMP JUMPDEST PUSH1 0x40 MLOAD DUP1 SWAP2 SUB SWAP1 RETURN JUMPDEST CALLVALUE DUP1 ISZERO PUSH2 0x9F JUMPI PUSH0 DUP1 REVERT JUMPDEST POP PUSH2 0xBA PUSH1 0x4 DUP1 CALLDATASIZE SUB DUP2 ADD SWAP1 PUSH2 0xB5 SWAP2 SWAP1 PUSH2 0xAC4 JUMP JUMPDEST PUSH2 0x157 JUMP JUMPDEST STOP JUMPDEST CALLVALUE DUP1 ISZERO PUSH2 0xC7 JUMPI PUSH0 DUP1 REVERT JUMPDEST POP PUSH2 0xE2 PUSH1 0x4 DUP1 CALLDATASIZE SUB DUP2 ADD SWAP1 PUSH2 0xDD SWAP2 SWAP1 PUSH2 0xAC4 JUMP JUMPDEST PUSH2 0x30F JUMP JUMPDEST STOP JUMPDEST CALLVALUE DUP1 ISZERO PUSH2 0xEF JUMPI PUSH0 DUP1 REVERT JUMPDEST POP PUSH2 0xF8 PUSH2 0x3A7 JUMP JUMPDEST PUSH1 0x40 MLOAD PUSH2 0x105 SWAP2 SWAP1 PUSH2 0xA81 JUMP JUMPDEST PUSH1 0x40 MLOAD DUP1 SWAP2 SUB SWAP1 RETURN JUMPDEST CALLVALUE DUP1 ISZERO PUSH2 0x119 JUMPI PUSH0 DUP1 REVERT JUMPDEST POP PUSH2 0x122 PUSH2 0x3AC JUMP JUMPDEST PUSH1 0x40 MLOAD PUSH2 0x12F SWAP2 SWAP1 PUSH2 0xA81 JUMP JUMPDEST PUSH1 0x40 MLOAD DUP1 SWAP2 SUB SWAP1 RETURN JUMPDEST PUSH2 0x140 PUSH2 0x4E7 JUMP JUMPDEST STOP JUMPDEST PUSH1 0x3 PUSH1 0x20 MSTORE DUP1 PUSH0 MSTORE PUSH1 0x40 PUSH0 KECCAK256 PUSH0 SWAP2 POP SWAP1 POP SLOAD DUP2 JUMP JUMPDEST DUP1 PUSH1 0x3 PUSH0 CALLER PUSH20 0xFFFFFFFFFFFFFFFFFFFFFFFFFFFFFFFFFFFFFFFF AND PUSH20 0xFFFFFFFFFFFFFFFFFFFFFFFFFFFFFFFFFFFFFFFF AND DUP2 MSTORE PUSH1 0x20 ADD SWAP1 DUP2 MSTORE PUSH1 0x20 ADD PUSH0 KECCAK256 SLOAD LT ISZERO PUSH2 0x1D7 JUMPI PUSH1 0x40 MLOAD PUSH32 0x8C379A000000000000000000000000000000000000000000000000000000000 DUP2 MSTORE PUSH1 0x4 ADD PUSH2 0x1CE SWAP1 PUSH2 0xB6F JUMP JUMPDEST PUSH1 0x40 MLOAD DUP1 SWAP2 SUB SWAP1 REVERT JUMPDEST DUP1 PUSH1 0x3 PUSH0 CALLER PUSH20 0xFFFFFFFFFFFFFFFFFFFFFFFFFFFFFFFFFFFFFFFF AND PUSH20 0xFFFFFFFFFFFFFFFFFFFFFFFFFFFFFFFFFFFFFFFF AND DUP2 MSTORE PUSH1 0x20 ADD SWAP1 DUP2 MSTORE PUSH1 0x20 ADD PUSH0 KECCAK256 PUSH0 DUP3 DUP3 SLOAD PUSH2 0x223 SWAP2 SWAP1 PUSH2 0xBBA JUMP JUMPDEST SWAP3 POP POP DUP2 SWAP1 SSTORE POP PUSH0 CALLER PUSH20 0xFFFFFFFFFFFFFFFFFFFFFFFFFFFFFFFFFFFFFFFF AND DUP3 PUSH1 0x40 MLOAD PUSH2 0x24F SWAP1 PUSH2 0xC1A JUMP JUMPDEST PUSH0 PUSH1 0x40 MLOAD DUP1 DUP4 SUB DUP2 DUP6 DUP8 GAS CALL SWAP3 POP POP POP RETURNDATASIZE DUP1 PUSH0 DUP2 EQ PUSH2 0x289 JUMPI PUSH1 0x40 MLOAD SWAP2 POP PUSH1 0x1F NOT PUSH1 0x3F RETURNDATASIZE ADD AND DUP3 ADD PUSH1 0x40 MSTORE RETURNDATASIZE DUP3 MSTORE RETURNDATASIZE PUSH0 PUSH1 0x20 DUP5 ADD RETURNDATACOPY PUSH2 0x28E JUMP JUMPDEST PUSH1 0x60 SWAP2 POP JUMPDEST POP POP SWAP1 POP DUP1 PUSH2 0x2D2 JUMPI PUSH1 0x40 MLOAD PUSH32 0x8C379A000000000000000000000000000000000000000000000000000000000 DUP2 MSTORE PUSH1 0x4 ADD PUSH2 0x2C9 SWAP1 PUSH2 0xC78 JUMP JUMPDEST PUSH1 0x40 MLOAD DUP1 SWAP2 SUB SWAP1 REVERT JUMPDEST PUSH32 0xB9172670964941C36CD23FEEAC2BA9283C2D0C7EC8C5EB407D079234AE17A444 CALLER DUP4 PUSH1 0x40 MLOAD PUSH2 0x303 SWAP3 SWAP2 SWAP1 PUSH2 0xCA5 JUMP JUMPDEST PUSH1 0x40 MLOAD DUP1 SWAP2 SUB SWAP1 LOG1 POP POP JUMP JUMPDEST PUSH1 0x1 PUSH0 SWAP1 SLOAD SWAP1 PUSH2 0x100 EXP SWAP1 DIV PUSH20 0xFFFFFFFFFFFFFFFFFFFFFFFFFFFFFFFFFFFFFFFF AND PUSH20 0xFFFFFFFFFFFFFFFFFFFFFFFFFFFFFFFFFFFFFFFF AND CALLER PUSH20 0xFFFFFFFFFFFFFFFFFFFFFFFFFFFFFFFFFFFFFFFF AND EQ PUSH2 0x39E JUMPI PUSH1 0x40 MLOAD PUSH32 0x8C379A000000000000000000000000000000000000000000000000000000000 DUP2 MSTORE PUSH1 0x4 ADD PUSH2 0x395 SWAP1 PUSH2 0xD16 JUMP JUMPDEST PUSH1 0x40 MLOAD DUP1 SWAP2 SUB SWAP1 REVERT JUMPDEST DUP1 PUSH0 DUP2 SWAP1 SSTORE POP POP JUMP JUMPDEST PUSH0 SLOAD DUP2 JUMP JUMPDEST PUSH0 PUSH1 0x1 PUSH0 SWAP1 SLOAD SWAP1 PUSH2 0x100 EXP SWAP1 DIV PUSH20 0xFFFFFFFFFFFFFFFFFFFFFFFFFFFFFFFFFFFFFFFF AND PUSH20 0xFFFFFFFFFFFFFFFFFFFFFFFFFFFFFFFFFFFFFFFF AND CALLER PUSH20 0xFFFFFFFFFFFFFFFFFFFFFFFFFFFFFFFFFFFFFFFF AND EQ PUSH2 0x43C JUMPI PUSH1 0x40 MLOAD PUSH32 0x8C379A000000000000000000000000000000000000000000000000000000000 DUP2 MSTORE PUSH1 0x4 ADD PUSH2 0x433 SWAP1 PUSH2 0xD16 JUMP JUMPDEST PUSH1 0x40 MLOAD DUP1 SWAP2 SUB SWAP1 REVERT JUMPDEST PUSH0 DUP1 JUMPDEST PUSH1 0x2 DUP1 SLOAD SWAP1 POP DUP2 LT ISZERO PUSH2 0x4DF JUMPI PUSH1 0x3 PUSH0 PUSH1 0x2 DUP4 DUP2 SLOAD DUP2 LT PUSH2 0x463 JUMPI PUSH2 0x462 PUSH2 0xD34 JUMP JUMPDEST JUMPDEST SWAP1 PUSH0 MSTORE PUSH1 0x20 PUSH0 KECCAK256 ADD PUSH0 SWAP1 SLOAD SWAP1 PUSH2 0x100 EXP SWAP1 DIV PUSH20 0xFFFFFFFFFFFFFFFFFFFFFFFFFFFFFFFFFFFFFFFF AND PUSH20 0xFFFFFFFFFFFFFFFFFFFFFFFFFFFFFFFFFFFFFFFF AND PUSH20 0xFFFFFFFFFFFFFFFFFFFFFFFFFFFFFFFFFFFFFFFF AND DUP2 MSTORE PUSH1 0x20 ADD SWAP1 DUP2 MSTORE PUSH1 0x20 ADD PUSH0 KECCAK256 SLOAD DUP3 PUSH2 0x4D0 SWAP2 SWAP1 PUSH2 0xD61 JUMP JUMPDEST SWAP2 POP DUP1 DUP1 PUSH1 0x1 ADD SWAP2 POP POP PUSH2 0x43F JUMP JUMPDEST POP DUP1 SWAP2 POP POP SWAP1 JUMP JUMPDEST PUSH0 CALLVALUE GT PUSH2 0x529 JUMPI PUSH1 0x40 MLOAD PUSH32 0x8C379A000000000000000000000000000000000000000000000000000000000 DUP2 MSTORE PUSH1 0x4 ADD PUSH2 0x520 SWAP1 PUSH2 0xDDE JUMP JUMPDEST PUSH1 0x40 MLOAD DUP1 SWAP2 SUB SWAP1 REVERT JUMPDEST PUSH0 SLOAD CALLVALUE PUSH1 0x3 PUSH0 CALLER PUSH20 0xFFFFFFFFFFFFFFFFFFFFFFFFFFFFFFFFFFFFFFFF AND PUSH20 0xFFFFFFFFFFFFFFFFFFFFFFFFFFFFFFFFFFFFFFFF AND DUP2 MSTORE PUSH1 0x20 ADD SWAP1 DUP2 MSTORE PUSH1 0x20 ADD PUSH0 KECCAK256 SLOAD PUSH2 0x574 SWAP2 SWAP1 PUSH2 0xD61 JUMP JUMPDEST GT ISZERO PUSH2 0x580 PUSH0 SLOAD PUSH2 0x7C5 JUMP JUMPDEST PUSH2 0x5D1 CALLVALUE PUSH1 0x3 PUSH0 CALLER PUSH20 0xFFFFFFFFFFFFFFFFFFFFFFFFFFFFFFFFFFFFFFFF AND PUSH20 0xFFFFFFFFFFFFFFFFFFFFFFFFFFFFFFFFFFFFFFFF AND DUP2 MSTORE PUSH1 0x20 ADD SWAP1 DUP2 MSTORE PUSH1 0x20 ADD PUSH0 KECCAK256 SLOAD PUSH2 0x5CC SWAP2 SWAP1 PUSH2 0xD61 JUMP JUMPDEST PUSH2 0x7C5 JUMP JUMPDEST PUSH1 0x40 MLOAD PUSH1 0x20 ADD PUSH2 0x5E2 SWAP3 SWAP2 SWAP1 PUSH2 0xEFE JUMP JUMPDEST PUSH1 0x40 MLOAD PUSH1 0x20 DUP2 DUP4 SUB SUB DUP2 MSTORE SWAP1 PUSH1 0x40 MSTORE SWAP1 PUSH2 0x632 JUMPI PUSH1 0x40 MLOAD PUSH32 0x8C379A000000000000000000000000000000000000000000000000000000000 DUP2 MSTORE PUSH1 0x4 ADD PUSH2 0x629 SWAP2 SWAP1 PUSH2 0xF83 JUMP JUMPDEST PUSH1 0x40 MLOAD DUP1 SWAP2 SUB SWAP1 REVERT JUMPDEST POP CALLVALUE PUSH1 0x3 PUSH0 CALLER PUSH20 0xFFFFFFFFFFFFFFFFFFFFFFFFFFFFFFFFFFFFFFFF AND PUSH20 0xFFFFFFFFFFFFFFFFFFFFFFFFFFFFFFFFFFFFFFFF AND DUP2 MSTORE PUSH1 0x20 ADD SWAP1 DUP2 MSTORE PUSH1 0x20 ADD PUSH0 KECCAK256 PUSH0 DUP3 DUP3 SLOAD PUSH2 0x67F SWAP2 SWAP1 PUSH2 0xD61 JUMP JUMPDEST SWAP3 POP POP DUP2 SWAP1 SSTORE POP PUSH1 0x4 PUSH0 CALLER PUSH20 0xFFFFFFFFFFFFFFFFFFFFFFFFFFFFFFFFFFFFFFFF AND PUSH20 0xFFFFFFFFFFFFFFFFFFFFFFFFFFFFFFFFFFFFFFFF AND DUP2 MSTORE PUSH1 0x20 ADD SWAP1 DUP2 MSTORE PUSH1 0x20 ADD PUSH0 KECCAK256 PUSH0 SWAP1 SLOAD SWAP1 PUSH2 0x100 EXP SWAP1 DIV PUSH1 0xFF AND PUSH2 0x78A JUMPI PUSH1 0x2 CALLER SWAP1 DUP1 PUSH1 0x1 DUP2 SLOAD ADD DUP1 DUP3 SSTORE DUP1 SWAP2 POP POP PUSH1 0x1 SWAP1 SUB SWAP1 PUSH0 MSTORE PUSH1 0x20 PUSH0 KECCAK256 ADD PUSH0 SWAP1 SWAP2 SWAP1 SWAP2 SWAP1 SWAP2 PUSH2 0x100 EXP DUP2 SLOAD DUP2 PUSH20 0xFFFFFFFFFFFFFFFFFFFFFFFFFFFFFFFFFFFFFFFF MUL NOT AND SWAP1 DUP4 PUSH20 0xFFFFFFFFFFFFFFFFFFFFFFFFFFFFFFFFFFFFFFFF AND MUL OR SWAP1 SSTORE POP PUSH1 0x1 PUSH1 0x4 PUSH0 CALLER PUSH20 0xFFFFFFFFFFFFFFFFFFFFFFFFFFFFFFFFFFFFFFFF AND PUSH20 0xFFFFFFFFFFFFFFFFFFFFFFFFFFFFFFFFFFFFFFFF AND DUP2 MSTORE PUSH1 0x20 ADD SWAP1 DUP2 MSTORE PUSH1 0x20 ADD PUSH0 KECCAK256 PUSH0 PUSH2 0x100 EXP DUP2 SLOAD DUP2 PUSH1 0xFF MUL NOT AND SWAP1 DUP4 ISZERO ISZERO MUL OR SWAP1 SSTORE POP JUMPDEST PUSH32 0xC77B4F05F46B0C2E62A43B7F33B429A815F5E8EE3C9A2E6B0E0000816FF43E76 CALLER CALLVALUE PUSH1 0x40 MLOAD PUSH2 0x7BB SWAP3 SWAP2 SWAP1 PUSH2 0xCA5 JUMP JUMPDEST PUSH1 0x40 MLOAD DUP1 SWAP2 SUB SWAP1 LOG1 JUMP JUMPDEST PUSH1 0x60 PUSH0 PUSH1 0x1 PUSH2 0x7D3 DUP5 PUSH2 0x88F JUMP JUMPDEST ADD SWAP1 POP PUSH0 DUP2 PUSH8 0xFFFFFFFFFFFFFFFF DUP2 GT ISZERO PUSH2 0x7F1 JUMPI PUSH2 0x7F0 PUSH2 0xFA3 JUMP JUMPDEST JUMPDEST PUSH1 0x40 MLOAD SWAP1 DUP1 DUP3 MSTORE DUP1 PUSH1 0x1F ADD PUSH1 0x1F NOT AND PUSH1 0x20 ADD DUP3 ADD PUSH1 0x40 MSTORE DUP1 ISZERO PUSH2 0x823 JUMPI DUP2 PUSH1 0x20 ADD PUSH1 0x1 DUP3 MUL DUP1 CALLDATASIZE DUP4 CALLDATACOPY DUP1 DUP3 ADD SWAP2 POP POP SWAP1 POP JUMPDEST POP SWAP1 POP PUSH0 DUP3 PUSH1 0x20 DUP4 ADD ADD SWAP1 POP JUMPDEST PUSH1 0x1 ISZERO PUSH2 0x884 JUMPI DUP1 DUP1 PUSH1 0x1 SWAP1 SUB SWAP2 POP POP PUSH32 0x3031323334353637383961626364656600000000000000000000000000000000 PUSH1 0xA DUP7 MOD BYTE DUP2 MSTORE8 PUSH1 0xA DUP6 DUP2 PUSH2 0x879 JUMPI PUSH2 0x878 PUSH2 0xFD0 JUMP JUMPDEST JUMPDEST DIV SWAP5 POP PUSH0 DUP6 SUB PUSH2 0x830 JUMPI JUMPDEST DUP2 SWAP4 POP POP POP POP SWAP2 SWAP1 POP JUMP JUMPDEST PUSH0 DUP1 PUSH0 SWAP1 POP PUSH27 0x184F03E93FF9F4DAA797ED6E38ED64BF6A1F010000000000000000 DUP4 LT PUSH2 0x8EB JUMPI PUSH27 0x184F03E93FF9F4DAA797ED6E38ED64BF6A1F010000000000000000 DUP4 DUP2 PUSH2 0x8E1 JUMPI PUSH2 0x8E0 PUSH2 0xFD0 JUMP JUMPDEST JUMPDEST DIV SWAP3 POP PUSH1 0x40 DUP2 ADD SWAP1 POP JUMPDEST PUSH14 0x4EE2D6D415B85ACEF8100000000 DUP4 LT PUSH2 0x928 JUMPI PUSH14 0x4EE2D6D415B85ACEF8100000000 DUP4 DUP2 PUSH2 0x91E JUMPI PUSH2 0x91D PUSH2 0xFD0 JUMP JUMPDEST JUMPDEST DIV SWAP3 POP PUSH1 0x20 DUP2 ADD SWAP1 POP JUMPDEST PUSH7 0x2386F26FC10000 DUP4 LT PUSH2 0x957 JUMPI PUSH7 0x2386F26FC10000 DUP4 DUP2 PUSH2 0x94D JUMPI PUSH2 0x94C PUSH2 0xFD0 JUMP JUMPDEST JUMPDEST DIV SWAP3 POP PUSH1 0x10 DUP2 ADD SWAP1 POP JUMPDEST PUSH4 0x5F5E100 DUP4 LT PUSH2 0x980 JUMPI PUSH4 0x5F5E100 DUP4 DUP2 PUSH2 0x976 JUMPI PUSH2 0x975 PUSH2 0xFD0 JUMP JUMPDEST JUMPDEST DIV SWAP3 POP PUSH1 0x8 DUP2 ADD SWAP1 POP JUMPDEST PUSH2 0x2710 DUP4 LT PUSH2 0x9A5 JUMPI PUSH2 0x2710 DUP4 DUP2 PUSH2 0x99B JUMPI PUSH2 0x99A PUSH2 0xFD0 JUMP JUMPDEST JUMPDEST DIV SWAP3 POP PUSH1 0x4 DUP2 ADD SWAP1 POP JUMPDEST PUSH1 0x64 DUP4 LT PUSH2 0x9C8 JUMPI PUSH1 0x64 DUP4 DUP2 PUSH2 0x9BE JUMPI PUSH2 0x9BD PUSH2 0xFD0 JUMP JUMPDEST JUMPDEST DIV SWAP3 POP PUSH1 0x2 DUP2 ADD SWAP1 POP JUMPDEST PUSH1 0xA DUP4 LT PUSH2 0x9D7 JUMPI PUSH1 0x1 DUP2 ADD SWAP1 POP JUMPDEST DUP1 SWAP2 POP POP SWAP2 SWAP1 POP JUMP JUMPDEST PUSH0 DUP1 REVERT JUMPDEST PUSH0 PUSH20 0xFFFFFFFFFFFFFFFFFFFFFFFFFFFFFFFFFFFFFFFF DUP3 AND SWAP1 POP SWAP2 SWAP1 POP JUMP JUMPDEST PUSH0 PUSH2 0xA0D DUP3 PUSH2 0x9E4 JUMP JUMPDEST SWAP1 POP SWAP2 SWAP1 POP JUMP JUMPDEST PUSH2 0xA1D DUP2 PUSH2 0xA03 JUMP JUMPDEST DUP2 EQ PUSH2 0xA27 JUMPI PUSH0 DUP1 REVERT JUMPDEST POP JUMP JUMPDEST PUSH0 DUP2 CALLDATALOAD SWAP1 POP PUSH2 0xA38 DUP2 PUSH2 0xA14 JUMP JUMPDEST SWAP3 SWAP2 POP POP JUMP JUMPDEST PUSH0 PUSH1 0x20 DUP3 DUP5 SUB SLT ISZERO PUSH2 0xA53 JUMPI PUSH2 0xA52 PUSH2 0x9E0 JUMP JUMPDEST JUMPDEST PUSH0 PUSH2 0xA60 DUP5 DUP3 DUP6 ADD PUSH2 0xA2A JUMP JUMPDEST SWAP2 POP POP SWAP3 SWAP2 POP POP JUMP JUMPDEST PUSH0 DUP2 SWAP1 POP SWAP2 SWAP1 POP JUMP JUMPDEST PUSH2 0xA7B DUP2 PUSH2 0xA69 JUMP JUMPDEST DUP3 MSTORE POP POP JUMP JUMPDEST PUSH0 PUSH1 0x20 DUP3 ADD SWAP1 POP PUSH2 0xA94 PUSH0 DUP4 ADD DUP5 PUSH2 0xA72 JUMP JUMPDEST SWAP3 SWAP2 POP POP JUMP JUMPDEST PUSH2 0xAA3 DUP2 PUSH2 0xA69 JUMP JUMPDEST DUP2 EQ PUSH2 0xAAD JUMPI PUSH0 DUP1 REVERT JUMPDEST POP JUMP JUMPDEST PUSH0 DUP2 CALLDATALOAD SWAP1 POP PUSH2 0xABE DUP2 PUSH2 0xA9A JUMP JUMPDEST SWAP3 SWAP2 POP POP JUMP JUMPDEST PUSH0 PUSH1 0x20 DUP3 DUP5 SUB SLT ISZERO PUSH2 0xAD9 JUMPI PUSH2 0xAD8 PUSH2 0x9E0 JUMP JUMPDEST JUMPDEST PUSH0 PUSH2 0xAE6 DUP5 DUP3 DUP6 ADD PUSH2 0xAB0 JUMP JUMPDEST SWAP2 POP POP SWAP3 SWAP2 POP POP JUMP JUMPDEST PUSH0 DUP3 DUP3 MSTORE PUSH1 0x20 DUP3 ADD SWAP1 POP SWAP3 SWAP2 POP POP JUMP JUMPDEST PUSH32 0x42616C616E6365206973206C6F776572207468616E2072657175657374656420 PUSH0 DUP3 ADD MSTORE PUSH32 0x76616C7565000000000000000000000000000000000000000000000000000000 PUSH1 0x20 DUP3 ADD MSTORE POP JUMP JUMPDEST PUSH0 PUSH2 0xB59 PUSH1 0x25 DUP4 PUSH2 0xAEF JUMP JUMPDEST SWAP2 POP PUSH2 0xB64 DUP3 PUSH2 0xAFF JUMP JUMPDEST PUSH1 0x40 DUP3 ADD SWAP1 POP SWAP2 SWAP1 POP JUMP JUMPDEST PUSH0 PUSH1 0x20 DUP3 ADD SWAP1 POP DUP2 DUP2 SUB PUSH0 DUP4 ADD MSTORE PUSH2 0xB86 DUP2 PUSH2 0xB4D JUMP JUMPDEST SWAP1 POP SWAP2 SWAP1 POP JUMP JUMPDEST PUSH32 0x4E487B7100000000000000000000000000000000000000000000000000000000 PUSH0 MSTORE PUSH1 0x11 PUSH1 0x4 MSTORE PUSH1 0x24 PUSH0 REVERT JUMPDEST PUSH0 PUSH2 0xBC4 DUP3 PUSH2 0xA69 JUMP JUMPDEST SWAP2 POP PUSH2 0xBCF DUP4 PUSH2 0xA69 JUMP JUMPDEST SWAP3 POP DUP3 DUP3 SUB SWAP1 POP DUP2 DUP2 GT ISZERO PUSH2 0xBE7 JUMPI PUSH2 0xBE6 PUSH2 0xB8D JUMP JUMPDEST JUMPDEST SWAP3 SWAP2 POP POP JUMP JUMPDEST PUSH0 DUP2 SWAP1 POP SWAP3 SWAP2 POP POP JUMP JUMPDEST POP JUMP JUMPDEST PUSH0 PUSH2 0xC05 PUSH0 DUP4 PUSH2 0xBED JUMP JUMPDEST SWAP2 POP PUSH2 0xC10 DUP3 PUSH2 0xBF7 JUMP JUMPDEST PUSH0 DUP3 ADD SWAP1 POP SWAP2 SWAP1 POP JUMP JUMPDEST PUSH0 PUSH2 0xC24 DUP3 PUSH2 0xBFA JUMP JUMPDEST SWAP2 POP DUP2 SWAP1 POP SWAP2 SWAP1 POP JUMP JUMPDEST PUSH32 0x5472616E73666572206661696C65640000000000000000000000000000000000 PUSH0 DUP3 ADD MSTORE POP JUMP JUMPDEST PUSH0 PUSH2 0xC62 PUSH1 0xF DUP4 PUSH2 0xAEF JUMP JUMPDEST SWAP2 POP PUSH2 0xC6D DUP3 PUSH2 0xC2E JUMP JUMPDEST PUSH1 0x20 DUP3 ADD SWAP1 POP SWAP2 SWAP1 POP JUMP JUMPDEST PUSH0 PUSH1 0x20 DUP3 ADD SWAP1 POP DUP2 DUP2 SUB PUSH0 DUP4 ADD MSTORE PUSH2 0xC8F DUP2 PUSH2 0xC56 JUMP JUMPDEST SWAP1 POP SWAP2 SWAP1 POP JUMP JUMPDEST PUSH2 0xC9F DUP2 PUSH2 0xA03 JUMP JUMPDEST DUP3 MSTORE POP POP JUMP JUMPDEST PUSH0 PUSH1 0x40 DUP3 ADD SWAP1 POP PUSH2 0xCB8 PUSH0 DUP4 ADD DUP6 PUSH2 0xC96 JUMP JUMPDEST PUSH2 0xCC5 PUSH1 0x20 DUP4 ADD DUP5 PUSH2 0xA72 JUMP JUMPDEST SWAP4 SWAP3 POP POP POP JUMP JUMPDEST PUSH32 0x596F7520617265206E6F742061646D696E000000000000000000000000000000 PUSH0 DUP3 ADD MSTORE POP JUMP JUMPDEST PUSH0 PUSH2 0xD00 PUSH1 0x11 DUP4 PUSH2 0xAEF JUMP JUMPDEST SWAP2 POP PUSH2 0xD0B DUP3 PUSH2 0xCCC JUMP JUMPDEST PUSH1 0x20 DUP3 ADD SWAP1 POP SWAP2 SWAP1 POP JUMP JUMPDEST PUSH0 PUSH1 0x20 DUP3 ADD SWAP1 POP DUP2 DUP2 SUB PUSH0 DUP4 ADD MSTORE PUSH2 0xD2D DUP2 PUSH2 0xCF4 JUMP JUMPDEST SWAP1 POP SWAP2 SWAP1 POP JUMP JUMPDEST PUSH32 0x4E487B7100000000000000000000000000000000000000000000000000000000 PUSH0 MSTORE PUSH1 0x32 PUSH1 0x4 MSTORE PUSH1 0x24 PUSH0 REVERT JUMPDEST PUSH0 PUSH2 0xD6B DUP3 PUSH2 0xA69 JUMP JUMPDEST SWAP2 POP PUSH2 0xD76 DUP4 PUSH2 0xA69 JUMP JUMPDEST SWAP3 POP DUP3 DUP3 ADD SWAP1 POP DUP1 DUP3 GT ISZERO PUSH2 0xD8E JUMPI PUSH2 0xD8D PUSH2 0xB8D JUMP JUMPDEST JUMPDEST SWAP3 SWAP2 POP POP JUMP JUMPDEST PUSH32 0x56616C7565206D7573742062652067726561746572207468616E203000000000 PUSH0 DUP3 ADD MSTORE POP JUMP JUMPDEST PUSH0 PUSH2 0xDC8 PUSH1 0x1C DUP4 PUSH2 0xAEF JUMP JUMPDEST SWAP2 POP PUSH2 0xDD3 DUP3 PUSH2 0xD94 JUMP JUMPDEST PUSH1 0x20 DUP3 ADD SWAP1 POP SWAP2 SWAP1 POP JUMP JUMPDEST PUSH0 PUSH1 0x20 DUP3 ADD SWAP1 POP DUP2 DUP2 SUB PUSH0 DUP4 ADD MSTORE PUSH2 0xDF5 DUP2 PUSH2 0xDBC JUMP JUMPDEST SWAP1 POP SWAP2 SWAP1 POP JUMP JUMPDEST PUSH32 0x4D61782062616C616E6365206973200000000000000000000000000000000000 DUP2 MSTORE POP JUMP JUMPDEST PUSH0 DUP2 MLOAD SWAP1 POP SWAP2 SWAP1 POP JUMP JUMPDEST PUSH0 DUP2 SWAP1 POP SWAP3 SWAP2 POP POP JUMP JUMPDEST PUSH0 JUMPDEST DUP4 DUP2 LT ISZERO PUSH2 0xE53 JUMPI DUP1 DUP3 ADD MLOAD DUP2 DUP5 ADD MSTORE PUSH1 0x20 DUP2 ADD SWAP1 POP PUSH2 0xE38 JUMP JUMPDEST PUSH0 DUP5 DUP5 ADD MSTORE POP POP POP POP JUMP JUMPDEST PUSH0 PUSH2 0xE68 DUP3 PUSH2 0xE22 JUMP JUMPDEST PUSH2 0xE72 DUP2 DUP6 PUSH2 0xE2C JUMP JUMPDEST SWAP4 POP PUSH2 0xE82 DUP2 DUP6 PUSH1 0x20 DUP7 ADD PUSH2 0xE36 JUMP JUMPDEST DUP1 DUP5 ADD SWAP2 POP POP SWAP3 SWAP2 POP POP JUMP JUMPDEST PUSH32 0x20616E6420796F757220746F74616C2062616C616E636520776F756C64206265 PUSH0 DUP3 ADD MSTORE PUSH32 0x2000000000000000000000000000000000000000000000000000000000000000 PUSH1 0x20 DUP3 ADD MSTORE POP JUMP JUMPDEST PUSH0 PUSH2 0xEE8 PUSH1 0x21 DUP4 PUSH2 0xE2C JUMP JUMPDEST SWAP2 POP PUSH2 0xEF3 DUP3 PUSH2 0xE8E JUMP JUMPDEST PUSH1 0x21 DUP3 ADD SWAP1 POP SWAP2 SWAP1 POP JUMP JUMPDEST PUSH0 PUSH2 0xF08 DUP3 PUSH2 0xDFC JUMP JUMPDEST PUSH1 0xF DUP3 ADD SWAP2 POP PUSH2 0xF18 DUP3 DUP6 PUSH2 0xE5E JUMP JUMPDEST SWAP2 POP PUSH2 0xF23 DUP3 PUSH2 0xEDC JUMP JUMPDEST SWAP2 POP PUSH2 0xF2F DUP3 DUP5 PUSH2 0xE5E JUMP JUMPDEST SWAP2 POP DUP2 SWAP1 POP SWAP4 SWAP3 POP POP POP JUMP JUMPDEST PUSH0 PUSH1 0x1F NOT PUSH1 0x1F DUP4 ADD AND SWAP1 POP SWAP2 SWAP1 POP JUMP JUMPDEST PUSH0 PUSH2 0xF55 DUP3 PUSH2 0xE22 JUMP JUMPDEST PUSH2 0xF5F DUP2 DUP6 PUSH2 0xAEF JUMP JUMPDEST SWAP4 POP PUSH2 0xF6F DUP2 DUP6 PUSH1 0x20 DUP7 ADD PUSH2 0xE36 JUMP JUMPDEST PUSH2 0xF78 DUP2 PUSH2 0xF3B JUMP JUMPDEST DUP5 ADD SWAP2 POP POP SWAP3 SWAP2 POP POP JUMP JUMPDEST PUSH0 PUSH1 0x20 DUP3 ADD SWAP1 POP DUP2 DUP2 SUB PUSH0 DUP4 ADD MSTORE PUSH2 0xF9B DUP2 DUP5 PUSH2 0xF4B JUMP JUMPDEST SWAP1 POP SWAP3 SWAP2 POP POP JUMP JUMPDEST PUSH32 0x4E487B7100000000000000000000000000000000000000000000000000000000 PUSH0 MSTORE PUSH1 0x41 PUSH1 0x4 MSTORE PUSH1 0x24 PUSH0 REVERT JUMPDEST PUSH32 0x4E487B7100000000000000000000000000000000000000000000000000000000 PUSH0 MSTORE PUSH1 0x12 PUSH1 0x4 MSTORE PUSH1 0x24 PUSH0 REVERT INVALID LOG2 PUSH5 0x6970667358 0x22 SLT KECCAK256 BLOBHASH 0xB2 PUSH6 0x32126F311815 0xE4 LOG0 0xF 0xC8 DUP16 0xA7 0xB4 0xD3 KECCAK256 0x2A 0xF8 0xC5 SWAP13 0xC3 PUSH12 0xFA9057D1305135764736F6C PUSH4 0x43000818 STOP CALLER "
				},
				"gasEstimates": {
					"creation": {
						"codeDepositCost": "829400",
						"executionCost": "infinite",
						"totalCost": "infinite"
					},
					"external": {
						"depositEther()": "infinite",
						"getBankBalance()": "infinite",
						"maxBalance()": "2468",
						"modifyMoxBalance(uint256)": "24705",
						"userBalance(address)": "2780",
						"withdrawEther(uint256)": "infinite"
					}
				},
				"methodIdentifiers": {
					"depositEther()": "98ea5fca",
					"getBankBalance()": "7b83b50b",
					"maxBalance()": "73ad468a",
					"modifyMoxBalance(uint256)": "4310b578",
					"userBalance(address)": "0103c92b",
					"withdrawEther(uint256)": "3bed33ce"
				}
			},
			"storageLayout": {
				"storage": [
					{
						"astId": 4991,
						"contract": "contracts/CryptoBank.sol:CyptoBank",
						"label": "maxBalance",
						"offset": 0,
						"slot": "0",
						"type": "t_uint256"
					},
					{
						"astId": 4993,
						"contract": "contracts/CryptoBank.sol:CyptoBank",
						"label": "admin",
						"offset": 0,
						"slot": "1",
						"type": "t_address"
					},
					{
						"astId": 4996,
						"contract": "contracts/CryptoBank.sol:CyptoBank",
						"label": "users",
						"offset": 0,
						"slot": "2",
						"type": "t_array(t_address)dyn_storage"
					},
					{
						"astId": 5000,
						"contract": "contracts/CryptoBank.sol:CyptoBank",
						"label": "userBalance",
						"offset": 0,
						"slot": "3",
						"type": "t_mapping(t_address,t_uint256)"
					},
					{
						"astId": 5004,
						"contract": "contracts/CryptoBank.sol:CyptoBank",
						"label": "added",
						"offset": 0,
						"slot": "4",
						"type": "t_mapping(t_address,t_bool)"
					}
				],
				"types": {
					"t_address": {
						"encoding": "inplace",
						"label": "address",
						"numberOfBytes": "20"
					},
					"t_array(t_address)dyn_storage": {
						"base": "t_address",
						"encoding": "dynamic_array",
						"label": "address[]",
						"numberOfBytes": "32"
					},
					"t_bool": {
						"encoding": "inplace",
						"label": "bool",
						"numberOfBytes": "1"
					},
					"t_mapping(t_address,t_bool)": {
						"encoding": "mapping",
						"key": "t_address",
						"label": "mapping(address => bool)",
						"numberOfBytes": "32",
						"value": "t_bool"
					},
					"t_mapping(t_address,t_uint256)": {
						"encoding": "mapping",
						"key": "t_address",
						"label": "mapping(address => uint256)",
						"numberOfBytes": "32",
						"value": "t_uint256"
					},
					"t_uint256": {
						"encoding": "inplace",
						"label": "uint256",
						"numberOfBytes": "32"
					}
				}
			},
			"userdoc": {
				"kind": "user",
				"methods": {
					"depositEther()": {
						"notice": "Allows users to deposit ether into their balance"
					},
					"getBankBalance()": {
						"notice": "Returns total ether held by all users in the bank"
					},
					"modifyMoxBalance(uint256)": {
						"notice": "Allows admin to modify the maximum allowed balance per user"
					},
					"withdrawEther(uint256)": {
						"notice": "Allows users to withdraw ether from their own balance"
					}
				},
				"version": 1
			}
		}
	}
}